{
  "contractName": "DodoRepository",
  "abi": [
    {
      "constant": true,
      "inputs": [
        {
          "name": "",
          "type": "uint256"
        }
      ],
      "name": "infos",
      "outputs": [
        {
          "name": "name",
          "type": "string"
        },
        {
          "name": "description",
          "type": "string"
        },
        {
          "name": "participant",
          "type": "address"
        },
        {
          "name": "startDate",
          "type": "uint256"
        },
        {
          "name": "endDate",
          "type": "uint256"
        },
        {
          "name": "freezeAmount",
          "type": "uint256"
        }
      ],
      "payable": false,
      "stateMutability": "view",
      "type": "function"
    },
    {
      "constant": true,
      "inputs": [
        {
          "name": "",
          "type": "uint256"
        }
      ],
      "name": "whiteList",
      "outputs": [
        {
          "name": "",
          "type": "address"
        }
      ],
      "payable": false,
      "stateMutability": "view",
      "type": "function"
    },
    {
      "constant": true,
      "inputs": [
        {
          "name": "",
          "type": "uint256"
        }
      ],
      "name": "blackList",
      "outputs": [
        {
          "name": "",
          "type": "address"
        }
      ],
      "payable": false,
      "stateMutability": "view",
      "type": "function"
    },
    {
      "constant": true,
      "inputs": [
        {
          "name": "",
          "type": "uint256"
        }
      ],
      "name": "proofs",
      "outputs": [
        {
          "name": "name",
          "type": "string"
        },
        {
          "name": "memo",
          "type": "string"
        },
        {
          "name": "projectNo",
          "type": "uint256"
        },
        {
          "name": "timestamp",
          "type": "uint256"
        },
        {
          "name": "judged",
          "type": "uint8"
        }
      ],
      "payable": false,
      "stateMutability": "view",
      "type": "function"
    },
    {
      "constant": true,
      "inputs": [
        {
          "name": "",
          "type": "uint256"
        }
      ],
      "name": "statuses",
      "outputs": [
        {
          "name": "active",
          "type": "bool"
        },
        {
          "name": "success",
          "type": "bool"
        },
        {
          "name": "claimed",
          "type": "uint8"
        }
      ],
      "payable": false,
      "stateMutability": "view",
      "type": "function"
    },
    {
      "constant": true,
      "inputs": [
        {
          "name": "",
          "type": "uint256"
        }
      ],
      "name": "referees",
      "outputs": [
        {
          "name": "referee1",
          "type": "address"
        },
        {
          "name": "referee2",
          "type": "address"
        },
        {
          "name": "referee3",
          "type": "address"
        }
      ],
      "payable": false,
      "stateMutability": "view",
      "type": "function"
    },
    {
      "inputs": [],
      "payable": false,
      "stateMutability": "nonpayable",
      "type": "constructor"
    },
    {
      "payable": true,
      "stateMutability": "payable",
      "type": "fallback"
    },
    {
      "constant": false,
      "inputs": [
        {
          "name": "_name",
          "type": "string"
        },
        {
          "name": "_description",
          "type": "string"
        },
        {
          "name": "_startDate",
          "type": "uint256"
        },
        {
          "name": "_endDate",
          "type": "uint256"
        }
      ],
      "name": "createProject",
      "outputs": [
        {
          "name": "",
          "type": "bool"
        }
      ],
      "payable": true,
      "stateMutability": "payable",
      "type": "function"
    },
    {
      "constant": false,
      "inputs": [
        {
          "name": "_index",
          "type": "uint256"
        }
      ],
      "name": "finalizeProject",
      "outputs": [
        {
          "name": "",
          "type": "bool"
        }
      ],
      "payable": true,
      "stateMutability": "payable",
      "type": "function"
    },
    {
      "constant": false,
      "inputs": [
        {
          "name": "_index",
          "type": "uint256"
        },
        {
          "name": "name",
          "type": "string"
        },
        {
          "name": "memo",
          "type": "string"
        }
      ],
      "name": "submitProof",
      "outputs": [
        {
          "name": "",
          "type": "bool"
        }
      ],
      "payable": false,
      "stateMutability": "nonpayable",
      "type": "function"
    },
    {
      "constant": false,
      "inputs": [
        {
          "name": "_index",
          "type": "uint256"
        },
        {
          "name": "name",
          "type": "string"
        },
        {
          "name": "memo",
          "type": "string"
        }
      ],
      "name": "claimJudge",
      "outputs": [
        {
          "name": "",
          "type": "bool"
        }
      ],
      "payable": false,
      "stateMutability": "nonpayable",
      "type": "function"
    },
    {
      "constant": false,
      "inputs": [
        {
          "name": "_index",
          "type": "uint256"
        }
      ],
      "name": "claimApprove",
      "outputs": [
        {
          "name": "",
          "type": "bool"
        }
      ],
      "payable": false,
      "stateMutability": "nonpayable",
      "type": "function"
    },
    {
      "constant": false,
      "inputs": [
        {
          "name": "_index",
          "type": "uint256"
        }
      ],
      "name": "claimDecline",
      "outputs": [
        {
          "name": "",
          "type": "bool"
        }
      ],
      "payable": false,
      "stateMutability": "nonpayable",
      "type": "function"
    },
    {
      "constant": false,
      "inputs": [],
      "name": "applyReferee",
      "outputs": [
        {
          "name": "",
          "type": "bool"
        }
      ],
      "payable": false,
      "stateMutability": "nonpayable",
      "type": "function"
    },
    {
      "constant": false,
      "inputs": [],
      "name": "cancelReferee",
      "outputs": [
        {
          "name": "",
          "type": "bool"
        }
      ],
      "payable": false,
      "stateMutability": "nonpayable",
      "type": "function"
    },
    {
      "constant": false,
      "inputs": [
        {
          "name": "_index",
          "type": "uint256"
        }
      ],
      "name": "likeProof",
      "outputs": [
        {
          "name": "",
          "type": "bool"
        }
      ],
      "payable": false,
      "stateMutability": "nonpayable",
      "type": "function"
    },
    {
      "constant": false,
      "inputs": [
        {
          "name": "_index",
          "type": "uint256"
        }
      ],
      "name": "dislikeProof",
      "outputs": [
        {
          "name": "",
          "type": "bool"
        }
      ],
      "payable": false,
      "stateMutability": "nonpayable",
      "type": "function"
    },
    {
      "constant": true,
      "inputs": [],
      "name": "getWhiteList",
      "outputs": [
        {
          "name": "",
          "type": "address[]"
        }
      ],
      "payable": false,
      "stateMutability": "view",
      "type": "function"
    },
    {
      "constant": true,
      "inputs": [],
      "name": "getProjectCounts",
      "outputs": [
        {
          "name": "",
          "type": "uint256"
        }
      ],
      "payable": false,
      "stateMutability": "view",
      "type": "function"
    },
    {
      "constant": true,
      "inputs": [
        {
          "name": "_index",
          "type": "uint256"
        }
      ],
      "name": "getProjectInfo",
      "outputs": [
        {
          "name": "name",
          "type": "string"
        },
        {
          "name": "description",
          "type": "string"
        },
        {
          "name": "participant",
          "type": "address"
        },
        {
          "name": "startDate",
          "type": "uint256"
        },
        {
          "name": "endDate",
          "type": "uint256"
        },
        {
          "name": "freeAmount",
          "type": "uint256"
        }
      ],
      "payable": false,
      "stateMutability": "view",
      "type": "function"
    },
    {
      "constant": true,
      "inputs": [
        {
          "name": "_index",
          "type": "uint256"
        }
      ],
      "name": "getProjectStatus",
      "outputs": [
        {
          "name": "active",
          "type": "bool"
        },
        {
          "name": "success",
          "type": "bool"
        },
        {
          "name": "claimed",
          "type": "uint8"
        }
      ],
      "payable": false,
      "stateMutability": "view",
      "type": "function"
    },
    {
      "constant": true,
      "inputs": [
        {
          "name": "_index",
          "type": "uint256"
        }
      ],
      "name": "getProjectReferees",
      "outputs": [
        {
          "name": "",
          "type": "address"
        },
        {
          "name": "",
          "type": "address"
        },
        {
          "name": "",
          "type": "address"
        }
      ],
      "payable": false,
      "stateMutability": "view",
      "type": "function"
    },
    {
      "constant": true,
      "inputs": [
        {
          "name": "_address",
          "type": "address"
        }
      ],
      "name": "getMyProjectList",
      "outputs": [
        {
          "name": "list",
          "type": "uint256[]"
        }
      ],
      "payable": false,
      "stateMutability": "view",
      "type": "function"
    },
    {
      "constant": true,
      "inputs": [],
      "name": "getAllProofsCount",
      "outputs": [
        {
          "name": "",
          "type": "uint256"
        }
      ],
      "payable": false,
      "stateMutability": "view",
      "type": "function"
    },
    {
      "constant": true,
      "inputs": [
        {
          "name": "_index",
          "type": "uint256"
        }
      ],
      "name": "getProofsCount",
      "outputs": [
        {
          "name": "",
          "type": "uint256"
        }
      ],
      "payable": false,
      "stateMutability": "view",
      "type": "function"
    },
    {
      "constant": true,
      "inputs": [
        {
          "name": "_index",
          "type": "uint256"
        }
      ],
      "name": "getProof",
      "outputs": [
        {
          "name": "name",
          "type": "string"
        },
        {
          "name": "memo",
          "type": "string"
        },
        {
          "name": "projectNo",
          "type": "uint256"
        },
        {
          "name": "timestamp",
          "type": "uint256"
        },
        {
          "name": "judged",
          "type": "uint8"
        },
        {
          "name": "like",
          "type": "address[]"
        },
        {
          "name": "dislike",
          "type": "address[]"
        }
      ],
      "payable": false,
      "stateMutability": "view",
      "type": "function"
    },
    {
      "constant": true,
      "inputs": [
        {
          "name": "_index",
          "type": "uint256"
        }
      ],
      "name": "getProofList",
      "outputs": [
        {
          "name": "list",
          "type": "uint256[]"
        }
      ],
      "payable": false,
      "stateMutability": "view",
      "type": "function"
    },
    {
      "constant": true,
      "inputs": [
        {
          "name": "_address",
          "type": "address"
        }
      ],
      "name": "getJudgeList",
      "outputs": [
        {
          "name": "list",
          "type": "uint256[]"
        }
      ],
      "payable": false,
      "stateMutability": "view",
      "type": "function"
    },
    {
      "constant": true,
      "inputs": [
        {
          "name": "_address",
          "type": "address"
        }
      ],
      "name": "getParticipantProofList",
      "outputs": [
        {
          "name": "list",
          "type": "uint256[]"
        }
      ],
      "payable": false,
      "stateMutability": "view",
      "type": "function"
    },
    {
      "constant": true,
      "inputs": [
        {
          "name": "_index",
          "type": "uint256"
        }
      ],
      "name": "getClaim",
      "outputs": [
        {
          "name": "name",
          "type": "string"
        },
        {
          "name": "memo",
          "type": "string"
        },
        {
          "name": "timestamp",
          "type": "uint256"
        },
        {
          "name": "judged",
          "type": "uint8"
        }
      ],
      "payable": false,
      "stateMutability": "view",
      "type": "function"
    }
  ],
  "bytecode": "0x60806040526202a300600c556000600d5534801561001c57600080fd5b5073bf128f013f40ec7fdfe95d0a298e85764f628e7f6000806101000a81548173ffffffffffffffffffffffffffffffffffffffff021916908373ffffffffffffffffffffffffffffffffffffffff160217905550600a73bf128f013f40ec7fdfe95d0a298e85764f628e7f90806001815401808255809150509060018203906000526020600020016000909192909190916101000a81548173ffffffffffffffffffffffffffffffffffffffff021916908373ffffffffffffffffffffffffffffffffffffffff16021790555050600a73d8598fb4281457f6c3c0e66f1aae1f719d4f043290806001815401808255809150509060018203906000526020600020016000909192909190916101000a81548173ffffffffffffffffffffffffffffffffffffffff021916908373ffffffffffffffffffffffffffffffffffffffff16021790555050600a73e64829ebbffa77b5d1b668fbf7e4cfb36ad3324590806001815401808255809150509060018203906000526020600020016000909192909190916101000a81548173ffffffffffffffffffffffffffffffffffffffff021916908373ffffffffffffffffffffffffffffffffffffffff16021790555050615310806101ee6000396000f300608060405260043610610175576000357c0100000000000000000000000000000000000000000000000000000000900463ffffffff16806307f4f2841461017a57806309a9d76c1461024b57806311149ada146102b757806328de3c9b146104745780632ee6f708146105ce5780633a0f45bb146106665780634d1d5534146107375780634d798de5146107b957806353ab1128146107f15780635aef2447146108325780635c475d4214610958578063709ec8b4146109c55780637952ce5114610a325780638dc039b414610a7757806394ba970914610b4a5780639675c00914610c18578063973a714f14610c7557806397842aa014610cba5780639ddaf5aa14610d52578063a3a8b0cb14610e7f578063b3219bfa14610ec4578063b780aa7d14610ef3578063d820951314610f8b578063d96f726214610fb6578063e67b932c14610ffb578063edb5ae8a14611058578063eef60e0c1461112b578063f60981be1461115a578063fabf596814611185575b600080fd5b34801561018657600080fd5b5061023160048036038101908080359060200190929190803590602001908201803590602001908080601f0160208091040260200160405190810160405280939291908181526020018383808284378201915050505050509192919290803590602001908201803590602001908080601f01602080910402602001604051908101604052809392919081815260200183838082843782019150505050505091929192905050506112df565b604051808215151515815260200191505060405180910390f35b34801561025757600080fd5b506102606117dc565b6040518080602001828103825283818151815260200191508051906020019060200280838360005b838110156102a3578082015181840152602081019050610288565b505050509050019250505060405180910390f35b3480156102c357600080fd5b506102e26004803603810190808035906020019092919050505061186a565b6040518080602001806020018881526020018781526020018660ff1660ff168152602001806020018060200185810385528c818151815260200191508051906020019080838360005b8381101561034657808201518184015260208101905061032b565b50505050905090810190601f1680156103735780820380516001836020036101000a031916815260200191505b5085810384528b818151815260200191508051906020019080838360005b838110156103ac578082015181840152602081019050610391565b50505050905090810190601f1680156103d95780820380516001836020036101000a031916815260200191505b50858103835287818151815260200191508051906020019060200280838360005b838110156104155780820151818401526020810190506103fa565b50505050905001858103825286818151815260200191508051906020019060200280838360005b8381101561045757808201518184015260208101905061043c565b505050509050019b50505050505050505050505060405180910390f35b34801561048057600080fd5b5061049f60048036038101908080359060200190929190505050611bc6565b6040518080602001806020018773ffffffffffffffffffffffffffffffffffffffff1673ffffffffffffffffffffffffffffffffffffffff168152602001868152602001858152602001848152602001838103835289818151815260200191508051906020019080838360005b8381101561052757808201518184015260208101905061050c565b50505050905090810190601f1680156105545780820380516001836020036101000a031916815260200191505b50838103825288818151815260200191508051906020019080838360005b8381101561058d578082015181840152602081019050610572565b50505050905090810190601f1680156105ba5780820380516001836020036101000a031916815260200191505b509850505050505050505060405180910390f35b3480156105da57600080fd5b5061060f600480360381019080803573ffffffffffffffffffffffffffffffffffffffff169060200190929190505050611d61565b6040518080602001828103825283818151815260200191508051906020019060200280838360005b83811015610652578082015181840152602081019050610637565b505050509050019250505060405180910390f35b34801561067257600080fd5b5061071d60048036038101908080359060200190929190803590602001908201803590602001908080601f0160208091040260200160405190810160405280939291908181526020018383808284378201915050505050509192919290803590602001908201803590602001908080601f0160208091040260200160405190810160405280939291908181526020018383808284378201915050505050509192919290505050611df8565b604051808215151515815260200191505060405180910390f35b34801561074357600080fd5b50610762600480360381019080803590602001909291905050506120ca565b6040518080602001828103825283818151815260200191508051906020019060200280838360005b838110156107a557808201518184015260208101905061078a565b505050509050019250505060405180910390f35b6107d760048036038101908080359060200190929190505050612135565b604051808215151515815260200191505060405180910390f35b3480156107fd57600080fd5b5061081c6004803603810190808035906020019092919050505061267b565b6040518082815260200191505060405180910390f35b34801561083e57600080fd5b5061085d6004803603810190808035906020019092919050505061269b565b6040518080602001806020018581526020018460ff1660ff168152602001838103835287818151815260200191508051906020019080838360005b838110156108b3578082015181840152602081019050610898565b50505050905090810190601f1680156108e05780820380516001836020036101000a031916815260200191505b50838103825286818151815260200191508051906020019080838360005b838110156109195780820151818401526020810190506108fe565b50505050905090810190601f1680156109465780820380516001836020036101000a031916815260200191505b50965050505050505060405180910390f35b34801561096457600080fd5b5061098360048036038101908080359060200190929190505050612985565b604051808273ffffffffffffffffffffffffffffffffffffffff1673ffffffffffffffffffffffffffffffffffffffff16815260200191505060405180910390f35b3480156109d157600080fd5b506109f0600480360381019080803590602001909291905050506129c3565b604051808273ffffffffffffffffffffffffffffffffffffffff1673ffffffffffffffffffffffffffffffffffffffff16815260200191505060405180910390f35b348015610a3e57600080fd5b50610a5d60048036038101908080359060200190929190505050612a01565b604051808215151515815260200191505060405180910390f35b348015610a8357600080fd5b50610aa260048036038101908080359060200190929190505050612c6d565b604051808473ffffffffffffffffffffffffffffffffffffffff1673ffffffffffffffffffffffffffffffffffffffff1681526020018373ffffffffffffffffffffffffffffffffffffffff1673ffffffffffffffffffffffffffffffffffffffff1681526020018273ffffffffffffffffffffffffffffffffffffffff1673ffffffffffffffffffffffffffffffffffffffff168152602001935050505060405180910390f35b610bfe600480360381019080803590602001908201803590602001908080601f0160208091040260200160405190810160405280939291908181526020018383808284378201915050505050509192919290803590602001908201803590602001908080601f01602080910402602001604051908101604052809392919081815260200183838082843782019150505050505091929192908035906020019092919080359060200190929190505050612dc4565b604051808215151515815260200191505060405180910390f35b348015610c2457600080fd5b50610c4360048036038101908080359060200190929190505050612e76565b6040518084151515158152602001831515151581526020018260ff1660ff168152602001935050505060405180910390f35b348015610c8157600080fd5b50610ca060048036038101908080359060200190929190505050612f1a565b604051808215151515815260200191505060405180910390f35b348015610cc657600080fd5b50610cfb600480360381019080803573ffffffffffffffffffffffffffffffffffffffff169060200190929190505050613186565b6040518080602001828103825283818151815260200191508051906020019060200280838360005b83811015610d3e578082015181840152602081019050610d23565b505050509050019250505060405180910390f35b348015610d5e57600080fd5b50610d7d6004803603810190808035906020019092919050505061321d565b6040518080602001806020018681526020018581526020018460ff1660ff168152602001838103835288818151815260200191508051906020019080838360005b83811015610dd9578082015181840152602081019050610dbe565b50505050905090810190601f168015610e065780820380516001836020036101000a031916815260200191505b50838103825287818151815260200191508051906020019080838360005b83811015610e3f578082015181840152602081019050610e24565b50505050905090810190601f168015610e6c5780820380516001836020036101000a031916815260200191505b5097505050505050505060405180910390f35b348015610e8b57600080fd5b50610eaa6004803603810190808035906020019092919050505061339f565b604051808215151515815260200191505060405180910390f35b348015610ed057600080fd5b50610ed9613946565b604051808215151515815260200191505060405180910390f35b348015610eff57600080fd5b50610f34600480360381019080803573ffffffffffffffffffffffffffffffffffffffff169060200190929190505050613a4d565b6040518080602001828103825283818151815260200191508051906020019060200280838360005b83811015610f77578082015181840152602081019050610f5c565b505050509050019250505060405180910390f35b348015610f9757600080fd5b50610fa0613ae4565b6040518082815260200191505060405180910390f35b348015610fc257600080fd5b50610fe160048036038101908080359060200190929190505050613af1565b604051808215151515815260200191505060405180910390f35b34801561100757600080fd5b5061102660048036038101908080359060200190929190505050614098565b6040518084151515158152602001831515151581526020018260ff1660ff168152602001935050505060405180910390f35b34801561106457600080fd5b50611083600480360381019080803590602001909291905050506140f4565b604051808473ffffffffffffffffffffffffffffffffffffffff1673ffffffffffffffffffffffffffffffffffffffff1681526020018373ffffffffffffffffffffffffffffffffffffffff1673ffffffffffffffffffffffffffffffffffffffff1681526020018273ffffffffffffffffffffffffffffffffffffffff1673ffffffffffffffffffffffffffffffffffffffff168152602001935050505060405180910390f35b34801561113757600080fd5b5061114061418d565b604051808215151515815260200191505060405180910390f35b34801561116657600080fd5b5061116f6142e6565b6040518082815260200191505060405180910390f35b34801561119157600080fd5b506111b0600480360381019080803590602001909291905050506142f3565b6040518080602001806020018773ffffffffffffffffffffffffffffffffffffffff1673ffffffffffffffffffffffffffffffffffffffff168152602001868152602001858152602001848152602001838103835289818151815260200191508051906020019080838360005b8381101561123857808201518184015260208101905061121d565b50505050905090810190601f1680156112655780820380516001836020036101000a031916815260200191505b50838103825288818151815260200191508051906020019080838360005b8381101561129e578082015181840152602081019050611283565b50505050905090810190601f1680156112cb5780820380516001836020036101000a031916815260200191505b509850505050505050505060405180910390f35b60006112e961502b565b846001818154811015156112f957fe5b906000526020600020906006020160020160009054906101000a900473ffffffffffffffffffffffffffffffffffffffff1673ffffffffffffffffffffffffffffffffffffffff163373ffffffffffffffffffffffffffffffffffffffff161415156113f3576040517f08c379a00000000000000000000000000000000000000000000000000000000081526004018080602001828103825260308152602001807f54686973207472616e73616374696f6e206d7573742062652063616c6c65642081526020017f62792070726f6a656374206f776e65720000000000000000000000000000000081525060400191505060405180910390fd5b848260000181905250838260200181905250428260600181815250506000826080019060ff16908160ff16815250508582604001818152505060058290806001815401808255809150509060018203906000526020600020906007020160009091929091909150600082015181600001908051906020019061147692919061506c565b50602082015181600101908051906020019061149392919061506c565b50604082015181600201556060820151816003015560808201518160040160006101000a81548160ff021916908360ff16021790555060a08201518160050190805190602001906114e59291906150ec565b5060c08201518160060190805190602001906115029291906150ec565b505050506006600087815260200190815260200160002060016005805490500390806001815401808255809150509060018203906000526020600020016000909192909190915055506007600060038881548110151561155e57fe5b906000526020600020906003020160000160009054906101000a900473ffffffffffffffffffffffffffffffffffffffff1673ffffffffffffffffffffffffffffffffffffffff1673ffffffffffffffffffffffffffffffffffffffff16815260200190815260200160002060016005805490500390806001815401808255809150509060018203906000526020600020016000909192909190915055506007600060038881548110151561160f57fe5b906000526020600020906003020160010160009054906101000a900473ffffffffffffffffffffffffffffffffffffffff1673ffffffffffffffffffffffffffffffffffffffff1673ffffffffffffffffffffffffffffffffffffffff1681526020019081526020016000206001600580549050039080600181540180825580915050906001820390600052602060002001600090919290919091505550600760006003888154811015156116c057fe5b906000526020600020906003020160020160009054906101000a900473ffffffffffffffffffffffffffffffffffffffff1673ffffffffffffffffffffffffffffffffffffffff1673ffffffffffffffffffffffffffffffffffffffff1681526020019081526020016000206001600580549050039080600181540180825580915050906001820390600052602060002001600090919290919091505550600860003373ffffffffffffffffffffffffffffffffffffffff1673ffffffffffffffffffffffffffffffffffffffff16815260200190815260200160002060016005805490500390806001815401808255809150509060018203906000526020600020016000909192909190915055506001925050509392505050565b6060600a80548060200260200160405190810160405280929190818152602001828054801561186057602002820191906000526020600020905b8160009054906101000a900473ffffffffffffffffffffffffffffffffffffffff1673ffffffffffffffffffffffffffffffffffffffff1681526020019060010190808311611816575b5050505050905090565b606080600080600060608060058881548110151561188457fe5b90600052602060002090600702016000016005898154811015156118a457fe5b906000526020600020906007020160010160058a8154811015156118c457fe5b90600052602060002090600702016002015460058b8154811015156118e557fe5b90600052602060002090600702016003015460058c81548110151561190657fe5b906000526020600020906007020160040160009054906101000a900460ff1660058d81548110151561193457fe5b906000526020600020906007020160050160058e81548110151561195457fe5b9060005260206000209060070201600601868054600181600116156101000203166002900480601f0160208091040260200160405190810160405280929190818152602001828054600181600116156101000203166002900480156119fa5780601f106119cf576101008083540402835291602001916119fa565b820191906000526020600020905b8154815290600101906020018083116119dd57829003601f168201915b50505050509650858054600181600116156101000203166002900480601f016020809104026020016040519081016040528092919081815260200182805460018160011615610100020316600290048015611a965780601f10611a6b57610100808354040283529160200191611a96565b820191906000526020600020905b815481529060010190602001808311611a7957829003601f168201915b5050505050955081805480602002602001604051908101604052809291908181526020018280548015611b1e57602002820191906000526020600020905b8160009054906101000a900473ffffffffffffffffffffffffffffffffffffffff1673ffffffffffffffffffffffffffffffffffffffff1681526020019060010190808311611ad4575b5050505050915080805480602002602001604051908101604052809291908181526020018280548015611ba657602002820191906000526020600020905b8160009054906101000a900473ffffffffffffffffffffffffffffffffffffffff1673ffffffffffffffffffffffffffffffffffffffff1681526020019060010190808311611b5c575b505050505090509650965096509650965096509650919395979092949650565b600181815481101515611bd557fe5b9060005260206000209060060201600091509050806000018054600181600116156101000203166002900480601f016020809104026020016040519081016040528092919081815260200182805460018160011615610100020316600290048015611c815780601f10611c5657610100808354040283529160200191611c81565b820191906000526020600020905b815481529060010190602001808311611c6457829003601f168201915b505050505090806001018054600181600116156101000203166002900480601f016020809104026020016040519081016040528092919081815260200182805460018160011615610100020316600290048015611d1f5780601f10611cf457610100808354040283529160200191611d1f565b820191906000526020600020905b815481529060010190602001808311611d0257829003601f168201915b5050505050908060020160009054906101000a900473ffffffffffffffffffffffffffffffffffffffff16908060030154908060040154908060050154905086565b6060600760008373ffffffffffffffffffffffffffffffffffffffff1673ffffffffffffffffffffffffffffffffffffffff168152602001908152602001600020805480602002602001604051908101604052809291908181526020018280548015611dec57602002820191906000526020600020905b815481526020019060010190808311611dd8575b50505050509050919050565b6000611e0261502b565b846001600582815481101515611e1457fe5b906000526020600020906007020160020154815481101515611e3257fe5b906000526020600020906006020160020160009054906101000a900473ffffffffffffffffffffffffffffffffffffffff1673ffffffffffffffffffffffffffffffffffffffff163373ffffffffffffffffffffffffffffffffffffffff16141515611f2c576040517f08c379a00000000000000000000000000000000000000000000000000000000081526004018080602001828103825260308152602001807f54686973207472616e73616374696f6e206d7573742062652063616c6c65642081526020017f62792070726f6a656374206f776e65720000000000000000000000000000000081525060400191505060405180910390fd5b848260000181905250838260200181905250428260600181815250506001826080019060ff16908160ff168152505081600960008881526020019081526020016000206000820151816000019080519060200190611f8b92919061506c565b506020820151816001019080519060200190611fa892919061506c565b50604082015181600201556060820151816003015560808201518160040160006101000a81548160ff021916908360ff16021790555060a0820151816005019080519060200190611ffa9291906150ec565b5060c08201518160060190805190602001906120179291906150ec565b50905050600160058781548110151561202c57fe5b906000526020600020906007020160040160006101000a81548160ff021916908360ff1602179055506001600260058881548110151561206857fe5b90600052602060002090600702016002015481548110151561208657fe5b9060005260206000200160000160028282829054906101000a900460ff160192506101000a81548160ff021916908360ff1602179055506001925050509392505050565b60606006600083815260200190815260200160002080548060200260200160405190810160405280929190818152602001828054801561212957602002820191906000526020600020905b815481526020019060010190808311612115575b50505050509050919050565b600061213f615176565b6121476151c3565b60008060018681548110151561215957fe5b906000526020600020906006020160c06040519081016040529081600082018054600181600116156101000203166002900480601f01602080910402602001604051908101604052809291908181526020018280546001816001161561010002031660029004801561220c5780601f106121e15761010080835404028352916020019161220c565b820191906000526020600020905b8154815290600101906020018083116121ef57829003601f168201915b50505050508152602001600182018054600181600116156101000203166002900480601f0160208091040260200160405190810160405280929190818152602001828054600181600116156101000203166002900480156122ae5780601f10612283576101008083540402835291602001916122ae565b820191906000526020600020905b81548152906001019060200180831161229157829003601f168201915b505050505081526020016002820160009054906101000a900473ffffffffffffffffffffffffffffffffffffffff1673ffffffffffffffffffffffffffffffffffffffff1673ffffffffffffffffffffffffffffffffffffffff1681526020016003820154815260200160048201548152602001600582015481525050935060028681548110151561233c57fe5b90600052602060002001606060405190810160405290816000820160009054906101000a900460ff161515151581526020016000820160019054906101000a900460ff161515151581526020016000820160029054906101000a900460ff1660ff1660ff16815250509250600183604001510160ff16600c54028460800151014210151515612459576040517f08c379a00000000000000000000000000000000000000000000000000000000081526004018080602001828103825260398152602001807f54686973207472616e73616374696f6e206d757374206265206669726564206181526020017f6674657220636c61696d20646174652066696e6973686564210000000000000081525060400191505060405180910390fd5b600115158360000151151514151561247057600080fd5b60009150600090505b60066000878152602001908152602001600020805490508110156124e3576124ca60066000888152602001908152602001600020828154811015156124ba57fe5b9060005260206000200154614521565b156124d6576001820191505b8080600101915050612479565b6201518060088560600151866080015103028115156124fe57fe5b04600a8302101583602001901515908115158152505060008360000190151590811515815250508260028781548110151561253557fe5b9060005260206000200160008201518160000160006101000a81548160ff02191690831515021790555060208201518160000160016101000a81548160ff02191690831515021790555060408201518160000160026101000a81548160ff021916908360ff16021790555090505082602001511561260157836040015173ffffffffffffffffffffffffffffffffffffffff166108fc8560a001519081150290604051600060405180830381858888f193505050501580156125fb573d6000803e3d6000fd5b5061266e565b6000809054906101000a900473ffffffffffffffffffffffffffffffffffffffff1673ffffffffffffffffffffffffffffffffffffffff166108fc8560a001519081150290604051600060405180830381858888f1935050505015801561266c573d6000803e3d6000fd5b505b6001945050505050919050565b600060066000838152602001908152602001600020805490509050919050565b6060806000806126a961502b565b6009600087815260200190815260200160002060e06040519081016040529081600082018054600181600116156101000203166002900480601f0160208091040260200160405190810160405280929190818152602001828054600181600116156101000203166002900480156127615780601f1061273657610100808354040283529160200191612761565b820191906000526020600020905b81548152906001019060200180831161274457829003601f168201915b50505050508152602001600182018054600181600116156101000203166002900480601f0160208091040260200160405190810160405280929190818152602001828054600181600116156101000203166002900480156128035780601f106127d857610100808354040283529160200191612803565b820191906000526020600020905b8154815290600101906020018083116127e657829003601f168201915b5050505050815260200160028201548152602001600382015481526020016004820160009054906101000a900460ff1660ff1660ff168152602001600582018054806020026020016040519081016040528092919081815260200182805480156128c257602002820191906000526020600020905b8160009054906101000a900473ffffffffffffffffffffffffffffffffffffffff1673ffffffffffffffffffffffffffffffffffffffff1681526020019060010190808311612878575b505050505081526020016006820180548060200260200160405190810160405280929190818152602001828054801561295057602002820191906000526020600020905b8160009054906101000a900473ffffffffffffffffffffffffffffffffffffffff1673ffffffffffffffffffffffffffffffffffffffff1681526020019060010190808311612906575b505050505081525050905080600001518160200151826060015183608001518393508292509450945094509450509193509193565b600a8181548110151561299457fe5b906000526020600020016000915054906101000a900473ffffffffffffffffffffffffffffffffffffffff1681565b600b818154811015156129d257fe5b906000526020600020016000915054906101000a900473ffffffffffffffffffffffffffffffffffffffff1681565b600081600381815481101515612a1357fe5b906000526020600020906003020160000160009054906101000a900473ffffffffffffffffffffffffffffffffffffffff1673ffffffffffffffffffffffffffffffffffffffff163373ffffffffffffffffffffffffffffffffffffffff161480612ae95750600381815481101515612a8857fe5b906000526020600020906003020160010160009054906101000a900473ffffffffffffffffffffffffffffffffffffffff1673ffffffffffffffffffffffffffffffffffffffff163373ffffffffffffffffffffffffffffffffffffffff16145b80612b5f5750600381815481101515612afe57fe5b906000526020600020906003020160020160009054906101000a900473ffffffffffffffffffffffffffffffffffffffff1673ffffffffffffffffffffffffffffffffffffffff163373ffffffffffffffffffffffffffffffffffffffff16145b1515612bf9576040517f08c379a00000000000000000000000000000000000000000000000000000000081526004018080602001828103825260338152602001807f54686973207472616e73616374696f6e206d7573742062652063616c6c65642081526020017f62792070726f6a6563742072656665726565210000000000000000000000000081525060400191505060405180910390fd5b6080600584815481101515612c0a57fe5b906000526020600020906007020160040160006101000a81548160ff021916908360ff16021790555060806009600085815260200190815260200160002060040160006101000a81548160ff021916908360ff1602179055506001915050919050565b6000806000612c7a6151ec565b600385815481101515612c8957fe5b9060005260206000209060030201606060405190810160405290816000820160009054906101000a900473ffffffffffffffffffffffffffffffffffffffff1673ffffffffffffffffffffffffffffffffffffffff1673ffffffffffffffffffffffffffffffffffffffff1681526020016001820160009054906101000a900473ffffffffffffffffffffffffffffffffffffffff1673ffffffffffffffffffffffffffffffffffffffff1673ffffffffffffffffffffffffffffffffffffffff1681526020016002820160009054906101000a900473ffffffffffffffffffffffffffffffffffffffff1673ffffffffffffffffffffffffffffffffffffffff1673ffffffffffffffffffffffffffffffffffffffff16815250509050806000015181602001518260400151935093509350509193909250565b6000612dd285858585614a62565b8015612de25750612de1614bb1565b5b8015612df25750612df1614c86565b5b1515612dfa57fe5b600460003373ffffffffffffffffffffffffffffffffffffffff1673ffffffffffffffffffffffffffffffffffffffff1681526020019081526020016000206001808054905003908060018154018082558091505090600182039060005260206000200160009091929091909150555060019050949350505050565b6000806000612e836151c3565b600285815481101515612e9257fe5b90600052602060002001606060405190810160405290816000820160009054906101000a900460ff161515151581526020016000820160019054906101000a900460ff161515151581526020016000820160029054906101000a900460ff1660ff1660ff16815250509050806000015181602001518260400151935093509350509193909250565b600081600381815481101515612f2c57fe5b906000526020600020906003020160000160009054906101000a900473ffffffffffffffffffffffffffffffffffffffff1673ffffffffffffffffffffffffffffffffffffffff163373ffffffffffffffffffffffffffffffffffffffff1614806130025750600381815481101515612fa157fe5b906000526020600020906003020160010160009054906101000a900473ffffffffffffffffffffffffffffffffffffffff1673ffffffffffffffffffffffffffffffffffffffff163373ffffffffffffffffffffffffffffffffffffffff16145b80613078575060038181548110151561301757fe5b906000526020600020906003020160020160009054906101000a900473ffffffffffffffffffffffffffffffffffffffff1673ffffffffffffffffffffffffffffffffffffffff163373ffffffffffffffffffffffffffffffffffffffff16145b1515613112576040517f08c379a00000000000000000000000000000000000000000000000000000000081526004018080602001828103825260338152602001807f54686973207472616e73616374696f6e206d7573742062652063616c6c65642081526020017f62792070726f6a6563742072656665726565210000000000000000000000000081525060400191505060405180910390fd5b608160058481548110151561312357fe5b906000526020600020906007020160040160006101000a81548160ff021916908360ff16021790555060816009600085815260200190815260200160002060040160006101000a81548160ff021916908360ff1602179055506001915050919050565b6060600860008373ffffffffffffffffffffffffffffffffffffffff1673ffffffffffffffffffffffffffffffffffffffff16815260200190815260200160002080548060200260200160405190810160405280929190818152602001828054801561321157602002820191906000526020600020905b8154815260200190600101908083116131fd575b50505050509050919050565b60058181548110151561322c57fe5b9060005260206000209060070201600091509050806000018054600181600116156101000203166002900480601f0160208091040260200160405190810160405280929190818152602001828054600181600116156101000203166002900480156132d85780601f106132ad576101008083540402835291602001916132d8565b820191906000526020600020905b8154815290600101906020018083116132bb57829003601f168201915b505050505090806001018054600181600116156101000203166002900480601f0160208091040260200160405190810160405280929190818152602001828054600181600116156101000203166002900480156133765780601f1061334b57610100808354040283529160200191613376565b820191906000526020600020905b81548152906001019060200180831161335957829003601f168201915b5050505050908060020154908060030154908060040160009054906101000a900460ff16905085565b60006060600060606000600c546005878154811015156133bb57fe5b90600052602060002090600702016003015401421015156133db57600080fd5b6005868154811015156133ea57fe5b906000526020600020906007020160050180548060200260200160405190810160405280929190818152602001828054801561347b57602002820191906000526020600020905b8160009054906101000a900473ffffffffffffffffffffffffffffffffffffffff1673ffffffffffffffffffffffffffffffffffffffff1681526020019060010190808311613431575b50505050509350600092505b83518310156134f1573373ffffffffffffffffffffffffffffffffffffffff1684848151811015156134b557fe5b9060200190602002015173ffffffffffffffffffffffffffffffffffffffff1614156134e4576000945061393d565b8280600101935050613487565b60058681548110151561350057fe5b906000526020600020906007020160060180548060200260200160405190810160405280929190818152602001828054801561359157602002820191906000526020600020905b8160009054906101000a900473ffffffffffffffffffffffffffffffffffffffff1673ffffffffffffffffffffffffffffffffffffffff1681526020019060010190808311613547575b50505050509150600090505b8151811015613607573373ffffffffffffffffffffffffffffffffffffffff1682828151811015156135cb57fe5b9060200190602002015173ffffffffffffffffffffffffffffffffffffffff1614156135fa576000945061393d565b828060010193505061359d565b60058681548110151561361657fe5b90600052602060002090600702016005013390806001815401808255809150509060018203906000526020600020016000909192909190916101000a81548173ffffffffffffffffffffffffffffffffffffffff021916908373ffffffffffffffffffffffffffffffffffffffff16021790555050600360058781548110151561369c57fe5b9060005260206000209060070201600201548154811015156136ba57fe5b906000526020600020906003020160000160009054906101000a900473ffffffffffffffffffffffffffffffffffffffff1673ffffffffffffffffffffffffffffffffffffffff163373ffffffffffffffffffffffffffffffffffffffff16141561377057601060058781548110151561373057fe5b906000526020600020906007020160040160008282829054906101000a900460ff160192506101000a81548160ff021916908360ff160217905550613938565b600360058781548110151561378157fe5b90600052602060002090600702016002015481548110151561379f57fe5b906000526020600020906003020160010160009054906101000a900473ffffffffffffffffffffffffffffffffffffffff1673ffffffffffffffffffffffffffffffffffffffff163373ffffffffffffffffffffffffffffffffffffffff16141561385557602060058781548110151561381557fe5b906000526020600020906007020160040160008282829054906101000a900460ff160192506101000a81548160ff021916908360ff160217905550613937565b600360058781548110151561386657fe5b90600052602060002090600702016002015481548110151561388457fe5b906000526020600020906003020160020160009054906101000a900473ffffffffffffffffffffffffffffffffffffffff1673ffffffffffffffffffffffffffffffffffffffff163373ffffffffffffffffffffffffffffffffffffffff1614156139365760406005878154811015156138fa57fe5b906000526020600020906007020160040160008282829054906101000a900460ff160192506101000a81548160ff021916908360ff1602179055505b5b5b600194505b50505050919050565b600080600090505b600a805490508110156139de573373ffffffffffffffffffffffffffffffffffffffff16600a8281548110151561398157fe5b9060005260206000200160009054906101000a900473ffffffffffffffffffffffffffffffffffffffff1673ffffffffffffffffffffffffffffffffffffffff1614156139d15760009150613a49565b808060010191505061394e565b600a3390806001815401808255809150509060018203906000526020600020016000909192909190916101000a81548173ffffffffffffffffffffffffffffffffffffffff021916908373ffffffffffffffffffffffffffffffffffffffff16021790555050600191505b5090565b6060600460008373ffffffffffffffffffffffffffffffffffffffff1673ffffffffffffffffffffffffffffffffffffffff168152602001908152602001600020805480602002602001604051908101604052809291908181526020018280548015613ad857602002820191906000526020600020905b815481526020019060010190808311613ac4575b50505050509050919050565b6000600580549050905090565b60006060600060606000600c54600587815481101515613b0d57fe5b9060005260206000209060070201600301540142101515613b2d57600080fd5b600586815481101515613b3c57fe5b9060005260206000209060070201600601805480602002602001604051908101604052809291908181526020018280548015613bcd57602002820191906000526020600020905b8160009054906101000a900473ffffffffffffffffffffffffffffffffffffffff1673ffffffffffffffffffffffffffffffffffffffff1681526020019060010190808311613b83575b50505050509350600092505b8351831015613c43573373ffffffffffffffffffffffffffffffffffffffff168484815181101515613c0757fe5b9060200190602002015173ffffffffffffffffffffffffffffffffffffffff161415613c36576000945061408f565b8280600101935050613bd9565b600586815481101515613c5257fe5b9060005260206000209060070201600501805480602002602001604051908101604052809291908181526020018280548015613ce357602002820191906000526020600020905b8160009054906101000a900473ffffffffffffffffffffffffffffffffffffffff1673ffffffffffffffffffffffffffffffffffffffff1681526020019060010190808311613c99575b50505050509150600090505b8151811015613d59573373ffffffffffffffffffffffffffffffffffffffff168282815181101515613d1d57fe5b9060200190602002015173ffffffffffffffffffffffffffffffffffffffff161415613d4c576000945061408f565b8280600101935050613cef565b600586815481101515613d6857fe5b90600052602060002090600702016006013390806001815401808255809150509060018203906000526020600020016000909192909190916101000a81548173ffffffffffffffffffffffffffffffffffffffff021916908373ffffffffffffffffffffffffffffffffffffffff160217905550506003600587815481101515613dee57fe5b906000526020600020906007020160020154815481101515613e0c57fe5b906000526020600020906003020160000160009054906101000a900473ffffffffffffffffffffffffffffffffffffffff1673ffffffffffffffffffffffffffffffffffffffff163373ffffffffffffffffffffffffffffffffffffffff161415613ec2576002600587815481101515613e8257fe5b906000526020600020906007020160040160008282829054906101000a900460ff160192506101000a81548160ff021916908360ff16021790555061408a565b6003600587815481101515613ed357fe5b906000526020600020906007020160020154815481101515613ef157fe5b906000526020600020906003020160010160009054906101000a900473ffffffffffffffffffffffffffffffffffffffff1673ffffffffffffffffffffffffffffffffffffffff163373ffffffffffffffffffffffffffffffffffffffff161415613fa7576004600587815481101515613f6757fe5b906000526020600020906007020160040160008282829054906101000a900460ff160192506101000a81548160ff021916908360ff160217905550614089565b6003600587815481101515613fb857fe5b906000526020600020906007020160020154815481101515613fd657fe5b906000526020600020906003020160020160009054906101000a900473ffffffffffffffffffffffffffffffffffffffff1673ffffffffffffffffffffffffffffffffffffffff163373ffffffffffffffffffffffffffffffffffffffff16141561408857600860058781548110151561404c57fe5b906000526020600020906007020160040160008282829054906101000a900460ff160192506101000a81548160ff021916908360ff1602179055505b5b5b600194505b50505050919050565b6002818154811015156140a757fe5b906000526020600020016000915090508060000160009054906101000a900460ff16908060000160019054906101000a900460ff16908060000160029054906101000a900460ff16905083565b60038181548110151561410357fe5b90600052602060002090600302016000915090508060000160009054906101000a900473ffffffffffffffffffffffffffffffffffffffff16908060010160009054906101000a900473ffffffffffffffffffffffffffffffffffffffff16908060020160009054906101000a900473ffffffffffffffffffffffffffffffffffffffff16905083565b6000806000600a805490509150600090505b600a8054905081101561422e573373ffffffffffffffffffffffffffffffffffffffff16600a828154811015156141d257fe5b9060005260206000200160009054906101000a900473ffffffffffffffffffffffffffffffffffffffff1673ffffffffffffffffffffffffffffffffffffffff1614156142215780915061422e565b808060010191505061419f565b600a6001600a805490500381548110151561424557fe5b9060005260206000200160009054906101000a900473ffffffffffffffffffffffffffffffffffffffff16600a8381548110151561427f57fe5b9060005260206000200160006101000a81548173ffffffffffffffffffffffffffffffffffffffff021916908373ffffffffffffffffffffffffffffffffffffffff160217905550600a8054809190600190036142dc9190615250565b5060009250505090565b6000600180549050905090565b606080600080600080614304615176565b60018881548110151561431357fe5b906000526020600020906006020160c06040519081016040529081600082018054600181600116156101000203166002900480601f0160208091040260200160405190810160405280929190818152602001828054600181600116156101000203166002900480156143c65780601f1061439b576101008083540402835291602001916143c6565b820191906000526020600020905b8154815290600101906020018083116143a957829003601f168201915b50505050508152602001600182018054600181600116156101000203166002900480601f0160208091040260200160405190810160405280929190818152602001828054600181600116156101000203166002900480156144685780601f1061443d57610100808354040283529160200191614468565b820191906000526020600020905b81548152906001019060200180831161444b57829003601f168201915b505050505081526020016002820160009054906101000a900473ffffffffffffffffffffffffffffffffffffffff1673ffffffffffffffffffffffffffffffffffffffff1673ffffffffffffffffffffffffffffffffffffffff16815260200160038201548152602001600482015481526020016005820154815250509050806000015181602001518260400151836060015184608001518560a001518595508494509650965096509650965096505091939550919395565b600080600061452e61502b565b600092506000915060058581548110151561454557fe5b906000526020600020906007020160e06040519081016040529081600082018054600181600116156101000203166002900480601f0160208091040260200160405190810160405280929190818152602001828054600181600116156101000203166002900480156145f85780601f106145cd576101008083540402835291602001916145f8565b820191906000526020600020905b8154815290600101906020018083116145db57829003601f168201915b50505050508152602001600182018054600181600116156101000203166002900480601f01602080910402602001604051908101604052809291908181526020018280546001816001161561010002031660029004801561469a5780601f1061466f5761010080835404028352916020019161469a565b820191906000526020600020905b81548152906001019060200180831161467d57829003601f168201915b5050505050815260200160028201548152602001600382015481526020016004820160009054906101000a900460ff1660ff1660ff1681526020016005820180548060200260200160405190810160405280929190818152602001828054801561475957602002820191906000526020600020905b8160009054906101000a900473ffffffffffffffffffffffffffffffffffffffff1673ffffffffffffffffffffffffffffffffffffffff168152602001906001019080831161470f575b50505050508152602001600682018054806020026020016040519081016040528092919081815260200182805480156147e757602002820191906000526020600020905b8160009054906101000a900473ffffffffffffffffffffffffffffffffffffffff1673ffffffffffffffffffffffffffffffffffffffff168152602001906001019080831161479d575b50505050508152505090506081816080015160ff16141561480b5760009350614a5a565b6080816080015160ff1614156148245760019350614a5a565b60016040826080015160ff1681151561483957fe5b0460ff16141561486f5760408160800181815160ff1681151561485857fe5b0691509060ff16908160ff16815250506001830192505b60016020826080015160ff1681151561488457fe5b0460ff1614156148ba5760208160800181815160ff168115156148a357fe5b0691509060ff16908160ff16815250506001830192505b60016010826080015160ff168115156148cf57fe5b0460ff1614156149055760108160800181815160ff168115156148ee57fe5b0691509060ff16908160ff16815250506001830192505b6002831015156149185760019350614a5a565b60016008826080015160ff1681151561492d57fe5b0460ff1614156149635760088160800181815160ff1681151561494c57fe5b0691509060ff16908160ff16815250506001820191505b60016004826080015160ff1681151561497857fe5b0460ff1614156149ae5760048160800181815160ff1681151561499757fe5b0691509060ff16908160ff16815250506001820191505b60016002826080015160ff168115156149c357fe5b0460ff1614156149f95760028160800181815160ff168115156149e257fe5b0691509060ff16908160ff16815250506001820191505b600282101515614a0c5760009350614a5a565b81831115614a2b578060c0015151600a8260a001515101119350614a5a565b82821115614a47578060c00151518160a0015151119350614a5a565b8060c001515160058260a0015151011193505b505050919050565b6000614a6c615176565b858160000181905250848160200181905250838160600181815250508281608001818152505033816040019073ffffffffffffffffffffffffffffffffffffffff16908173ffffffffffffffffffffffffffffffffffffffff1681525050348160a0018181525050600181908060018154018082558091505090600182039060005260206000209060060201600090919290919091506000820151816000019080519060200190614b1e92919061506c565b506020820151816001019080519060200190614b3b92919061506c565b5060408201518160020160006101000a81548173ffffffffffffffffffffffffffffffffffffffff021916908373ffffffffffffffffffffffffffffffffffffffff160217905550606082015181600301556080820151816004015560a082015181600501555050506001915050949350505050565b6000614bbb6151c3565b600181600001901515908115158152505060018160200190151590811515815250506000816040019060ff16908160ff168152505060028190806001815401808255809150509060018203906000526020600020016000909192909190915060008201518160000160006101000a81548160ff02191690831515021790555060208201518160000160016101000a81548160ff02191690831515021790555060408201518160000160026101000a81548160ff021916908360ff160217905550505050600191505090565b6000614c906151ec565b6000614c9a614f2a565b9050600a81815481101515614cab57fe5b9060005260206000200160009054906101000a900473ffffffffffffffffffffffffffffffffffffffff16826000019073ffffffffffffffffffffffffffffffffffffffff16908173ffffffffffffffffffffffffffffffffffffffff1681525050600a8054905060018201811515614d2057fe5b069050600a81815481101515614d3257fe5b9060005260206000200160009054906101000a900473ffffffffffffffffffffffffffffffffffffffff16826020019073ffffffffffffffffffffffffffffffffffffffff16908173ffffffffffffffffffffffffffffffffffffffff1681525050600a8054905060018201811515614da757fe5b069050600a81815481101515614db957fe5b9060005260206000200160009054906101000a900473ffffffffffffffffffffffffffffffffffffffff16826040019073ffffffffffffffffffffffffffffffffffffffff16908173ffffffffffffffffffffffffffffffffffffffff16815250506003829080600181540180825580915050906001820390600052602060002090600302016000909192909190915060008201518160000160006101000a81548173ffffffffffffffffffffffffffffffffffffffff021916908373ffffffffffffffffffffffffffffffffffffffff16021790555060208201518160010160006101000a81548173ffffffffffffffffffffffffffffffffffffffff021916908373ffffffffffffffffffffffffffffffffffffffff16021790555060408201518160020160006101000a81548173ffffffffffffffffffffffffffffffffffffffff021916908373ffffffffffffffffffffffffffffffffffffffff16021790555050505060019250505090565b6000806001805490504233600d54604051602001808481526020018373ffffffffffffffffffffffffffffffffffffffff1673ffffffffffffffffffffffffffffffffffffffff166c0100000000000000000000000002815260140182815260200193505050506040516020818303038152906040526040518082805190602001908083835b602083101515614fd55780518252602082019150602081019050602083039250614fb0565b6001836020036101000a03801982511681845116808217855250505050505090500191505060405180910390206001900481151561500f57fe5b069050600d600081548092919060010191905055508091505090565b60e06040519081016040528060608152602001606081526020016000815260200160008152602001600060ff16815260200160608152602001606081525090565b828054600181600116156101000203166002900490600052602060002090601f016020900481019282601f106150ad57805160ff19168380011785556150db565b828001600101855582156150db579182015b828111156150da5782518255916020019190600101906150bf565b5b5090506150e8919061527c565b5090565b828054828255906000526020600020908101928215615165579160200282015b828111156151645782518260006101000a81548173ffffffffffffffffffffffffffffffffffffffff021916908373ffffffffffffffffffffffffffffffffffffffff1602179055509160200191906001019061510c565b5b50905061517291906152a1565b5090565b60c0604051908101604052806060815260200160608152602001600073ffffffffffffffffffffffffffffffffffffffff1681526020016000815260200160008152602001600081525090565b606060405190810160405280600015158152602001600015158152602001600060ff1681525090565b606060405190810160405280600073ffffffffffffffffffffffffffffffffffffffff168152602001600073ffffffffffffffffffffffffffffffffffffffff168152602001600073ffffffffffffffffffffffffffffffffffffffff1681525090565b81548183558181111561527757818360005260206000209182019101615276919061527c565b5b505050565b61529e91905b8082111561529a576000816000905550600101615282565b5090565b90565b6152e191905b808211156152dd57600081816101000a81549073ffffffffffffffffffffffffffffffffffffffff0219169055506001016152a7565b5090565b905600a165627a7a7230582055062819c657e0dca0ebdfeeec9c5d7923d59796472ab999dd72e98b0f46b8380029",
  "source": "pragma solidity ^0.4.24;\n\ncontract DodoRepository {\n    address owner;\n    ProjectInfo[] public infos;\n    ProjectStatus[] public statuses;\n    ProjectReferees[] public referees;\n    mapping(address => uint[]) apMap; // key: participant address, value: project index\n\n    Proof[] public proofs; \n    mapping(uint => uint[]) ppMap; // key: project index, value: proof indexes\n    mapping(address => uint[]) rpMap; // key: judge address, value: proof indexes\n    mapping(address => uint[]) apfMap; // key: participant address, value: proof index\n\n    mapping(uint => Proof) claims; // key: proof index, value: claim\n\n    address[] public whiteList;\n    address[] public blackList; //    \n    uint period = 2 days;\n    uint nonce = 0;\n\n    struct ProjectInfo {\n        string name;\n        string description;\n        address participant;\n        uint startDate;\n        uint endDate;\n        uint freezeAmount;\n    }\n\n    struct ProjectStatus {\n        bool active; // \n        bool success; // \n        uint8 claimed;\n    }\n\n    struct ProjectReferees {\n        address referee1; \n        address referee2;\n        address referee3;\n    }\n\n    struct Proof {\n        string name;\n        string memo;\n        uint projectNo;\n        uint timestamp;\n        uint8 judged; // 1: , 0: , 2,4,8   16,32,64   48  ( 2/3  ), 128   , 129  \n        address[] like;\n        address[] dislike;\n    }\n\n    modifier onlyOwner() {\n        require(msg.sender == owner, \"This transaction must be called by owner!\");\n        _;\n    }\n\n    modifier onlyReferee(uint _index) {\n        require(\n            msg.sender == referees[_index].referee1 \n            || msg.sender == referees[_index].referee2\n            || msg.sender == referees[_index].referee3, \n            \"This transaction must be called by project referee!\"\n        ); \n        _;\n    }\n    \n    modifier onlyProjectOwner(uint _index) {\n        require(msg.sender == infos[_index].participant, \"This transaction must be called by project owner\");\n        _;\n    }\n\n    modifier onlyProjectOwner2(uint _index) {\n        require(msg.sender == infos[proofs[_index].projectNo].participant, \n            \"This transaction must be called by project owner\");\n        _;\n    }\n\n    /**\n    * @dev Created a DodoRepository\n    */\n    constructor() public {\n        owner = 0xbf128F013F40ec7Fdfe95d0A298E85764f628e7F;\n        whiteList.push(0xbf128F013F40ec7Fdfe95d0A298E85764f628e7F);\n        whiteList.push(0xd8598Fb4281457f6c3C0E66f1aae1f719d4F0432);\n        whiteList.push(0xE64829EBBffA77b5D1b668fbf7e4cFB36Ad33245);\n    }\n\n    function () external payable {\n        revert();\n    }   \n\n    /**\n    * @dev Create Project\n    * @param _name name of the Project\n    * @param _description description of the Project\n    * @param _startDate start timestamp\n    * @param _endDate end timestamp\n    * @return bool result of transaction\n    */\n    function createProject(string _name,\n                            string _description,\n                            uint _startDate,\n                            uint _endDate) public payable returns (bool) {\n        assert(createInfo(_name, _description, _startDate, _endDate)\n            && createStatus()\n            && createReferees());\n        apMap[msg.sender].push(infos.length - 1);\n        return true;\n    }\n\n    /**\n    * @dev Finalize Project\n    * @param _index Index of the Project \n    * @return bool result of transaction\n    */\n    function finalizeProject(uint _index) public payable returns (bool) {\n        ProjectInfo memory info = infos[_index];\n        ProjectStatus memory status = statuses[_index];\n        require(now >= info.endDate + period * (status.claimed + 1),\n            \"This transaction must be fired after claim date finished!\");\n        require(status.active == true);\n        uint successCount = 0;\n        for (uint i = 0; i < ppMap[_index].length; i++) {\n            if (calculateProof(ppMap[_index][i])) successCount += 1;\n        }\n        status.success = successCount * 10 >= (info.endDate - info.startDate) * 8 / 1 days;\n        status.active = false;\n        statuses[_index] = status;\n        if (status.success) {\n            info.participant.transfer(info.freezeAmount);\n        } else {\n            owner.transfer(info.freezeAmount);\n        }\n        return true;\n    }\n\n    /**\n    * @dev Submit Proof\n    * @param _index Index of the Proof \n    * @param name name of the proof\n    * @param memo description of the proof\n    * @return bool result of transaction\n    */\n    function submitProof(uint _index, string name, string memo) public onlyProjectOwner(_index) returns (bool) {\n        Proof memory newProof;\n        newProof.name = name;\n        newProof.memo = memo;\n        newProof.timestamp = now;\n        newProof.judged = 0;\n        newProof.projectNo = _index;\n        proofs.push(newProof);\n        ppMap[_index].push(proofs.length - 1);\n        rpMap[referees[_index].referee1].push(proofs.length - 1);\n        rpMap[referees[_index].referee2].push(proofs.length - 1);\n        rpMap[referees[_index].referee3].push(proofs.length - 1);\n        apfMap[msg.sender].push(proofs.length - 1);\n\n        return true;\n    }\n\n    /**\n    * @dev Claim Judge\n    * @param _index Index of the Project\n    * @param name name of the proof\n    * @param memo description of the proof \n    * @return bool result of transaction\n    */\n    function claimJudge(uint _index, string name, string memo) public onlyProjectOwner2(_index) returns (bool) {\n        Proof memory newProof;\n        newProof.name = name;\n        newProof.memo = memo;\n        newProof.timestamp = now;\n        newProof.judged = 1;\n        claims[_index] = newProof;\n        proofs[_index].judged = 1;\n        \n        statuses[proofs[_index].projectNo].claimed += 1;\n\n        return true;\n    }\n\n    /**\n    * @dev Claim Approve\n    * @param _index Index of the Project \n    * @return bool result of transaction\n    */\n    function claimApprove(uint _index) public onlyReferee(_index) returns (bool) {\n        proofs[_index].judged = 128;\n        claims[_index].judged = 128;\n        return true;\n    }\n\n    /**\n    * @dev Claim Decline\n    * @param _index Index of the Project \n    * @return bool result of transaction\n    */\n    function claimDecline(uint _index) public onlyReferee(_index) returns (bool) {\n        proofs[_index].judged = 129;\n        claims[_index].judged = 129;\n        return true;\n    }\n\n    /**\n    * @dev Apply Referee\n    * @return bool result of transaction\n    */\n    function applyReferee() public returns (bool) {\n        for (uint i = 0; i < whiteList.length; i++) {\n            if (whiteList[i] == msg.sender) {\n                return false;\n            }\n        }\n        whiteList.push(msg.sender);\n        return true;\n    }\n\n    /**\n    * @dev Cancel Referee\n    * @return bool result of transaction\n    */\n    function cancelReferee() public returns (bool) {\n        uint index = whiteList.length;\n        for (uint i = 0; i < whiteList.length; i++) {\n            if (whiteList[i] == msg.sender) {\n                index = i;\n                break;\n            }\n        }\n        whiteList[index] = whiteList[whiteList.length - 1];\n        whiteList.length--;\n        return false;\n    }\n\n    function likeProof(uint _index) public returns (bool) {\n        require(now < proofs[_index].timestamp + period);\n        address[] memory arr = proofs[_index].like;\n        for (uint i = 0; i < arr.length; i++) {\n            if (arr[i] == msg.sender) {\n                return false;\n            }\n        }\n        address[] memory arr2 = proofs[_index].dislike;\n        for (uint j = 0; j < arr2.length; i++) {\n            if (arr2[j] == msg.sender) {\n                return false;\n            }\n        }\n        proofs[_index].like.push(msg.sender);\n        if (msg.sender == referees[proofs[_index].projectNo].referee1) {\n            proofs[_index].judged += 16;\n        } else if (msg.sender == referees[proofs[_index].projectNo].referee2) {\n            proofs[_index].judged += 32;\n        } else if (msg.sender == referees[proofs[_index].projectNo].referee3) {\n            proofs[_index].judged += 64;\n        }\n\n        return true;\n    }\n\n    function dislikeProof(uint _index) public returns (bool) {\n        require(now < proofs[_index].timestamp + period);\n        address[] memory arr = proofs[_index].dislike;\n        for (uint i = 0; i < arr.length; i++) {\n            if (arr[i] == msg.sender) {\n                return false;\n            }\n        }\n        address[] memory arr2 = proofs[_index].like;\n        for (uint j = 0; j < arr2.length; i++) {\n            if (arr2[j] == msg.sender) {\n                return false;\n            }\n        }\n        proofs[_index].dislike.push(msg.sender);\n        if (msg.sender == referees[proofs[_index].projectNo].referee1) {\n            proofs[_index].judged += 2;\n        } else if (msg.sender == referees[proofs[_index].projectNo].referee2) {\n            proofs[_index].judged += 4;\n        } else if (msg.sender == referees[proofs[_index].projectNo].referee3) {\n            proofs[_index].judged += 8;\n        }\n        return true;\n    }\n\n    /**\n    * @dev Get Referee List\n    * @return address represents the referee list of Projects\n    */\n    function getWhiteList() public view returns (address[]) {\n        return whiteList;\n    }\n\n    /**\n    * @dev Get Project Counts\n    * @return uint256 represents the number of Projects\n    */\n    function getProjectCounts() public view returns (uint) {\n        return infos.length;\n    }\n\n    /**\n    * @dev Get Project Info by Index\n    * @param _index Index of the Project \n    * @return Project represents the Project\n    */\n    function getProjectInfo(uint _index) public view returns (string name,\n                                                        string description,\n                                                        address participant,\n                                                        uint startDate,\n                                                        uint endDate,\n                                                        uint freeAmount) {\n        ProjectInfo memory project = infos[_index];\n        return (\n            project.name, project.description, project.participant,\n            project.startDate, project.endDate, project.freezeAmount\n        );\n    }\n\n    /**\n    * @dev Get Project Status by Index\n    * @param _index Index of the Project \n    * @return Project represents the Project\n    */\n    function getProjectStatus(uint _index) public view returns (bool active, // \n                                                        bool success, // \n                                                        uint8 claimed) {\n        ProjectStatus memory project = statuses[_index];\n        return (project.active, project.success, project.claimed);\n    }\n\n    /**\n    * @dev Get Project Referees by Index\n    * @param _index Index of the Project \n    * @return Project represents the Project\n    */\n    function getProjectReferees(uint _index) public view returns (address, \n                                                        address,\n                                                        address) {\n        ProjectReferees memory project = referees[_index];\n        return (project.referee1, project.referee2, project.referee3);\n    }\n\n    /**\n    * @dev Get My Project List\n    * @param _address address \n    * @return uint[] represents the number of my Projects\n    */\n    function getMyProjectList(address _address) public view returns (uint[] list) {\n        return apMap[_address];\n    }\n\n    /**\n    * @dev Get All Proof Count\n    * @return uint represents the count of All Project Proofs\n    */\n    function getAllProofsCount() public view returns (uint) {\n        return proofs.length;\n    }\n\n    /**\n    * @dev Get Proof Count\n    * @param _index index of 0..<number of my Projects\n    * @return uint represents the count of my Projects Proof\n    */\n    function getProofsCount(uint _index) public view returns (uint) {\n        return ppMap[_index].length;\n    }\n\n    /**\n    * @dev Get Proof\n    * @param _index index of proof \n    * @return proof information\n    */\n    function getProof(uint _index) public view returns (string name,\n        string memo,\n        uint projectNo,\n        uint timestamp,\n        uint8 judged,\n        address[] like,\n        address[] dislike) {\n        return (\n            proofs[_index].name,\n            proofs[_index].memo,\n            proofs[_index].projectNo,\n            proofs[_index].timestamp,\n            proofs[_index].judged,\n            proofs[_index].like,\n            proofs[_index].dislike\n        );\n    }\n\n    function getProofList(uint _index) public view returns (uint[] list) {\n        return ppMap[_index];\n    }\n\n    function getJudgeList(address _address) public view returns (uint[] list) {\n        return rpMap[_address];\n    }\n\n    function getParticipantProofList(address _address) public view returns (uint[] list) {\n        return apfMap[_address];\n    }\n\n    /**\n    * @dev Get Claim\n    * @param _index proof index  \n    * @return claim information\n    */\n    function getClaim(uint _index) public view returns (string name,\n                                                        string memo,\n                                                        uint timestamp,\n                                                        uint8 judged) {\n        Proof memory claim = claims[_index];\n        return (\n            claim.name,\n            claim.memo,\n            claim.timestamp,\n            claim.judged\n        );\n    }\n\n    function random() internal returns (uint) {\n        uint randomnumber = uint(keccak256(abi.encodePacked(now, msg.sender, nonce))) % infos.length;\n        nonce++;\n        return randomnumber;\n    }\n\n    function createInfo(string _name,\n                            string _description,\n                            uint _startDate,\n                            uint _endDate) internal returns (bool) {\n        ProjectInfo memory newProject;\n        newProject.name = _name;\n        newProject.description = _description;\n        newProject.startDate = _startDate;\n        newProject.endDate = _endDate;\n        newProject.participant = msg.sender;\n        newProject.freezeAmount = msg.value;\n        infos.push(newProject);\n        return true;\n    }\n\n    function createStatus() internal returns (bool) {\n        ProjectStatus memory newProject;\n        newProject.active = true;\n        newProject.success = true;\n        newProject.claimed = 0;\n        statuses.push(newProject);\n        return true;\n    }\n\n    function createReferees() internal returns (bool) {\n        ProjectReferees memory newProject;\n        uint randNum = random();\n        newProject.referee1 = whiteList[randNum];\n        randNum = (randNum + 1) % whiteList.length;\n        newProject.referee2 = whiteList[randNum];\n        randNum = (randNum + 1) % whiteList.length;\n        newProject.referee3 = whiteList[randNum];\n        referees.push(newProject);\n        return true;\n    }\n\n    function calculateProof(uint _index) internal view returns (bool) {\n        uint successCount = 0;\n        uint failCount = 0;\n\n        Proof memory proof = proofs[_index];\n        if (proof.judged == 129) {\n            return false;\n        }\n\n        if (proof.judged == 128) {\n            return true;\n        }\n\n        if (proof.judged / 64 == 1) {\n            proof.judged %= 64;\n            successCount += 1;\n        }\n        if (proof.judged / 32 == 1) {\n            proof.judged %= 32;\n            successCount += 1;\n        }\n        if (proof.judged / 16 == 1) {\n            proof.judged %= 16;\n            successCount += 1;\n        }\n        if (successCount >= 2) return true;\n\n        if (proof.judged / 8 == 1) {\n            proof.judged %= 8;\n            failCount += 1;\n        }\n        if (proof.judged / 4 == 1) {\n            proof.judged %= 4;\n            failCount += 1;\n        }\n        if (proof.judged / 2 == 1) {\n            proof.judged %= 2;\n            failCount += 1;\n        }\n        if (failCount >= 2) return false;\n\n        if (successCount > failCount) {\n            return proof.like.length + 10 > proof.dislike.length;\n        } else if (failCount > successCount) {\n            return proof.like.length > proof.dislike.length;\n        } else {\n            return proof.like.length + 5 > proof.dislike.length;\n        }\n    }\n}\n",
  "sourcePath": "/Users/junpark/codingcoding/dodo-klaytn/contracts/DodoRepository.sol",
  "compiler": {
    "name": "solc",
    "version": "0.4.25+commit.59dbf8f1.Emscripten.clang"
  },
  "schemaVersion": "2.0.2",
  "updatedAt": "2019-05-27T15:30:02.471Z"
}