{
  "contractName": "DodoRepository",
  "abi": [
    {
      "constant": true,
      "inputs": [
        {
          "name": "",
          "type": "uint256"
        }
      ],
      "name": "refereeEntry",
      "outputs": [
        {
          "name": "",
          "type": "address"
        }
      ],
      "payable": false,
      "stateMutability": "view",
      "type": "function"
    },
    {
      "constant": true,
      "inputs": [
        {
          "name": "",
          "type": "uint256"
        }
      ],
      "name": "infos",
      "outputs": [
        {
          "name": "name",
          "type": "string"
        },
        {
          "name": "description",
          "type": "string"
        },
        {
          "name": "participant",
          "type": "address"
        },
        {
          "name": "startTime",
          "type": "uint256"
        },
        {
          "name": "endTime",
          "type": "uint256"
        },
        {
          "name": "freezeAmount",
          "type": "uint256"
        }
      ],
      "payable": false,
      "stateMutability": "view",
      "type": "function"
    },
    {
      "constant": true,
      "inputs": [
        {
          "name": "",
          "type": "uint256"
        }
      ],
      "name": "statuses",
      "outputs": [
        {
          "name": "active",
          "type": "bool"
        },
        {
          "name": "judged",
          "type": "bool"
        },
        {
          "name": "success",
          "type": "bool"
        },
        {
          "name": "claimed",
          "type": "uint8"
        }
      ],
      "payable": false,
      "stateMutability": "view",
      "type": "function"
    },
    {
      "constant": true,
      "inputs": [
        {
          "name": "",
          "type": "uint256"
        }
      ],
      "name": "referees",
      "outputs": [
        {
          "name": "referee1",
          "type": "address"
        },
        {
          "name": "referee2",
          "type": "address"
        },
        {
          "name": "referee3",
          "type": "address"
        }
      ],
      "payable": false,
      "stateMutability": "view",
      "type": "function"
    },
    {
      "inputs": [],
      "payable": false,
      "stateMutability": "nonpayable",
      "type": "constructor"
    },
    {
      "payable": true,
      "stateMutability": "payable",
      "type": "fallback"
    },
    {
      "constant": false,
      "inputs": [
        {
          "name": "_name",
          "type": "string"
        },
        {
          "name": "_description",
          "type": "string"
        },
        {
          "name": "_startTime",
          "type": "uint256"
        },
        {
          "name": "_endTime",
          "type": "uint256"
        }
      ],
      "name": "createProject",
      "outputs": [
        {
          "name": "",
          "type": "bool"
        }
      ],
      "payable": true,
      "stateMutability": "payable",
      "type": "function"
    },
    {
      "constant": false,
      "inputs": [
        {
          "name": "_index",
          "type": "uint256"
        }
      ],
      "name": "finalizeProject",
      "outputs": [
        {
          "name": "",
          "type": "bool"
        }
      ],
      "payable": true,
      "stateMutability": "payable",
      "type": "function"
    },
    {
      "constant": false,
      "inputs": [
        {
          "name": "_index",
          "type": "uint256"
        },
        {
          "name": "_result",
          "type": "bool"
        }
      ],
      "name": "judgeProject",
      "outputs": [
        {
          "name": "",
          "type": "bool"
        }
      ],
      "payable": false,
      "stateMutability": "nonpayable",
      "type": "function"
    },
    {
      "constant": false,
      "inputs": [
        {
          "name": "_index",
          "type": "uint256"
        },
        {
          "name": "name",
          "type": "string"
        },
        {
          "name": "description",
          "type": "string"
        }
      ],
      "name": "submitProof",
      "outputs": [
        {
          "name": "",
          "type": "bool"
        }
      ],
      "payable": false,
      "stateMutability": "nonpayable",
      "type": "function"
    },
    {
      "constant": false,
      "inputs": [
        {
          "name": "_index",
          "type": "uint256"
        },
        {
          "name": "name",
          "type": "string"
        },
        {
          "name": "description",
          "type": "string"
        }
      ],
      "name": "claimJudge",
      "outputs": [
        {
          "name": "",
          "type": "bool"
        }
      ],
      "payable": false,
      "stateMutability": "nonpayable",
      "type": "function"
    },
    {
      "constant": false,
      "inputs": [
        {
          "name": "_index",
          "type": "uint256"
        }
      ],
      "name": "claimApprove",
      "outputs": [
        {
          "name": "",
          "type": "bool"
        }
      ],
      "payable": false,
      "stateMutability": "nonpayable",
      "type": "function"
    },
    {
      "constant": true,
      "inputs": [],
      "name": "getProjectCounts",
      "outputs": [
        {
          "name": "",
          "type": "uint256"
        }
      ],
      "payable": false,
      "stateMutability": "view",
      "type": "function"
    },
    {
      "constant": true,
      "inputs": [
        {
          "name": "_index",
          "type": "uint256"
        }
      ],
      "name": "getProjectInfo",
      "outputs": [
        {
          "name": "",
          "type": "string"
        },
        {
          "name": "",
          "type": "string"
        },
        {
          "name": "",
          "type": "address"
        },
        {
          "name": "",
          "type": "uint256"
        },
        {
          "name": "",
          "type": "uint256"
        },
        {
          "name": "",
          "type": "uint256"
        }
      ],
      "payable": false,
      "stateMutability": "view",
      "type": "function"
    },
    {
      "constant": true,
      "inputs": [
        {
          "name": "_index",
          "type": "uint256"
        }
      ],
      "name": "getProjectStatus",
      "outputs": [
        {
          "name": "",
          "type": "bool"
        },
        {
          "name": "",
          "type": "bool"
        },
        {
          "name": "",
          "type": "bool"
        },
        {
          "name": "",
          "type": "uint8"
        }
      ],
      "payable": false,
      "stateMutability": "view",
      "type": "function"
    },
    {
      "constant": true,
      "inputs": [
        {
          "name": "_index",
          "type": "uint256"
        }
      ],
      "name": "getProjectReferees",
      "outputs": [
        {
          "name": "",
          "type": "address"
        },
        {
          "name": "",
          "type": "address"
        },
        {
          "name": "",
          "type": "address"
        }
      ],
      "payable": false,
      "stateMutability": "view",
      "type": "function"
    },
    {
      "constant": true,
      "inputs": [
        {
          "name": "_address",
          "type": "address"
        }
      ],
      "name": "getMyProjectCounts",
      "outputs": [
        {
          "name": "",
          "type": "uint256"
        }
      ],
      "payable": false,
      "stateMutability": "view",
      "type": "function"
    },
    {
      "constant": true,
      "inputs": [
        {
          "name": "_address",
          "type": "address"
        },
        {
          "name": "_index",
          "type": "uint256"
        }
      ],
      "name": "getMyProjectIndex",
      "outputs": [
        {
          "name": "",
          "type": "uint256"
        }
      ],
      "payable": false,
      "stateMutability": "view",
      "type": "function"
    }
  ],
  "bytecode": "0x60806040526202a300600755600060085534801561001c57600080fd5b50336000806101000a81548173ffffffffffffffffffffffffffffffffffffffff021916908373ffffffffffffffffffffffffffffffffffffffff160217905550612a148061006c6000396000f3006080604052600436106100e6576000357c0100000000000000000000000000000000000000000000000000000000900463ffffffff1680630162ecf7146100eb57806307f4f2841461015857806328de3c9b146102295780632e5de0d5146103835780633a0f45bb146103e45780634d798de5146104b55780635190e9a2146104ed578063733370411461053e5780637952ce51146105955780638dc039b4146105da57806394ba9709146106ad5780639675c0091461077b578063e67b932c146107e3578063edb5ae8a1461084b578063f60981be1461091e578063fabf596814610949575b600080fd5b3480156100f757600080fd5b5061011660048036038101908080359060200190929190505050610aa3565b604051808273ffffffffffffffffffffffffffffffffffffffff1673ffffffffffffffffffffffffffffffffffffffff16815260200191505060405180910390f35b34801561016457600080fd5b5061020f60048036038101908080359060200190929190803590602001908201803590602001908080601f0160208091040260200160405190810160405280939291908181526020018383808284378201915050505050509192919290803590602001908201803590602001908080601f0160208091040260200160405190810160405280939291908181526020018383808284378201915050505050509192919290505050610ae1565b604051808215151515815260200191505060405180910390f35b34801561023557600080fd5b5061025460048036038101908080359060200190929190505050610cd5565b6040518080602001806020018773ffffffffffffffffffffffffffffffffffffffff1673ffffffffffffffffffffffffffffffffffffffff168152602001868152602001858152602001848152602001838103835289818151815260200191508051906020019080838360005b838110156102dc5780820151818401526020810190506102c1565b50505050905090810190601f1680156103095780820380516001836020036101000a031916815260200191505b50838103825288818151815260200191508051906020019080838360005b83811015610342578082015181840152602081019050610327565b50505050905090810190601f16801561036f5780820380516001836020036101000a031916815260200191505b509850505050505050505060405180910390f35b34801561038f57600080fd5b506103ce600480360381019080803573ffffffffffffffffffffffffffffffffffffffff16906020019092919080359060200190929190505050610e70565b6040518082815260200191505060405180910390f35b3480156103f057600080fd5b5061049b60048036038101908080359060200190929190803590602001908201803590602001908080601f0160208091040260200160405190810160405280939291908181526020018383808284378201915050505050509192919290803590602001908201803590602001908080601f0160208091040260200160405190810160405280939291908181526020018383808284378201915050505050509192919290505050610f2d565b604051808215151515815260200191505060405180910390f35b6104d3600480360381019080803590602001909291905050506110f6565b604051808215151515815260200191505060405180910390f35b3480156104f957600080fd5b506105246004803603810190808035906020019092919080351515906020019092919050505061152a565b604051808215151515815260200191505060405180910390f35b34801561054a57600080fd5b5061057f600480360381019080803573ffffffffffffffffffffffffffffffffffffffff16906020019092919050505061188a565b6040518082815260200191505060405180910390f35b3480156105a157600080fd5b506105c060048036038101908080359060200190929190505050611938565b604051808215151515815260200191505060405180910390f35b3480156105e657600080fd5b5061060560048036038101908080359060200190929190505050611c98565b604051808473ffffffffffffffffffffffffffffffffffffffff1673ffffffffffffffffffffffffffffffffffffffff1681526020018373ffffffffffffffffffffffffffffffffffffffff1673ffffffffffffffffffffffffffffffffffffffff1681526020018273ffffffffffffffffffffffffffffffffffffffff1673ffffffffffffffffffffffffffffffffffffffff168152602001935050505060405180910390f35b610761600480360381019080803590602001908201803590602001908080601f0160208091040260200160405190810160405280939291908181526020018383808284378201915050505050509192919290803590602001908201803590602001908080601f01602080910402602001604051908101604052809392919081815260200183838082843782019150505050505091929192908035906020019092919080359060200190929190505050611def565b604051808215151515815260200191505060405180910390f35b34801561078757600080fd5b506107a660048036038101908080359060200190929190505050611e31565b604051808515151515815260200184151515158152602001831515151581526020018260ff1660ff16815260200194505050505060405180910390f35b3480156107ef57600080fd5b5061080e60048036038101908080359060200190929190505050611ef8565b604051808515151515815260200184151515158152602001831515151581526020018260ff1660ff16815260200194505050505060405180910390f35b34801561085757600080fd5b5061087660048036038101908080359060200190929190505050611f67565b604051808473ffffffffffffffffffffffffffffffffffffffff1673ffffffffffffffffffffffffffffffffffffffff1681526020018373ffffffffffffffffffffffffffffffffffffffff1673ffffffffffffffffffffffffffffffffffffffff1681526020018273ffffffffffffffffffffffffffffffffffffffff1673ffffffffffffffffffffffffffffffffffffffff168152602001935050505060405180910390f35b34801561092a57600080fd5b50610933612000565b6040518082815260200191505060405180910390f35b34801561095557600080fd5b506109746004803603810190808035906020019092919050505061200d565b6040518080602001806020018773ffffffffffffffffffffffffffffffffffffffff1673ffffffffffffffffffffffffffffffffffffffff168152602001868152602001858152602001848152602001838103835289818151815260200191508051906020019080838360005b838110156109fc5780820151818401526020810190506109e1565b50505050905090810190601f168015610a295780820380516001836020036101000a031916815260200191505b50838103825288818151815260200191508051906020019080838360005b83811015610a62578082015181840152602081019050610a47565b50505050905090810190601f168015610a8f5780820380516001836020036101000a031916815260200191505b509850505050505050505060405180910390f35b600481815481101515610ab257fe5b906000526020600020016000915054906101000a900473ffffffffffffffffffffffffffffffffffffffff1681565b6000610aeb612835565b84600181815481101515610afb57fe5b906000526020600020906006020160020160009054906101000a900473ffffffffffffffffffffffffffffffffffffffff1673ffffffffffffffffffffffffffffffffffffffff163373ffffffffffffffffffffffffffffffffffffffff16141515610bf5576040517f08c379a00000000000000000000000000000000000000000000000000000000081526004018080602001828103825260308152602001807f54686973207472616e73616374696f6e206d7573742062652063616c6c65642081526020017f62792070726f6a656374206f776e65720000000000000000000000000000000081525060400191505060405180910390fd5b8482600001819052508382602001819052504282604001818152505060018260600190151590811515815250506005600087815260200190815260200160002082908060018154018082558091505090600182039060005260206000209060040201600090919290919091506000820151816000019080519060200190610c7d929190612860565b506020820151816001019080519060200190610c9a929190612860565b506040820151816002015560608201518160030160006101000a81548160ff0219169083151502179055505050506001925050509392505050565b600181815481101515610ce457fe5b9060005260206000209060060201600091509050806000018054600181600116156101000203166002900480601f016020809104026020016040519081016040528092919081815260200182805460018160011615610100020316600290048015610d905780601f10610d6557610100808354040283529160200191610d90565b820191906000526020600020905b815481529060010190602001808311610d7357829003601f168201915b505050505090806001018054600181600116156101000203166002900480601f016020809104026020016040519081016040528092919081815260200182805460018160011615610100020316600290048015610e2e5780601f10610e0357610100808354040283529160200191610e2e565b820191906000526020600020905b815481529060010190602001808311610e1157829003601f168201915b5050505050908060020160009054906101000a900473ffffffffffffffffffffffffffffffffffffffff16908060030154908060040154908060050154905086565b600080600090505b600180549050811015610f21578373ffffffffffffffffffffffffffffffffffffffff16600182815481101515610eab57fe5b906000526020600020906006020160020160009054906101000a900473ffffffffffffffffffffffffffffffffffffffff1673ffffffffffffffffffffffffffffffffffffffff161415610f14576000831415610f0a57809150610f26565b8280600190039350505b8080600101915050610e78565b600091505b5092915050565b6000610f37612835565b84600181815481101515610f4757fe5b906000526020600020906006020160020160009054906101000a900473ffffffffffffffffffffffffffffffffffffffff1673ffffffffffffffffffffffffffffffffffffffff163373ffffffffffffffffffffffffffffffffffffffff16141515611041576040517f08c379a00000000000000000000000000000000000000000000000000000000081526004018080602001828103825260308152602001807f54686973207472616e73616374696f6e206d7573742062652063616c6c65642081526020017f62792070726f6a656374206f776e65720000000000000000000000000000000081525060400191505060405180910390fd5b8482600001819052508382602001819052504282604001818152505060008260600190151590811515815250508160066000888152602001908152602001600020600082015181600001908051906020019061109e929190612860565b5060208201518160010190805190602001906110bb929190612860565b506040820151816002015560608201518160030160006101000a81548160ff0219169083151502179055509050506001925050509392505050565b60006111006128e0565b61110861292d565b60018481548110151561111757fe5b906000526020600020906006020160c06040519081016040529081600082018054600181600116156101000203166002900480601f0160208091040260200160405190810160405280929190818152602001828054600181600116156101000203166002900480156111ca5780601f1061119f576101008083540402835291602001916111ca565b820191906000526020600020905b8154815290600101906020018083116111ad57829003601f168201915b50505050508152602001600182018054600181600116156101000203166002900480601f01602080910402602001604051908101604052809291908181526020018280546001816001161561010002031660029004801561126c5780601f106112415761010080835404028352916020019161126c565b820191906000526020600020905b81548152906001019060200180831161124f57829003601f168201915b505050505081526020016002820160009054906101000a900473ffffffffffffffffffffffffffffffffffffffff1673ffffffffffffffffffffffffffffffffffffffff1673ffffffffffffffffffffffffffffffffffffffff168152602001600382015481526020016004820154815260200160058201548152505091506002848154811015156112fa57fe5b90600052602060002001608060405190810160405290816000820160009054906101000a900460ff161515151581526020016000820160019054906101000a900460ff161515151581526020016000820160029054906101000a900460ff161515151581526020016000820160039054906101000a900460ff1660ff1660ff16815250509050600181606001510160ff16600754028260800151014210151515611432576040517f08c379a00000000000000000000000000000000000000000000000000000000081526004018080602001828103825260398152602001807f54686973207472616e73616374696f6e206d757374206265206669726564206181526020017f6674657220636c61696d20646174652066696e6973686564210000000000000081525060400191505060405180910390fd5b60018160200190151590811515815250508060400151156114a157816040015173ffffffffffffffffffffffffffffffffffffffff166108fc8360a001519081150290604051600060405180830381858888f1935050505015801561149b573d6000803e3d6000fd5b5061150e565b6000809054906101000a900473ffffffffffffffffffffffffffffffffffffffff1673ffffffffffffffffffffffffffffffffffffffff166108fc8360a001519081150290604051600060405180830381858888f1935050505015801561150c573d6000803e3d6000fd5b505b6000816000019015159081151581525050600192505050919050565b600061153461292d565b8360038181548110151561154457fe5b906000526020600020906003020160000160009054906101000a900473ffffffffffffffffffffffffffffffffffffffff1673ffffffffffffffffffffffffffffffffffffffff163373ffffffffffffffffffffffffffffffffffffffff16148061161a57506003818154811015156115b957fe5b906000526020600020906003020160010160009054906101000a900473ffffffffffffffffffffffffffffffffffffffff1673ffffffffffffffffffffffffffffffffffffffff163373ffffffffffffffffffffffffffffffffffffffff16145b80611690575060038181548110151561162f57fe5b906000526020600020906003020160020160009054906101000a900473ffffffffffffffffffffffffffffffffffffffff1673ffffffffffffffffffffffffffffffffffffffff163373ffffffffffffffffffffffffffffffffffffffff16145b151561172a576040517f08c379a00000000000000000000000000000000000000000000000000000000081526004018080602001828103825260338152602001807f54686973207472616e73616374696f6e206d7573742062652063616c6c65642081526020017f62792070726f6a6563742072656665726565210000000000000000000000000081525060400191505060405180910390fd5b60028581548110151561173957fe5b90600052602060002001608060405190810160405290816000820160009054906101000a900460ff161515151581526020016000820160019054906101000a900460ff161515151581526020016000820160029054906101000a900460ff161515151581526020016000820160039054906101000a900460ff1660ff1660ff16815250509150600182602001901515908115158152505083826040019015159081151581525050816002868154811015156117f057fe5b9060005260206000200160008201518160000160006101000a81548160ff02191690831515021790555060208201518160000160016101000a81548160ff02191690831515021790555060408201518160000160026101000a81548160ff02191690831515021790555060608201518160000160036101000a81548160ff021916908360ff16021790555090505060019250505092915050565b6000806000809150600090505b60018054905081101561192e578373ffffffffffffffffffffffffffffffffffffffff166001828154811015156118ca57fe5b906000526020600020906006020160020160009054906101000a900473ffffffffffffffffffffffffffffffffffffffff1673ffffffffffffffffffffffffffffffffffffffff1614156119215781806001019250505b8080600101915050611897565b8192505050919050565b600061194261292d565b8260038181548110151561195257fe5b906000526020600020906003020160000160009054906101000a900473ffffffffffffffffffffffffffffffffffffffff1673ffffffffffffffffffffffffffffffffffffffff163373ffffffffffffffffffffffffffffffffffffffff161480611a2857506003818154811015156119c757fe5b906000526020600020906003020160010160009054906101000a900473ffffffffffffffffffffffffffffffffffffffff1673ffffffffffffffffffffffffffffffffffffffff163373ffffffffffffffffffffffffffffffffffffffff16145b80611a9e5750600381815481101515611a3d57fe5b906000526020600020906003020160020160009054906101000a900473ffffffffffffffffffffffffffffffffffffffff1673ffffffffffffffffffffffffffffffffffffffff163373ffffffffffffffffffffffffffffffffffffffff16145b1515611b38576040517f08c379a00000000000000000000000000000000000000000000000000000000081526004018080602001828103825260338152602001807f54686973207472616e73616374696f6e206d7573742062652063616c6c65642081526020017f62792070726f6a6563742072656665726565210000000000000000000000000081525060400191505060405180910390fd5b600284815481101515611b4757fe5b90600052602060002001608060405190810160405290816000820160009054906101000a900460ff161515151581526020016000820160019054906101000a900460ff161515151581526020016000820160029054906101000a900460ff161515151581526020016000820160039054906101000a900460ff1660ff1660ff168152505091506001826020019015159081151581525050600182604001901515908115158152505081600285815481101515611bff57fe5b9060005260206000200160008201518160000160006101000a81548160ff02191690831515021790555060208201518160000160016101000a81548160ff02191690831515021790555060408201518160000160026101000a81548160ff02191690831515021790555060608201518160000160036101000a81548160ff021916908360ff160217905550905050600192505050919050565b6000806000611ca561295f565b600385815481101515611cb457fe5b9060005260206000209060030201606060405190810160405290816000820160009054906101000a900473ffffffffffffffffffffffffffffffffffffffff1673ffffffffffffffffffffffffffffffffffffffff1673ffffffffffffffffffffffffffffffffffffffff1681526020016001820160009054906101000a900473ffffffffffffffffffffffffffffffffffffffff1673ffffffffffffffffffffffffffffffffffffffff1673ffffffffffffffffffffffffffffffffffffffff1681526020016002820160009054906101000a900473ffffffffffffffffffffffffffffffffffffffff1673ffffffffffffffffffffffffffffffffffffffff1673ffffffffffffffffffffffffffffffffffffffff16815250509050806000015181602001518260400151935093509350509193909250565b6000611dfd8585858561223b565b8015611e0d5750611e0c61238a565b5b8015611e1d5750611e1c612490565b5b1515611e2557fe5b60019050949350505050565b600080600080611e3f61292d565b600286815481101515611e4e57fe5b90600052602060002001608060405190810160405290816000820160009054906101000a900460ff161515151581526020016000820160019054906101000a900460ff161515151581526020016000820160029054906101000a900460ff161515151581526020016000820160039054906101000a900460ff1660ff1660ff1681525050905080600001518160200151826040015183606001519450945094509450509193509193565b600281815481101515611f0757fe5b906000526020600020016000915090508060000160009054906101000a900460ff16908060000160019054906101000a900460ff16908060000160029054906101000a900460ff16908060000160039054906101000a900460ff16905084565b600381815481101515611f7657fe5b90600052602060002090600302016000915090508060000160009054906101000a900473ffffffffffffffffffffffffffffffffffffffff16908060010160009054906101000a900473ffffffffffffffffffffffffffffffffffffffff16908060020160009054906101000a900473ffffffffffffffffffffffffffffffffffffffff16905083565b6000600180549050905090565b60608060008060008061201e6128e0565b60018881548110151561202d57fe5b906000526020600020906006020160c06040519081016040529081600082018054600181600116156101000203166002900480601f0160208091040260200160405190810160405280929190818152602001828054600181600116156101000203166002900480156120e05780601f106120b5576101008083540402835291602001916120e0565b820191906000526020600020905b8154815290600101906020018083116120c357829003601f168201915b50505050508152602001600182018054600181600116156101000203166002900480601f0160208091040260200160405190810160405280929190818152602001828054600181600116156101000203166002900480156121825780601f1061215757610100808354040283529160200191612182565b820191906000526020600020905b81548152906001019060200180831161216557829003601f168201915b505050505081526020016002820160009054906101000a900473ffffffffffffffffffffffffffffffffffffffff1673ffffffffffffffffffffffffffffffffffffffff1673ffffffffffffffffffffffffffffffffffffffff16815260200160038201548152602001600482015481526020016005820154815250509050806000015181602001518260400151836060015184608001518560a001518595508494509650965096509650965096505091939550919395565b60006122456128e0565b858160000181905250848160200181905250838160600181815250508281608001818152505033816040019073ffffffffffffffffffffffffffffffffffffffff16908173ffffffffffffffffffffffffffffffffffffffff1681525050348160a00181815250506001819080600181540180825580915050906001820390600052602060002090600602016000909192909190915060008201518160000190805190602001906122f7929190612860565b506020820151816001019080519060200190612314929190612860565b5060408201518160020160006101000a81548173ffffffffffffffffffffffffffffffffffffffff021916908373ffffffffffffffffffffffffffffffffffffffff160217905550606082015181600301556080820151816004015560a082015181600501555050506001915050949350505050565b600061239461292d565b6001816000019015159081151581525050600081602001901515908115158152505060018160400190151590811515815250506000816060019060ff16908160ff168152505060028190806001815401808255809150509060018203906000526020600020016000909192909190915060008201518160000160006101000a81548160ff02191690831515021790555060208201518160000160016101000a81548160ff02191690831515021790555060408201518160000160026101000a81548160ff02191690831515021790555060608201518160000160036101000a81548160ff021916908360ff160217905550505050600191505090565b600061249a61295f565b60006124a4612734565b90506004818154811015156124b557fe5b9060005260206000200160009054906101000a900473ffffffffffffffffffffffffffffffffffffffff16826000019073ffffffffffffffffffffffffffffffffffffffff16908173ffffffffffffffffffffffffffffffffffffffff16815250506001805490506001820181151561252a57fe5b06905060048181548110151561253c57fe5b9060005260206000200160009054906101000a900473ffffffffffffffffffffffffffffffffffffffff16826020019073ffffffffffffffffffffffffffffffffffffffff16908173ffffffffffffffffffffffffffffffffffffffff1681525050600180549050600182018115156125b157fe5b0690506004818154811015156125c357fe5b9060005260206000200160009054906101000a900473ffffffffffffffffffffffffffffffffffffffff16826040019073ffffffffffffffffffffffffffffffffffffffff16908173ffffffffffffffffffffffffffffffffffffffff16815250506003829080600181540180825580915050906001820390600052602060002090600302016000909192909190915060008201518160000160006101000a81548173ffffffffffffffffffffffffffffffffffffffff021916908373ffffffffffffffffffffffffffffffffffffffff16021790555060208201518160010160006101000a81548173ffffffffffffffffffffffffffffffffffffffff021916908373ffffffffffffffffffffffffffffffffffffffff16021790555060408201518160020160006101000a81548173ffffffffffffffffffffffffffffffffffffffff021916908373ffffffffffffffffffffffffffffffffffffffff16021790555050505060019250505090565b6000806001805490504233600854604051602001808481526020018373ffffffffffffffffffffffffffffffffffffffff1673ffffffffffffffffffffffffffffffffffffffff166c0100000000000000000000000002815260140182815260200193505050506040516020818303038152906040526040518082805190602001908083835b6020831015156127df57805182526020820191506020810190506020830392506127ba565b6001836020036101000a03801982511681845116808217855250505050505090500191505060405180910390206001900481151561281957fe5b0690506008600081548092919060010191905055508091505090565b6080604051908101604052806060815260200160608152602001600081526020016000151581525090565b828054600181600116156101000203166002900490600052602060002090601f016020900481019282601f106128a157805160ff19168380011785556128cf565b828001600101855582156128cf579182015b828111156128ce5782518255916020019190600101906128b3565b5b5090506128dc91906129c3565b5090565b60c0604051908101604052806060815260200160608152602001600073ffffffffffffffffffffffffffffffffffffffff1681526020016000815260200160008152602001600081525090565b608060405190810160405280600015158152602001600015158152602001600015158152602001600060ff1681525090565b606060405190810160405280600073ffffffffffffffffffffffffffffffffffffffff168152602001600073ffffffffffffffffffffffffffffffffffffffff168152602001600073ffffffffffffffffffffffffffffffffffffffff1681525090565b6129e591905b808211156129e15760008160009055506001016129c9565b5090565b905600a165627a7a723058205f3a288ec73060cfd0ef9011ac3caaeeb69d1edacc20b359516fb13cf14a0ab60029",
  "source": "pragma solidity ^0.4.24;\n\ncontract DodoRepository {\n    address owner;\n    ProjectInfo[] public infos;\n    ProjectStatus[] public statuses;\n    ProjectReferees[] public referees;\n    address[] public refereeEntry;\n    mapping(uint => Proof[]) proofs; // key by project index.\n    mapping(uint => Proof) claims;\n    uint period = 2 days;\n    uint nonce = 0;\n\n    struct ProjectInfo {\n        string name;\n        string description;\n        address participant;\n        uint startTime;\n        uint endTime;\n        uint freezeAmount;\n    }\n\n    struct ProjectStatus {\n        bool active; // \n        bool judged; // \n        bool success; // \n        uint8 claimed;\n    }\n\n    struct ProjectReferees {\n        address referee1; \n        address referee2;\n        address referee3;\n    }\n\n    struct Proof {\n        string name;\n        string description;\n        uint timestamp;\n        bool judged;\n    }\n\n    modifier onlyOwner() {\n        require(msg.sender == owner, \"This transaction must be called by owner!\");\n        _;\n    }\n\n    modifier onlyReferee(uint _index) {\n        require(\n            msg.sender == referees[_index].referee1 \n            || msg.sender == referees[_index].referee2\n            || msg.sender == referees[_index].referee3, \n            \"This transaction must be called by project referee!\"\n        ); \n        _;\n    }\n    \n    modifier onlyProjectOwner(uint _index) {\n        require(msg.sender == infos[_index].participant, \"This transaction must be called by project owner\");\n        _;\n    }\n\n    /**\n    * @dev Created a DodoRepository\n    */\n    constructor() public {\n        owner = msg.sender;\n    }\n\n    function () external payable {\n        revert();\n    }   \n\n    /**\n    * @dev Create Project\n    * @param _name name of the Project\n    * @param _description description of the Project\n    * @param _startTime start timestamp\n    * @param _endTime end timestamp\n    * @return bool result of transaction\n    */\n    function createProject(string _name,\n                            string _description,\n                            uint _startTime,\n                            uint _endTime) public payable returns (bool) {\n        assert(createInfo(_name, _description, _startTime, _endTime)\n            && createStatus()\n            && createReferees());\n\n        return true;\n    }\n\n    /**\n    * @dev Finalize Project\n    * @param _index Index of the Project \n    * @return bool result of transaction\n    */\n    function finalizeProject(uint _index) public payable returns (bool) {\n        ProjectInfo memory info = infos[_index];\n        ProjectStatus memory status = statuses[_index];\n        require(now >= info.endTime + period * (status.claimed + 1),\n            \"This transaction must be fired after claim date finished!\");\n        status.judged = true;\n        if (status.success) {\n            info.participant.transfer(info.freezeAmount);\n        } else {\n            owner.transfer(info.freezeAmount);\n        }\n        status.active = false;\n        return true;\n    }\n\n    /**\n    * @dev Judge Project\n    * @param _index Index of the Project \n    * @param _result judgement result by referee(msg.sender)\n    * @return bool result of transaction\n    */\n    function judgeProject(uint _index, bool _result) public onlyReferee(_index) returns (bool) {\n        ProjectStatus memory status = statuses[_index];\n        status.judged = true;\n        status.success = _result;\n        statuses[_index] = status;\n        return true;\n    }\n\n    /**\n    * @dev Submit Proof\n    * @param _index Index of the Project \n    * @param name name of the proof\n    * @param description description of the proof\n    * @return bool result of transaction\n    */\n    function submitProof(uint _index, string name, string description) public onlyProjectOwner(_index) returns (bool) {\n        Proof memory newProof;\n        newProof.name = name;\n        newProof.description = description;\n        newProof.timestamp = now;\n        newProof.judged = true;\n        proofs[_index].push(newProof);\n\n        return true;\n    }\n\n    /**\n    * @dev Claim Judge\n    * @param _index Index of the Project\n    * @param name name of the proof\n    * @param description description of the proof \n    * @return bool result of transaction\n    */\n    function claimJudge(uint _index, string name, string description) public onlyProjectOwner(_index) returns (bool) {\n        Proof memory newProof;\n        newProof.name = name;\n        newProof.description = description;\n        newProof.timestamp = now;\n        newProof.judged = false;\n        claims[_index] = newProof;\n\n        return true;\n    }\n\n    /**\n    * @dev Claim Approve\n    * @param _index Index of the Project \n    * @return bool result of transaction\n    */\n    function claimApprove(uint _index) public onlyReferee(_index) returns (bool) {\n        ProjectStatus memory status = statuses[_index];\n        status.judged = true;\n        status.success = true;\n        statuses[_index] = status;\n        return true;\n    }\n\n    /**\n    * @dev Get Project Counts\n    * @return uint256 represents the number of Projects\n    */\n    function getProjectCounts() public view returns (uint) {\n        return infos.length;\n    }\n\n    /**\n    * @dev Get Project Info by Index\n    * @param _index Index of the Project \n    * @return Project represents the Project\n    */\n    function getProjectInfo(uint _index) public view returns (string,\n                                                        string,\n                                                        address,\n                                                        uint,\n                                                        uint,\n                                                        uint) {\n        ProjectInfo memory project = infos[_index];\n        return (\n            project.name, project.description, project.participant,\n            project.startTime, project.endTime, project.freezeAmount\n        );\n    }\n\n    /**\n    * @dev Get Project Status by Index\n    * @param _index Index of the Project \n    * @return Project represents the Project\n    */\n    function getProjectStatus(uint _index) public view returns (bool, // \n                                                        bool, // \n                                                        bool, // \n                                                        uint8) {\n        ProjectStatus memory project = statuses[_index];\n        return (project.active, project.judged, project.success, project.claimed);\n    }\n\n    /**\n    * @dev Get Project Referees by Index\n    * @param _index Index of the Project \n    * @return Project represents the Project\n    */\n    function getProjectReferees(uint _index) public view returns (address, \n                                                        address,\n                                                        address) {\n        ProjectReferees memory project = referees[_index];\n        return (project.referee1, project.referee2, project.referee3);\n    }\n\n    /**\n    * @dev Get My Project Counts\n    * @param _address address \n    * @return uint represents the number of my Projects\n    */\n    function getMyProjectCounts(address _address) public view returns (uint) {\n        uint result = 0;\n        for (uint i = 0; i < infos.length; i++) {\n            if (infos[i].participant == _address) {\n                result++;\n            }\n        }\n        return result;\n    }\n\n    /**\n    * @dev Get My Index\n    * @param _address address \n    * @param _index index of 0..<number of my Projects\n    * @return uint represents the index of my Projects\n    */\n    function getMyProjectIndex(address _address, uint _index) public view returns (uint) {\n        for (uint i = 0; i < infos.length; i++) {\n            if (infos[i].participant == _address) {\n                if (_index == 0) {\n                    return i;\n                }\n                _index--;\n            }\n        }\n        return 0;\n    }\n\n    function random() internal returns (uint) {\n        uint randomnumber = uint(keccak256(abi.encodePacked(now, msg.sender, nonce))) % infos.length;\n        nonce++;\n        return randomnumber;\n    }\n\n    function createInfo(string _name,\n                            string _description,\n                            uint _startTime,\n                            uint _endTime) internal returns (bool) {\n        ProjectInfo memory newProject;\n        newProject.name = _name;\n        newProject.description = _description;\n        newProject.startTime = _startTime;\n        newProject.endTime = _endTime;\n        newProject.participant = msg.sender;\n        newProject.freezeAmount = msg.value;\n        infos.push(newProject);\n        return true;\n    }\n\n    function createStatus() internal returns (bool) {\n        ProjectStatus memory newProject;\n        newProject.active = true;\n        newProject.judged = false;\n        newProject.success = true;\n        newProject.claimed = 0;\n        statuses.push(newProject);\n        return true;\n    }\n\n    function createReferees() internal returns (bool) {\n        ProjectReferees memory newProject;\n        uint randNum = random();\n        newProject.referee1 = refereeEntry[randNum];\n        randNum = (randNum + 1) % infos.length;\n        newProject.referee2 = refereeEntry[randNum];\n        randNum = (randNum + 1) % infos.length;\n        newProject.referee3 = refereeEntry[randNum];\n        referees.push(newProject);\n        return true;\n    }\n}\n",
  "sourcePath": "/Users/currybab/codingcoding/dodo-klaytn/contracts/DodoRepository.sol",
  "compiler": {
    "name": "solc",
    "version": "0.4.25+commit.59dbf8f1.Emscripten.clang"
  },
  "schemaVersion": "2.0.2",
  "updatedAt": "2019-05-08T02:21:36.403Z"
}