{
  "contractName": "DodoRepository",
  "abi": [
    {
      "constant": true,
      "inputs": [
        {
          "name": "",
          "type": "uint256"
        }
      ],
      "name": "infos",
      "outputs": [
        {
          "name": "name",
          "type": "string"
        },
        {
          "name": "description",
          "type": "string"
        },
        {
          "name": "participant",
          "type": "address"
        },
        {
          "name": "startDate",
          "type": "uint256"
        },
        {
          "name": "endDate",
          "type": "uint256"
        },
        {
          "name": "freezeAmount",
          "type": "uint256"
        }
      ],
      "payable": false,
      "stateMutability": "view",
      "type": "function"
    },
    {
      "constant": true,
      "inputs": [
        {
          "name": "",
          "type": "uint256"
        }
      ],
      "name": "whiteList",
      "outputs": [
        {
          "name": "",
          "type": "address"
        }
      ],
      "payable": false,
      "stateMutability": "view",
      "type": "function"
    },
    {
      "constant": true,
      "inputs": [
        {
          "name": "",
          "type": "uint256"
        }
      ],
      "name": "blackList",
      "outputs": [
        {
          "name": "",
          "type": "address"
        }
      ],
      "payable": false,
      "stateMutability": "view",
      "type": "function"
    },
    {
      "constant": true,
      "inputs": [
        {
          "name": "",
          "type": "uint256"
        }
      ],
      "name": "proofs",
      "outputs": [
        {
          "name": "name",
          "type": "string"
        },
        {
          "name": "memo",
          "type": "string"
        },
        {
          "name": "projectNo",
          "type": "uint256"
        },
        {
          "name": "timestamp",
          "type": "uint256"
        },
        {
          "name": "judged",
          "type": "uint8"
        }
      ],
      "payable": false,
      "stateMutability": "view",
      "type": "function"
    },
    {
      "constant": true,
      "inputs": [
        {
          "name": "",
          "type": "uint256"
        }
      ],
      "name": "statuses",
      "outputs": [
        {
          "name": "active",
          "type": "bool"
        },
        {
          "name": "success",
          "type": "bool"
        },
        {
          "name": "claimed",
          "type": "uint8"
        }
      ],
      "payable": false,
      "stateMutability": "view",
      "type": "function"
    },
    {
      "constant": true,
      "inputs": [
        {
          "name": "",
          "type": "uint256"
        }
      ],
      "name": "referees",
      "outputs": [
        {
          "name": "referee1",
          "type": "address"
        },
        {
          "name": "referee2",
          "type": "address"
        },
        {
          "name": "referee3",
          "type": "address"
        }
      ],
      "payable": false,
      "stateMutability": "view",
      "type": "function"
    },
    {
      "inputs": [],
      "payable": false,
      "stateMutability": "nonpayable",
      "type": "constructor"
    },
    {
      "payable": true,
      "stateMutability": "payable",
      "type": "fallback"
    },
    {
      "constant": false,
      "inputs": [
        {
          "name": "_name",
          "type": "string"
        },
        {
          "name": "_description",
          "type": "string"
        },
        {
          "name": "_startDate",
          "type": "uint256"
        },
        {
          "name": "_endDate",
          "type": "uint256"
        }
      ],
      "name": "createProject",
      "outputs": [
        {
          "name": "",
          "type": "bool"
        }
      ],
      "payable": true,
      "stateMutability": "payable",
      "type": "function"
    },
    {
      "constant": false,
      "inputs": [
        {
          "name": "_index",
          "type": "uint256"
        }
      ],
      "name": "finalizeProject",
      "outputs": [
        {
          "name": "",
          "type": "bool"
        }
      ],
      "payable": true,
      "stateMutability": "payable",
      "type": "function"
    },
    {
      "constant": false,
      "inputs": [
        {
          "name": "_index",
          "type": "uint256"
        },
        {
          "name": "name",
          "type": "string"
        },
        {
          "name": "memo",
          "type": "string"
        }
      ],
      "name": "submitProof",
      "outputs": [
        {
          "name": "",
          "type": "bool"
        }
      ],
      "payable": false,
      "stateMutability": "nonpayable",
      "type": "function"
    },
    {
      "constant": false,
      "inputs": [
        {
          "name": "_index",
          "type": "uint256"
        },
        {
          "name": "name",
          "type": "string"
        },
        {
          "name": "memo",
          "type": "string"
        }
      ],
      "name": "claimJudge",
      "outputs": [
        {
          "name": "",
          "type": "bool"
        }
      ],
      "payable": false,
      "stateMutability": "nonpayable",
      "type": "function"
    },
    {
      "constant": false,
      "inputs": [
        {
          "name": "_index",
          "type": "uint256"
        }
      ],
      "name": "claimApprove",
      "outputs": [
        {
          "name": "",
          "type": "bool"
        }
      ],
      "payable": false,
      "stateMutability": "nonpayable",
      "type": "function"
    },
    {
      "constant": false,
      "inputs": [
        {
          "name": "_index",
          "type": "uint256"
        }
      ],
      "name": "claimDecline",
      "outputs": [
        {
          "name": "",
          "type": "bool"
        }
      ],
      "payable": false,
      "stateMutability": "nonpayable",
      "type": "function"
    },
    {
      "constant": false,
      "inputs": [],
      "name": "applyReferee",
      "outputs": [
        {
          "name": "",
          "type": "bool"
        }
      ],
      "payable": false,
      "stateMutability": "nonpayable",
      "type": "function"
    },
    {
      "constant": false,
      "inputs": [],
      "name": "cancelReferee",
      "outputs": [
        {
          "name": "",
          "type": "bool"
        }
      ],
      "payable": false,
      "stateMutability": "nonpayable",
      "type": "function"
    },
    {
      "constant": false,
      "inputs": [
        {
          "name": "_index",
          "type": "uint256"
        }
      ],
      "name": "likeProof",
      "outputs": [
        {
          "name": "",
          "type": "bool"
        }
      ],
      "payable": false,
      "stateMutability": "nonpayable",
      "type": "function"
    },
    {
      "constant": false,
      "inputs": [
        {
          "name": "_index",
          "type": "uint256"
        }
      ],
      "name": "dislikeProof",
      "outputs": [
        {
          "name": "",
          "type": "bool"
        }
      ],
      "payable": false,
      "stateMutability": "nonpayable",
      "type": "function"
    },
    {
      "constant": true,
      "inputs": [],
      "name": "getWhiteList",
      "outputs": [
        {
          "name": "",
          "type": "address[]"
        }
      ],
      "payable": false,
      "stateMutability": "view",
      "type": "function"
    },
    {
      "constant": true,
      "inputs": [],
      "name": "getProjectCounts",
      "outputs": [
        {
          "name": "",
          "type": "uint256"
        }
      ],
      "payable": false,
      "stateMutability": "view",
      "type": "function"
    },
    {
      "constant": true,
      "inputs": [
        {
          "name": "_index",
          "type": "uint256"
        }
      ],
      "name": "getProjectInfo",
      "outputs": [
        {
          "name": "name",
          "type": "string"
        },
        {
          "name": "description",
          "type": "string"
        },
        {
          "name": "participant",
          "type": "address"
        },
        {
          "name": "startDate",
          "type": "uint256"
        },
        {
          "name": "endDate",
          "type": "uint256"
        },
        {
          "name": "freeAmount",
          "type": "uint256"
        }
      ],
      "payable": false,
      "stateMutability": "view",
      "type": "function"
    },
    {
      "constant": true,
      "inputs": [
        {
          "name": "_index",
          "type": "uint256"
        }
      ],
      "name": "getProjectStatus",
      "outputs": [
        {
          "name": "active",
          "type": "bool"
        },
        {
          "name": "success",
          "type": "bool"
        },
        {
          "name": "claimed",
          "type": "uint8"
        }
      ],
      "payable": false,
      "stateMutability": "view",
      "type": "function"
    },
    {
      "constant": true,
      "inputs": [
        {
          "name": "_index",
          "type": "uint256"
        }
      ],
      "name": "getProjectReferees",
      "outputs": [
        {
          "name": "",
          "type": "address"
        },
        {
          "name": "",
          "type": "address"
        },
        {
          "name": "",
          "type": "address"
        }
      ],
      "payable": false,
      "stateMutability": "view",
      "type": "function"
    },
    {
      "constant": true,
      "inputs": [
        {
          "name": "_address",
          "type": "address"
        }
      ],
      "name": "getMyProjectCounts",
      "outputs": [
        {
          "name": "",
          "type": "uint256"
        }
      ],
      "payable": false,
      "stateMutability": "view",
      "type": "function"
    },
    {
      "constant": true,
      "inputs": [
        {
          "name": "_address",
          "type": "address"
        },
        {
          "name": "_index",
          "type": "uint256"
        }
      ],
      "name": "getMyProjectIndex",
      "outputs": [
        {
          "name": "",
          "type": "uint256"
        }
      ],
      "payable": false,
      "stateMutability": "view",
      "type": "function"
    },
    {
      "constant": true,
      "inputs": [
        {
          "name": "_index",
          "type": "uint256"
        }
      ],
      "name": "getProofsCount",
      "outputs": [
        {
          "name": "",
          "type": "uint256"
        }
      ],
      "payable": false,
      "stateMutability": "view",
      "type": "function"
    },
    {
      "constant": true,
      "inputs": [
        {
          "name": "_index",
          "type": "uint256"
        }
      ],
      "name": "getProof",
      "outputs": [
        {
          "name": "name",
          "type": "string"
        },
        {
          "name": "memo",
          "type": "string"
        },
        {
          "name": "projectNo",
          "type": "uint256"
        },
        {
          "name": "timestamp",
          "type": "uint256"
        },
        {
          "name": "judged",
          "type": "uint8"
        },
        {
          "name": "like",
          "type": "address[]"
        },
        {
          "name": "dislike",
          "type": "address[]"
        }
      ],
      "payable": false,
      "stateMutability": "view",
      "type": "function"
    },
    {
      "constant": true,
      "inputs": [
        {
          "name": "_index",
          "type": "uint256"
        }
      ],
      "name": "getClaim",
      "outputs": [
        {
          "name": "name",
          "type": "string"
        },
        {
          "name": "memo",
          "type": "string"
        },
        {
          "name": "timestamp",
          "type": "uint256"
        },
        {
          "name": "judged",
          "type": "uint8"
        }
      ],
      "payable": false,
      "stateMutability": "view",
      "type": "function"
    }
  ],
  "bytecode": "0x60806040526078600a556000600b5534801561001a57600080fd5b5073bf128f013f40ec7fdfe95d0a298e85764f628e7f6000806101000a81548173ffffffffffffffffffffffffffffffffffffffff021916908373ffffffffffffffffffffffffffffffffffffffff160217905550600873bf128f013f40ec7fdfe95d0a298e85764f628e7f90806001815401808255809150509060018203906000526020600020016000909192909190916101000a81548173ffffffffffffffffffffffffffffffffffffffff021916908373ffffffffffffffffffffffffffffffffffffffff1602179055505061473c806100f86000396000f300608060405260043610610154576000357c0100000000000000000000000000000000000000000000000000000000900463ffffffff16806307f4f2841461015957806309a9d76c1461022a57806311149ada1461029657806328de3c9b146104535780632e5de0d5146105ad5780633a0f45bb1461060e5780634d798de5146106df57806353ab1128146107175780635aef2447146107585780635c475d421461087e578063709ec8b4146108eb57806373337041146109585780637952ce51146109af5780638dc039b4146109f457806394ba970914610ac75780639675c00914610b95578063973a714f14610bf25780639ddaf5aa14610c37578063a3a8b0cb14610d64578063b3219bfa14610da9578063d96f726214610dd8578063e67b932c14610e1d578063edb5ae8a14610e7a578063eef60e0c14610f4d578063f60981be14610f7c578063fabf596814610fa7575b600080fd5b34801561016557600080fd5b5061021060048036038101908080359060200190929190803590602001908201803590602001908080601f0160208091040260200160405190810160405280939291908181526020018383808284378201915050505050509192919290803590602001908201803590602001908080601f0160208091040260200160405190810160405280939291908181526020018383808284378201915050505050509192919290505050611101565b604051808215151515815260200191505060405180910390f35b34801561023657600080fd5b5061023f61158d565b6040518080602001828103825283818151815260200191508051906020019060200280838360005b83811015610282578082015181840152602081019050610267565b505050509050019250505060405180910390f35b3480156102a257600080fd5b506102c16004803603810190808035906020019092919050505061161b565b6040518080602001806020018881526020018781526020018660ff1660ff168152602001806020018060200185810385528c818151815260200191508051906020019080838360005b8381101561032557808201518184015260208101905061030a565b50505050905090810190601f1680156103525780820380516001836020036101000a031916815260200191505b5085810384528b818151815260200191508051906020019080838360005b8381101561038b578082015181840152602081019050610370565b50505050905090810190601f1680156103b85780820380516001836020036101000a031916815260200191505b50858103835287818151815260200191508051906020019060200280838360005b838110156103f45780820151818401526020810190506103d9565b50505050905001858103825286818151815260200191508051906020019060200280838360005b8381101561043657808201518184015260208101905061041b565b505050509050019b50505050505050505050505060405180910390f35b34801561045f57600080fd5b5061047e60048036038101908080359060200190929190505050611977565b6040518080602001806020018773ffffffffffffffffffffffffffffffffffffffff1673ffffffffffffffffffffffffffffffffffffffff168152602001868152602001858152602001848152602001838103835289818151815260200191508051906020019080838360005b838110156105065780820151818401526020810190506104eb565b50505050905090810190601f1680156105335780820380516001836020036101000a031916815260200191505b50838103825288818151815260200191508051906020019080838360005b8381101561056c578082015181840152602081019050610551565b50505050905090810190601f1680156105995780820380516001836020036101000a031916815260200191505b509850505050505050505060405180910390f35b3480156105b957600080fd5b506105f8600480360381019080803573ffffffffffffffffffffffffffffffffffffffff16906020019092919080359060200190929190505050611b12565b6040518082815260200191505060405180910390f35b34801561061a57600080fd5b506106c560048036038101908080359060200190929190803590602001908201803590602001908080601f0160208091040260200160405190810160405280939291908181526020018383808284378201915050505050509192919290803590602001908201803590602001908080601f0160208091040260200160405190810160405280939291908181526020018383808284378201915050505050509192919290505050611bcf565b604051808215151515815260200191505060405180910390f35b6106fd60048036038101908080359060200190929190505050611ea1565b604051808215151515815260200191505060405180910390f35b34801561072357600080fd5b50610742600480360381019080803590602001909291905050506123ce565b6040518082815260200191505060405180910390f35b34801561076457600080fd5b50610783600480360381019080803590602001909291905050506123ee565b6040518080602001806020018581526020018460ff1660ff168152602001838103835287818151815260200191508051906020019080838360005b838110156107d95780820151818401526020810190506107be565b50505050905090810190601f1680156108065780820380516001836020036101000a031916815260200191505b50838103825286818151815260200191508051906020019080838360005b8381101561083f578082015181840152602081019050610824565b50505050905090810190601f16801561086c5780820380516001836020036101000a031916815260200191505b50965050505050505060405180910390f35b34801561088a57600080fd5b506108a9600480360381019080803590602001909291905050506126d8565b604051808273ffffffffffffffffffffffffffffffffffffffff1673ffffffffffffffffffffffffffffffffffffffff16815260200191505060405180910390f35b3480156108f757600080fd5b5061091660048036038101908080359060200190929190505050612716565b604051808273ffffffffffffffffffffffffffffffffffffffff1673ffffffffffffffffffffffffffffffffffffffff16815260200191505060405180910390f35b34801561096457600080fd5b50610999600480360381019080803573ffffffffffffffffffffffffffffffffffffffff169060200190929190505050612754565b6040518082815260200191505060405180910390f35b3480156109bb57600080fd5b506109da60048036038101908080359060200190929190505050612802565b604051808215151515815260200191505060405180910390f35b348015610a0057600080fd5b50610a1f60048036038101908080359060200190929190505050612a6e565b604051808473ffffffffffffffffffffffffffffffffffffffff1673ffffffffffffffffffffffffffffffffffffffff1681526020018373ffffffffffffffffffffffffffffffffffffffff1673ffffffffffffffffffffffffffffffffffffffff1681526020018273ffffffffffffffffffffffffffffffffffffffff1673ffffffffffffffffffffffffffffffffffffffff168152602001935050505060405180910390f35b610b7b600480360381019080803590602001908201803590602001908080601f0160208091040260200160405190810160405280939291908181526020018383808284378201915050505050509192919290803590602001908201803590602001908080601f01602080910402602001604051908101604052809392919081815260200183838082843782019150505050505091929192908035906020019092919080359060200190929190505050612bc5565b604051808215151515815260200191505060405180910390f35b348015610ba157600080fd5b50610bc060048036038101908080359060200190929190505050612c07565b6040518084151515158152602001831515151581526020018260ff1660ff168152602001935050505060405180910390f35b348015610bfe57600080fd5b50610c1d60048036038101908080359060200190929190505050612cab565b604051808215151515815260200191505060405180910390f35b348015610c4357600080fd5b50610c6260048036038101908080359060200190929190505050612f17565b6040518080602001806020018681526020018581526020018460ff1660ff168152602001838103835288818151815260200191508051906020019080838360005b83811015610cbe578082015181840152602081019050610ca3565b50505050905090810190601f168015610ceb5780820380516001836020036101000a031916815260200191505b50838103825287818151815260200191508051906020019080838360005b83811015610d24578082015181840152602081019050610d09565b50505050905090810190601f168015610d515780820380516001836020036101000a031916815260200191505b5097505050505050505060405180910390f35b348015610d7057600080fd5b50610d8f60048036038101908080359060200190929190505050613099565b604051808215151515815260200191505060405180910390f35b348015610db557600080fd5b50610dbe613277565b604051808215151515815260200191505060405180910390f35b348015610de457600080fd5b50610e03600480360381019080803590602001909291905050506132e6565b604051808215151515815260200191505060405180910390f35b348015610e2957600080fd5b50610e48600480360381019080803590602001909291905050506134c4565b6040518084151515158152602001831515151581526020018260ff1660ff168152602001935050505060405180910390f35b348015610e8657600080fd5b50610ea560048036038101908080359060200190929190505050613520565b604051808473ffffffffffffffffffffffffffffffffffffffff1673ffffffffffffffffffffffffffffffffffffffff1681526020018373ffffffffffffffffffffffffffffffffffffffff1673ffffffffffffffffffffffffffffffffffffffff1681526020018273ffffffffffffffffffffffffffffffffffffffff1673ffffffffffffffffffffffffffffffffffffffff168152602001935050505060405180910390f35b348015610f5957600080fd5b50610f626135b9565b604051808215151515815260200191505060405180910390f35b348015610f8857600080fd5b50610f91613712565b6040518082815260200191505060405180910390f35b348015610fb357600080fd5b50610fd26004803603810190808035906020019092919050505061371f565b6040518080602001806020018773ffffffffffffffffffffffffffffffffffffffff1673ffffffffffffffffffffffffffffffffffffffff168152602001868152602001858152602001848152602001838103835289818151815260200191508051906020019080838360005b8381101561105a57808201518184015260208101905061103f565b50505050905090810190601f1680156110875780820380516001836020036101000a031916815260200191505b50838103825288818151815260200191508051906020019080838360005b838110156110c05780820151818401526020810190506110a5565b50505050905090810190601f1680156110ed5780820380516001836020036101000a031916815260200191505b509850505050505050505060405180910390f35b600061110b614457565b8460018181548110151561111b57fe5b906000526020600020906006020160020160009054906101000a900473ffffffffffffffffffffffffffffffffffffffff1673ffffffffffffffffffffffffffffffffffffffff163373ffffffffffffffffffffffffffffffffffffffff16141515611215576040517f08c379a00000000000000000000000000000000000000000000000000000000081526004018080602001828103825260308152602001807f54686973207472616e73616374696f6e206d7573742062652063616c6c65642081526020017f62792070726f6a656374206f776e65720000000000000000000000000000000081525060400191505060405180910390fd5b848260000181905250838260200181905250428260600181815250506001826080019060ff16908160ff168152505085826040018181525050600482908060018154018082558091505090600182039060005260206000209060070201600090919290919091506000820151816000019080519060200190611298929190614498565b5060208201518160010190805190602001906112b5929190614498565b50604082015181600201556060820151816003015560808201518160040160006101000a81548160ff021916908360ff16021790555060a0820151816005019080519060200190611307929190614518565b5060c0820151816006019080519060200190611324929190614518565b505050506005600087815260200190815260200160002060016004805490500390806001815401808255809150509060018203906000526020600020016000909192909190915055506006600060038881548110151561138057fe5b906000526020600020906003020160000160009054906101000a900473ffffffffffffffffffffffffffffffffffffffff1673ffffffffffffffffffffffffffffffffffffffff1673ffffffffffffffffffffffffffffffffffffffff16815260200190815260200160002060016004805490500390806001815401808255809150509060018203906000526020600020016000909192909190915055506006600060038881548110151561143157fe5b906000526020600020906003020160010160009054906101000a900473ffffffffffffffffffffffffffffffffffffffff1673ffffffffffffffffffffffffffffffffffffffff1673ffffffffffffffffffffffffffffffffffffffff1681526020019081526020016000206001600480549050039080600181540180825580915050906001820390600052602060002001600090919290919091505550600660006003888154811015156114e257fe5b906000526020600020906003020160020160009054906101000a900473ffffffffffffffffffffffffffffffffffffffff1673ffffffffffffffffffffffffffffffffffffffff1673ffffffffffffffffffffffffffffffffffffffff16815260200190815260200160002060016004805490500390806001815401808255809150509060018203906000526020600020016000909192909190915055506001925050509392505050565b6060600880548060200260200160405190810160405280929190818152602001828054801561161157602002820191906000526020600020905b8160009054906101000a900473ffffffffffffffffffffffffffffffffffffffff1673ffffffffffffffffffffffffffffffffffffffff16815260200190600101908083116115c7575b5050505050905090565b606080600080600060608060048881548110151561163557fe5b906000526020600020906007020160000160048981548110151561165557fe5b906000526020600020906007020160010160048a81548110151561167557fe5b90600052602060002090600702016002015460048b81548110151561169657fe5b90600052602060002090600702016003015460048c8154811015156116b757fe5b906000526020600020906007020160040160009054906101000a900460ff1660048d8154811015156116e557fe5b906000526020600020906007020160050160048e81548110151561170557fe5b9060005260206000209060070201600601868054600181600116156101000203166002900480601f0160208091040260200160405190810160405280929190818152602001828054600181600116156101000203166002900480156117ab5780601f10611780576101008083540402835291602001916117ab565b820191906000526020600020905b81548152906001019060200180831161178e57829003601f168201915b50505050509650858054600181600116156101000203166002900480601f0160208091040260200160405190810160405280929190818152602001828054600181600116156101000203166002900480156118475780601f1061181c57610100808354040283529160200191611847565b820191906000526020600020905b81548152906001019060200180831161182a57829003601f168201915b50505050509550818054806020026020016040519081016040528092919081815260200182805480156118cf57602002820191906000526020600020905b8160009054906101000a900473ffffffffffffffffffffffffffffffffffffffff1673ffffffffffffffffffffffffffffffffffffffff1681526020019060010190808311611885575b505050505091508080548060200260200160405190810160405280929190818152602001828054801561195757602002820191906000526020600020905b8160009054906101000a900473ffffffffffffffffffffffffffffffffffffffff1673ffffffffffffffffffffffffffffffffffffffff168152602001906001019080831161190d575b505050505090509650965096509650965096509650919395979092949650565b60018181548110151561198657fe5b9060005260206000209060060201600091509050806000018054600181600116156101000203166002900480601f016020809104026020016040519081016040528092919081815260200182805460018160011615610100020316600290048015611a325780601f10611a0757610100808354040283529160200191611a32565b820191906000526020600020905b815481529060010190602001808311611a1557829003601f168201915b505050505090806001018054600181600116156101000203166002900480601f016020809104026020016040519081016040528092919081815260200182805460018160011615610100020316600290048015611ad05780601f10611aa557610100808354040283529160200191611ad0565b820191906000526020600020905b815481529060010190602001808311611ab357829003601f168201915b5050505050908060020160009054906101000a900473ffffffffffffffffffffffffffffffffffffffff16908060030154908060040154908060050154905086565b600080600090505b600180549050811015611bc3578373ffffffffffffffffffffffffffffffffffffffff16600182815481101515611b4d57fe5b906000526020600020906006020160020160009054906101000a900473ffffffffffffffffffffffffffffffffffffffff1673ffffffffffffffffffffffffffffffffffffffff161415611bb6576000831415611bac57809150611bc8565b8280600190039350505b8080600101915050611b1a565b600091505b5092915050565b6000611bd9614457565b846001600482815481101515611beb57fe5b906000526020600020906007020160020154815481101515611c0957fe5b906000526020600020906006020160020160009054906101000a900473ffffffffffffffffffffffffffffffffffffffff1673ffffffffffffffffffffffffffffffffffffffff163373ffffffffffffffffffffffffffffffffffffffff16141515611d03576040517f08c379a00000000000000000000000000000000000000000000000000000000081526004018080602001828103825260308152602001807f54686973207472616e73616374696f6e206d7573742062652063616c6c65642081526020017f62792070726f6a656374206f776e65720000000000000000000000000000000081525060400191505060405180910390fd5b848260000181905250838260200181905250428260600181815250506000826080019060ff16908160ff168152505081600760008881526020019081526020016000206000820151816000019080519060200190611d62929190614498565b506020820151816001019080519060200190611d7f929190614498565b50604082015181600201556060820151816003015560808201518160040160006101000a81548160ff021916908360ff16021790555060a0820151816005019080519060200190611dd1929190614518565b5060c0820151816006019080519060200190611dee929190614518565b509050506000600487815481101515611e0357fe5b906000526020600020906007020160040160006101000a81548160ff021916908360ff16021790555060016002600488815481101515611e3f57fe5b906000526020600020906007020160020154815481101515611e5d57fe5b9060005260206000200160000160028282829054906101000a900460ff160192506101000a81548160ff021916908360ff1602179055506001925050509392505050565b6000611eab6145a2565b611eb36145ef565b600080600186815481101515611ec557fe5b906000526020600020906006020160c06040519081016040529081600082018054600181600116156101000203166002900480601f016020809104026020016040519081016040528092919081815260200182805460018160011615610100020316600290048015611f785780601f10611f4d57610100808354040283529160200191611f78565b820191906000526020600020905b815481529060010190602001808311611f5b57829003601f168201915b50505050508152602001600182018054600181600116156101000203166002900480601f01602080910402602001604051908101604052809291908181526020018280546001816001161561010002031660029004801561201a5780601f10611fef5761010080835404028352916020019161201a565b820191906000526020600020905b815481529060010190602001808311611ffd57829003601f168201915b505050505081526020016002820160009054906101000a900473ffffffffffffffffffffffffffffffffffffffff1673ffffffffffffffffffffffffffffffffffffffff1673ffffffffffffffffffffffffffffffffffffffff168152602001600382015481526020016004820154815260200160058201548152505093506002868154811015156120a857fe5b90600052602060002001606060405190810160405290816000820160009054906101000a900460ff161515151581526020016000820160019054906101000a900460ff161515151581526020016000820160029054906101000a900460ff1660ff1660ff16815250509250600183604001510160ff16600a540284608001510142101515156121c5576040517f08c379a00000000000000000000000000000000000000000000000000000000081526004018080602001828103825260398152602001807f54686973207472616e73616374696f6e206d757374206265206669726564206181526020017f6674657220636c61696d20646174652066696e6973686564210000000000000081525060400191505060405180910390fd5b60009150600090505b60056000878152602001908152602001600020805490508110156122385761221f600560008881526020019081526020016000208281548110151561220f57fe5b906000526020600020015461394d565b1561222b576001820191505b80806001019150506121ce565b603c600885606001518660800151030281151561225157fe5b04600a8302101583602001901515908115158152505060008360000190151590811515815250508260028781548110151561228857fe5b9060005260206000200160008201518160000160006101000a81548160ff02191690831515021790555060208201518160000160016101000a81548160ff02191690831515021790555060408201518160000160026101000a81548160ff021916908360ff16021790555090505082602001511561235457836040015173ffffffffffffffffffffffffffffffffffffffff166108fc8560a001519081150290604051600060405180830381858888f1935050505015801561234e573d6000803e3d6000fd5b506123c1565b6000809054906101000a900473ffffffffffffffffffffffffffffffffffffffff1673ffffffffffffffffffffffffffffffffffffffff166108fc8560a001519081150290604051600060405180830381858888f193505050501580156123bf573d6000803e3d6000fd5b505b6001945050505050919050565b600060056000838152602001908152602001600020805490509050919050565b6060806000806123fc614457565b6007600087815260200190815260200160002060e06040519081016040529081600082018054600181600116156101000203166002900480601f0160208091040260200160405190810160405280929190818152602001828054600181600116156101000203166002900480156124b45780601f10612489576101008083540402835291602001916124b4565b820191906000526020600020905b81548152906001019060200180831161249757829003601f168201915b50505050508152602001600182018054600181600116156101000203166002900480601f0160208091040260200160405190810160405280929190818152602001828054600181600116156101000203166002900480156125565780601f1061252b57610100808354040283529160200191612556565b820191906000526020600020905b81548152906001019060200180831161253957829003601f168201915b5050505050815260200160028201548152602001600382015481526020016004820160009054906101000a900460ff1660ff1660ff1681526020016005820180548060200260200160405190810160405280929190818152602001828054801561261557602002820191906000526020600020905b8160009054906101000a900473ffffffffffffffffffffffffffffffffffffffff1673ffffffffffffffffffffffffffffffffffffffff16815260200190600101908083116125cb575b50505050508152602001600682018054806020026020016040519081016040528092919081815260200182805480156126a357602002820191906000526020600020905b8160009054906101000a900473ffffffffffffffffffffffffffffffffffffffff1673ffffffffffffffffffffffffffffffffffffffff1681526020019060010190808311612659575b505050505081525050905080600001518160200151826060015183608001518393508292509450945094509450509193509193565b6008818154811015156126e757fe5b906000526020600020016000915054906101000a900473ffffffffffffffffffffffffffffffffffffffff1681565b60098181548110151561272557fe5b906000526020600020016000915054906101000a900473ffffffffffffffffffffffffffffffffffffffff1681565b6000806000809150600090505b6001805490508110156127f8578373ffffffffffffffffffffffffffffffffffffffff1660018281548110151561279457fe5b906000526020600020906006020160020160009054906101000a900473ffffffffffffffffffffffffffffffffffffffff1673ffffffffffffffffffffffffffffffffffffffff1614156127eb5781806001019250505b8080600101915050612761565b8192505050919050565b60008160038181548110151561281457fe5b906000526020600020906003020160000160009054906101000a900473ffffffffffffffffffffffffffffffffffffffff1673ffffffffffffffffffffffffffffffffffffffff163373ffffffffffffffffffffffffffffffffffffffff1614806128ea575060038181548110151561288957fe5b906000526020600020906003020160010160009054906101000a900473ffffffffffffffffffffffffffffffffffffffff1673ffffffffffffffffffffffffffffffffffffffff163373ffffffffffffffffffffffffffffffffffffffff16145b8061296057506003818154811015156128ff57fe5b906000526020600020906003020160020160009054906101000a900473ffffffffffffffffffffffffffffffffffffffff1673ffffffffffffffffffffffffffffffffffffffff163373ffffffffffffffffffffffffffffffffffffffff16145b15156129fa576040517f08c379a00000000000000000000000000000000000000000000000000000000081526004018080602001828103825260338152602001807f54686973207472616e73616374696f6e206d7573742062652063616c6c65642081526020017f62792070726f6a6563742072656665726565210000000000000000000000000081525060400191505060405180910390fd5b6080600484815481101515612a0b57fe5b906000526020600020906007020160040160006101000a81548160ff021916908360ff16021790555060806007600085815260200190815260200160002060040160006101000a81548160ff021916908360ff1602179055506001915050919050565b6000806000612a7b614618565b600385815481101515612a8a57fe5b9060005260206000209060030201606060405190810160405290816000820160009054906101000a900473ffffffffffffffffffffffffffffffffffffffff1673ffffffffffffffffffffffffffffffffffffffff1673ffffffffffffffffffffffffffffffffffffffff1681526020016001820160009054906101000a900473ffffffffffffffffffffffffffffffffffffffff1673ffffffffffffffffffffffffffffffffffffffff1673ffffffffffffffffffffffffffffffffffffffff1681526020016002820160009054906101000a900473ffffffffffffffffffffffffffffffffffffffff1673ffffffffffffffffffffffffffffffffffffffff1673ffffffffffffffffffffffffffffffffffffffff16815250509050806000015181602001518260400151935093509350509193909250565b6000612bd385858585613e8e565b8015612be35750612be2613fdd565b5b8015612bf35750612bf26140b2565b5b1515612bfb57fe5b60019050949350505050565b6000806000612c146145ef565b600285815481101515612c2357fe5b90600052602060002001606060405190810160405290816000820160009054906101000a900460ff161515151581526020016000820160019054906101000a900460ff161515151581526020016000820160029054906101000a900460ff1660ff1660ff16815250509050806000015181602001518260400151935093509350509193909250565b600081600381815481101515612cbd57fe5b906000526020600020906003020160000160009054906101000a900473ffffffffffffffffffffffffffffffffffffffff1673ffffffffffffffffffffffffffffffffffffffff163373ffffffffffffffffffffffffffffffffffffffff161480612d935750600381815481101515612d3257fe5b906000526020600020906003020160010160009054906101000a900473ffffffffffffffffffffffffffffffffffffffff1673ffffffffffffffffffffffffffffffffffffffff163373ffffffffffffffffffffffffffffffffffffffff16145b80612e095750600381815481101515612da857fe5b906000526020600020906003020160020160009054906101000a900473ffffffffffffffffffffffffffffffffffffffff1673ffffffffffffffffffffffffffffffffffffffff163373ffffffffffffffffffffffffffffffffffffffff16145b1515612ea3576040517f08c379a00000000000000000000000000000000000000000000000000000000081526004018080602001828103825260338152602001807f54686973207472616e73616374696f6e206d7573742062652063616c6c65642081526020017f62792070726f6a6563742072656665726565210000000000000000000000000081525060400191505060405180910390fd5b6081600484815481101515612eb457fe5b906000526020600020906007020160040160006101000a81548160ff021916908360ff16021790555060816007600085815260200190815260200160002060040160006101000a81548160ff021916908360ff1602179055506001915050919050565b600481815481101515612f2657fe5b9060005260206000209060070201600091509050806000018054600181600116156101000203166002900480601f016020809104026020016040519081016040528092919081815260200182805460018160011615610100020316600290048015612fd25780601f10612fa757610100808354040283529160200191612fd2565b820191906000526020600020905b815481529060010190602001808311612fb557829003601f168201915b505050505090806001018054600181600116156101000203166002900480601f0160208091040260200160405190810160405280929190818152602001828054600181600116156101000203166002900480156130705780601f1061304557610100808354040283529160200191613070565b820191906000526020600020905b81548152906001019060200180831161305357829003601f168201915b5050505050908060020154908060030154908060040160009054906101000a900460ff16905085565b600060606000600a546004858154811015156130b157fe5b90600052602060002090600702016003015401421015156130d157600080fd5b6004848154811015156130e057fe5b906000526020600020906007020160050180548060200260200160405190810160405280929190818152602001828054801561317157602002820191906000526020600020905b8160009054906101000a900473ffffffffffffffffffffffffffffffffffffffff1673ffffffffffffffffffffffffffffffffffffffff1681526020019060010190808311613127575b50505050509150600090505b81518110156131e7573373ffffffffffffffffffffffffffffffffffffffff1682828151811015156131ab57fe5b9060200190602002015173ffffffffffffffffffffffffffffffffffffffff1614156131da5760009250613270565b808060010191505061317d565b6004848154811015156131f657fe5b90600052602060002090600702016005013390806001815401808255809150509060018203906000526020600020016000909192909190916101000a81548173ffffffffffffffffffffffffffffffffffffffff021916908373ffffffffffffffffffffffffffffffffffffffff16021790555050600192505b5050919050565b600060083390806001815401808255809150509060018203906000526020600020016000909192909190916101000a81548173ffffffffffffffffffffffffffffffffffffffff021916908373ffffffffffffffffffffffffffffffffffffffff160217905550506001905090565b600060606000600a546004858154811015156132fe57fe5b906000526020600020906007020160030154014210151561331e57600080fd5b60048481548110151561332d57fe5b90600052602060002090600702016006018054806020026020016040519081016040528092919081815260200182805480156133be57602002820191906000526020600020905b8160009054906101000a900473ffffffffffffffffffffffffffffffffffffffff1673ffffffffffffffffffffffffffffffffffffffff1681526020019060010190808311613374575b50505050509150600090505b8151811015613434573373ffffffffffffffffffffffffffffffffffffffff1682828151811015156133f857fe5b9060200190602002015173ffffffffffffffffffffffffffffffffffffffff16141561342757600092506134bd565b80806001019150506133ca565b60048481548110151561344357fe5b90600052602060002090600702016006013390806001815401808255809150509060018203906000526020600020016000909192909190916101000a81548173ffffffffffffffffffffffffffffffffffffffff021916908373ffffffffffffffffffffffffffffffffffffffff16021790555050600192505b5050919050565b6002818154811015156134d357fe5b906000526020600020016000915090508060000160009054906101000a900460ff16908060000160019054906101000a900460ff16908060000160029054906101000a900460ff16905083565b60038181548110151561352f57fe5b90600052602060002090600302016000915090508060000160009054906101000a900473ffffffffffffffffffffffffffffffffffffffff16908060010160009054906101000a900473ffffffffffffffffffffffffffffffffffffffff16908060020160009054906101000a900473ffffffffffffffffffffffffffffffffffffffff16905083565b60008060006008805490509150600090505b60088054905081101561365a573373ffffffffffffffffffffffffffffffffffffffff166008828154811015156135fe57fe5b9060005260206000200160009054906101000a900473ffffffffffffffffffffffffffffffffffffffff1673ffffffffffffffffffffffffffffffffffffffff16141561364d5780915061365a565b80806001019150506135cb565b600860016008805490500381548110151561367157fe5b9060005260206000200160009054906101000a900473ffffffffffffffffffffffffffffffffffffffff166008838154811015156136ab57fe5b9060005260206000200160006101000a81548173ffffffffffffffffffffffffffffffffffffffff021916908373ffffffffffffffffffffffffffffffffffffffff1602179055506008805480919060019003613708919061467c565b5060009250505090565b6000600180549050905090565b6060806000806000806137306145a2565b60018881548110151561373f57fe5b906000526020600020906006020160c06040519081016040529081600082018054600181600116156101000203166002900480601f0160208091040260200160405190810160405280929190818152602001828054600181600116156101000203166002900480156137f25780601f106137c7576101008083540402835291602001916137f2565b820191906000526020600020905b8154815290600101906020018083116137d557829003601f168201915b50505050508152602001600182018054600181600116156101000203166002900480601f0160208091040260200160405190810160405280929190818152602001828054600181600116156101000203166002900480156138945780601f1061386957610100808354040283529160200191613894565b820191906000526020600020905b81548152906001019060200180831161387757829003601f168201915b505050505081526020016002820160009054906101000a900473ffffffffffffffffffffffffffffffffffffffff1673ffffffffffffffffffffffffffffffffffffffff1673ffffffffffffffffffffffffffffffffffffffff16815260200160038201548152602001600482015481526020016005820154815250509050806000015181602001518260400151836060015184608001518560a001518595508494509650965096509650965096505091939550919395565b600080600061395a614457565b60009250600091506081816080015160ff16141561397b5760009350613e86565b6080816080015160ff1614156139945760019350613e86565b6004858154811015156139a357fe5b906000526020600020906007020160e06040519081016040529081600082018054600181600116156101000203166002900480601f016020809104026020016040519081016040528092919081815260200182805460018160011615610100020316600290048015613a565780601f10613a2b57610100808354040283529160200191613a56565b820191906000526020600020905b815481529060010190602001808311613a3957829003601f168201915b50505050508152602001600182018054600181600116156101000203166002900480601f016020809104026020016040519081016040528092919081815260200182805460018160011615610100020316600290048015613af85780601f10613acd57610100808354040283529160200191613af8565b820191906000526020600020905b815481529060010190602001808311613adb57829003601f168201915b5050505050815260200160028201548152602001600382015481526020016004820160009054906101000a900460ff1660ff1660ff16815260200160058201805480602002602001604051908101604052809291908181526020018280548015613bb757602002820191906000526020600020905b8160009054906101000a900473ffffffffffffffffffffffffffffffffffffffff1673ffffffffffffffffffffffffffffffffffffffff1681526020019060010190808311613b6d575b5050505050815260200160068201805480602002602001604051908101604052809291908181526020018280548015613c4557602002820191906000526020600020905b8160009054906101000a900473ffffffffffffffffffffffffffffffffffffffff1673ffffffffffffffffffffffffffffffffffffffff1681526020019060010190808311613bfb575b505050505081525050905060016040826080015160ff16811515613c6557fe5b0460ff161415613c9b5760408160800181815160ff16811515613c8457fe5b0691509060ff16908160ff16815250506001830192505b60016020826080015160ff16811515613cb057fe5b0460ff161415613ce65760208160800181815160ff16811515613ccf57fe5b0691509060ff16908160ff16815250506001830192505b60016010826080015160ff16811515613cfb57fe5b0460ff161415613d315760108160800181815160ff16811515613d1a57fe5b0691509060ff16908160ff16815250506001830192505b600283101515613d445760019350613e86565b60016008826080015160ff16811515613d5957fe5b0460ff161415613d8f5760088160800181815160ff16811515613d7857fe5b0691509060ff16908160ff16815250506001820191505b60016004826080015160ff16811515613da457fe5b0460ff161415613dda5760048160800181815160ff16811515613dc357fe5b0691509060ff16908160ff16815250506001820191505b60016002826080015160ff16811515613def57fe5b0460ff161415613e255760028160800181815160ff16811515613e0e57fe5b0691509060ff16908160ff16815250506001820191505b600282101515613e385760009350613e86565b81831115613e57578060c0015151600a8260a001515101119350613e86565b82821015613e73578060c00151518160a0015151119350613e86565b8060c001515160058260a0015151011193505b505050919050565b6000613e986145a2565b858160000181905250848160200181905250838160600181815250508281608001818152505033816040019073ffffffffffffffffffffffffffffffffffffffff16908173ffffffffffffffffffffffffffffffffffffffff1681525050348160a0018181525050600181908060018154018082558091505090600182039060005260206000209060060201600090919290919091506000820151816000019080519060200190613f4a929190614498565b506020820151816001019080519060200190613f67929190614498565b5060408201518160020160006101000a81548173ffffffffffffffffffffffffffffffffffffffff021916908373ffffffffffffffffffffffffffffffffffffffff160217905550606082015181600301556080820151816004015560a082015181600501555050506001915050949350505050565b6000613fe76145ef565b600181600001901515908115158152505060018160200190151590811515815250506000816040019060ff16908160ff168152505060028190806001815401808255809150509060018203906000526020600020016000909192909190915060008201518160000160006101000a81548160ff02191690831515021790555060208201518160000160016101000a81548160ff02191690831515021790555060408201518160000160026101000a81548160ff021916908360ff160217905550505050600191505090565b60006140bc614618565b60006140c6614356565b90506008818154811015156140d757fe5b9060005260206000200160009054906101000a900473ffffffffffffffffffffffffffffffffffffffff16826000019073ffffffffffffffffffffffffffffffffffffffff16908173ffffffffffffffffffffffffffffffffffffffff16815250506008805490506001820181151561414c57fe5b06905060088181548110151561415e57fe5b9060005260206000200160009054906101000a900473ffffffffffffffffffffffffffffffffffffffff16826020019073ffffffffffffffffffffffffffffffffffffffff16908173ffffffffffffffffffffffffffffffffffffffff1681525050600880549050600182018115156141d357fe5b0690506008818154811015156141e557fe5b9060005260206000200160009054906101000a900473ffffffffffffffffffffffffffffffffffffffff16826040019073ffffffffffffffffffffffffffffffffffffffff16908173ffffffffffffffffffffffffffffffffffffffff16815250506003829080600181540180825580915050906001820390600052602060002090600302016000909192909190915060008201518160000160006101000a81548173ffffffffffffffffffffffffffffffffffffffff021916908373ffffffffffffffffffffffffffffffffffffffff16021790555060208201518160010160006101000a81548173ffffffffffffffffffffffffffffffffffffffff021916908373ffffffffffffffffffffffffffffffffffffffff16021790555060408201518160020160006101000a81548173ffffffffffffffffffffffffffffffffffffffff021916908373ffffffffffffffffffffffffffffffffffffffff16021790555050505060019250505090565b6000806001805490504233600b54604051602001808481526020018373ffffffffffffffffffffffffffffffffffffffff1673ffffffffffffffffffffffffffffffffffffffff166c0100000000000000000000000002815260140182815260200193505050506040516020818303038152906040526040518082805190602001908083835b60208310151561440157805182526020820191506020810190506020830392506143dc565b6001836020036101000a03801982511681845116808217855250505050505090500191505060405180910390206001900481151561443b57fe5b069050600b600081548092919060010191905055508091505090565b60e06040519081016040528060608152602001606081526020016000815260200160008152602001600060ff16815260200160608152602001606081525090565b828054600181600116156101000203166002900490600052602060002090601f016020900481019282601f106144d957805160ff1916838001178555614507565b82800160010185558215614507579182015b828111156145065782518255916020019190600101906144eb565b5b50905061451491906146a8565b5090565b828054828255906000526020600020908101928215614591579160200282015b828111156145905782518260006101000a81548173ffffffffffffffffffffffffffffffffffffffff021916908373ffffffffffffffffffffffffffffffffffffffff16021790555091602001919060010190614538565b5b50905061459e91906146cd565b5090565b60c0604051908101604052806060815260200160608152602001600073ffffffffffffffffffffffffffffffffffffffff1681526020016000815260200160008152602001600081525090565b606060405190810160405280600015158152602001600015158152602001600060ff1681525090565b606060405190810160405280600073ffffffffffffffffffffffffffffffffffffffff168152602001600073ffffffffffffffffffffffffffffffffffffffff168152602001600073ffffffffffffffffffffffffffffffffffffffff1681525090565b8154818355818111156146a3578183600052602060002091820191016146a291906146a8565b5b505050565b6146ca91905b808211156146c65760008160009055506001016146ae565b5090565b90565b61470d91905b8082111561470957600081816101000a81549073ffffffffffffffffffffffffffffffffffffffff0219169055506001016146d3565b5090565b905600a165627a7a7230582001a3ee61833bc27e05511263d3fc3fe990ec2bca7e23e968fc3cf57c39d3a8200029",
  "source": "pragma solidity ^0.4.24;\n\ncontract DodoRepository {\n    address owner;\n    ProjectInfo[] public infos;\n    ProjectStatus[] public statuses;\n    ProjectReferees[] public referees;\n\n    Proof[] public proofs; \n    mapping(uint => uint[]) ppMap; // key: project index, value: proof indexes\n    mapping(address => uint[]) rpMap; // key: judge address, value: proof indexes\n\n    mapping(uint => Proof) claims; // key: proof index, value: claim\n\n    address[] public whiteList;\n    address[] public blackList; //    \n    uint period = 2 minutes;\n    uint nonce = 0;\n\n    struct ProjectInfo {\n        string name;\n        string description;\n        address participant;\n        uint startDate;\n        uint endDate;\n        uint freezeAmount;\n    }\n\n    struct ProjectStatus {\n        bool active; // \n        bool success; // \n        uint8 claimed;\n    }\n\n    struct ProjectReferees {\n        address referee1; \n        address referee2;\n        address referee3;\n    }\n\n    struct Proof {\n        string name;\n        string memo;\n        uint projectNo;\n        uint timestamp;\n        uint8 judged; // 0: , 1: , 2,4,8   16,32,64   48  ( 2/3  ), 128   , 129  \n        address[] like;\n        address[] dislike;\n    }\n\n    modifier onlyOwner() {\n        require(msg.sender == owner, \"This transaction must be called by owner!\");\n        _;\n    }\n\n    modifier onlyReferee(uint _index) {\n        require(\n            msg.sender == referees[_index].referee1 \n            || msg.sender == referees[_index].referee2\n            || msg.sender == referees[_index].referee3, \n            \"This transaction must be called by project referee!\"\n        ); \n        _;\n    }\n    \n    modifier onlyProjectOwner(uint _index) {\n        require(msg.sender == infos[_index].participant, \"This transaction must be called by project owner\");\n        _;\n    }\n\n    modifier onlyProjectOwner2(uint _index) {\n        require(msg.sender == infos[proofs[_index].projectNo].participant, \"This transaction must be called by project owner\");\n        _;\n    }\n\n    /**\n    * @dev Created a DodoRepository\n    */\n    constructor() public {\n        owner = 0xbf128F013F40ec7Fdfe95d0A298E85764f628e7F;\n        whiteList.push(0xbf128F013F40ec7Fdfe95d0A298E85764f628e7F);\n    }\n\n    function () external payable {\n        revert();\n    }   \n\n    /**\n    * @dev Create Project\n    * @param _name name of the Project\n    * @param _description description of the Project\n    * @param _startDate start timestamp\n    * @param _endDate end timestamp\n    * @return bool result of transaction\n    */\n    function createProject(string _name,\n                            string _description,\n                            uint _startDate,\n                            uint _endDate) public payable returns (bool) {\n        assert(createInfo(_name, _description, _startDate, _endDate)\n            && createStatus()\n            && createReferees());\n        return true;\n    }\n\n    /**\n    * @dev Finalize Project\n    * @param _index Index of the Project \n    * @return bool result of transaction\n    */\n    function finalizeProject(uint _index) public payable returns (bool) {\n        ProjectInfo memory info = infos[_index];\n        ProjectStatus memory status = statuses[_index];\n        require(now >= info.endDate + period * (status.claimed + 1),\n            \"This transaction must be fired after claim date finished!\");\n        uint successCount = 0;\n        for(uint i = 0; i < ppMap[_index].length; i++) {\n            if(calculateProof(ppMap[_index][i])) successCount += 1;\n        }\n        status.success = successCount * 10 >= (info.endDate - info.startDate) * 8 / 1 minutes;\n        status.active = false;\n        statuses[_index] = status;\n        if (status.success) {\n            info.participant.transfer(info.freezeAmount);\n        } else {\n            owner.transfer(info.freezeAmount);\n        }\n        return true;\n    }\n\n    /**\n    * @dev Submit Proof\n    * @param _index Index of the Proof \n    * @param name name of the proof\n    * @param memo description of the proof\n    * @return bool result of transaction\n    */\n    function submitProof(uint _index, string name, string memo) public onlyProjectOwner(_index) returns (bool) {\n        Proof memory newProof;\n        newProof.name = name;\n        newProof.memo = memo;\n        newProof.timestamp = now;\n        newProof.judged = 1;\n        newProof.projectNo = _index;\n        proofs.push(newProof);\n        ppMap[_index].push(proofs.length - 1);\n        rpMap[referees[_index].referee1].push(proofs.length - 1);\n        rpMap[referees[_index].referee2].push(proofs.length - 1);\n        rpMap[referees[_index].referee3].push(proofs.length - 1);\n\n        return true;\n    }\n\n    /**\n    * @dev Claim Judge\n    * @param _index Index of the Project\n    * @param name name of the proof\n    * @param memo description of the proof \n    * @return bool result of transaction\n    */\n    function claimJudge(uint _index, string name, string memo) public onlyProjectOwner2(_index) returns (bool) {\n        Proof memory newProof;\n        newProof.name = name;\n        newProof.memo = memo;\n        newProof.timestamp = now;\n        newProof.judged = 0;\n        claims[_index] = newProof;\n        proofs[_index].judged = 0;\n        \n        statuses[proofs[_index].projectNo].claimed += 1;\n\n        return true;\n    }\n\n    /**\n    * @dev Claim Approve\n    * @param _index Index of the Project \n    * @return bool result of transaction\n    */\n    function claimApprove(uint _index) public onlyReferee(_index) returns (bool) {\n        proofs[_index].judged = 128;\n        claims[_index].judged = 128;\n        return true;\n    }\n\n    /**\n    * @dev Claim Decline\n    * @param _index Index of the Project \n    * @return bool result of transaction\n    */\n    function claimDecline(uint _index) public onlyReferee(_index) returns (bool) {\n        proofs[_index].judged = 129;\n        claims[_index].judged = 129;\n        return true;\n    }\n\n    /**\n    * @dev Apply Referee\n    * @return bool result of transaction\n    */\n    function applyReferee() public returns (bool) {\n        whiteList.push(msg.sender);\n        return true;\n    }\n\n    /**\n    * @dev Cancel Referee\n    * @return bool result of transaction\n    */\n    function cancelReferee() public returns (bool) {\n        uint index = whiteList.length;\n        for (uint i = 0; i < whiteList.length; i++) {\n            if (whiteList[i] == msg.sender) {\n                index = i;\n                break;\n            }\n        }\n        whiteList[index] = whiteList[whiteList.length - 1];\n        whiteList.length--;\n        return false;\n    }\n\n    function likeProof(uint _index) public returns (bool) {\n        require(now < proofs[_index].timestamp + period);\n        address[] memory arr = proofs[_index].like;\n        for (uint i = 0; i < arr.length; i++) {\n            if (arr[i] == msg.sender) {\n                return false;\n            }\n        }\n        proofs[_index].like.push(msg.sender);\n        return true;\n    }\n\n    function dislikeProof(uint _index) public returns (bool) {\n        require(now < proofs[_index].timestamp + period);\n        address[] memory arr = proofs[_index].dislike;\n        for (uint i = 0; i < arr.length; i++) {\n            if (arr[i] == msg.sender) {\n                return false;\n            }\n        }\n        proofs[_index].dislike.push(msg.sender);\n        return true;\n    }\n\n    /**\n    * @dev Get Referee List\n    * @return address represents the referee list of Projects\n    */\n    function getWhiteList() public view returns (address[]) {\n        return whiteList;\n    }\n\n    /**\n    * @dev Get Project Counts\n    * @return uint256 represents the number of Projects\n    */\n    function getProjectCounts() public view returns (uint) {\n        return infos.length;\n    }\n\n    /**\n    * @dev Get Project Info by Index\n    * @param _index Index of the Project \n    * @return Project represents the Project\n    */\n    function getProjectInfo(uint _index) public view returns (string name,\n                                                        string description,\n                                                        address participant,\n                                                        uint startDate,\n                                                        uint endDate,\n                                                        uint freeAmount) {\n        ProjectInfo memory project = infos[_index];\n        return (\n            project.name, project.description, project.participant,\n            project.startDate, project.endDate, project.freezeAmount\n        );\n    }\n\n    /**\n    * @dev Get Project Status by Index\n    * @param _index Index of the Project \n    * @return Project represents the Project\n    */\n    function getProjectStatus(uint _index) public view returns (bool active, // \n                                                        bool success, // \n                                                        uint8 claimed) {\n        ProjectStatus memory project = statuses[_index];\n        return (project.active, project.success, project.claimed);\n    }\n\n    /**\n    * @dev Get Project Referees by Index\n    * @param _index Index of the Project \n    * @return Project represents the Project\n    */\n    function getProjectReferees(uint _index) public view returns (address, \n                                                        address,\n                                                        address) {\n        ProjectReferees memory project = referees[_index];\n        return (project.referee1, project.referee2, project.referee3);\n    }\n\n    /**\n    * @dev Get My Project Counts\n    * @param _address address \n    * @return uint represents the number of my Projects\n    */\n    function getMyProjectCounts(address _address) public view returns (uint) {\n        uint result = 0;\n        for (uint i = 0; i < infos.length; i++) {\n            if (infos[i].participant == _address) {\n                result++;\n            }\n        }\n        return result;\n    }\n\n    /**\n    * @dev Get My Index\n    * @param _address address \n    * @param _index index of 0..<number of my Projects\n    * @return uint represents the index of my Projects\n    */\n    function getMyProjectIndex(address _address, uint _index) public view returns (uint) {\n        for (uint i = 0; i < infos.length; i++) {\n            if (infos[i].participant == _address) {\n                if (_index == 0) {\n                    return i;\n                }\n                _index--;\n            }\n        }\n        return 0;\n    }\n\n    /**\n    * @dev Get Proof Count\n    * @param _index index of 0..<number of my Projects\n    * @return uint represents the count of my Projects Proof\n    */\n    function getProofsCount(uint _index) public view returns (uint) {\n        return ppMap[_index].length;\n    }\n\n    /**\n    * @dev Get Proof\n    * @param _index index of proof \n    * @return proof information\n    */\n    function getProof(uint _index) public view returns (string name,\n        string memo,\n        uint projectNo,\n        uint timestamp,\n        uint8 judged,\n        address[] like,\n        address[] dislike) {\n        return (\n            proofs[_index].name,\n            proofs[_index].memo,\n            proofs[_index].projectNo,\n            proofs[_index].timestamp,\n            proofs[_index].judged,\n            proofs[_index].like,\n            proofs[_index].dislike\n        );\n    }\n\n    /**\n    * @dev Get Claim\n    * @param _index project index  \n    * @return claim information\n    */\n    function getClaim(uint _index) public view returns (string name,\n                                                        string memo,\n                                                        uint timestamp,\n                                                        uint8 judged) {\n        Proof memory claim = claims[_index];\n        return (\n            claim.name,\n            claim.memo,\n            claim.timestamp,\n            claim.judged\n        );\n    }\n\n    function random() internal returns (uint) {\n        uint randomnumber = uint(keccak256(abi.encodePacked(now, msg.sender, nonce))) % infos.length;\n        nonce++;\n        return randomnumber;\n    }\n\n    function createInfo(string _name,\n                            string _description,\n                            uint _startDate,\n                            uint _endDate) internal returns (bool) {\n        ProjectInfo memory newProject;\n        newProject.name = _name;\n        newProject.description = _description;\n        newProject.startDate = _startDate;\n        newProject.endDate = _endDate;\n        newProject.participant = msg.sender;\n        newProject.freezeAmount = msg.value;\n        infos.push(newProject);\n        return true;\n    }\n\n    function createStatus() internal returns (bool) {\n        ProjectStatus memory newProject;\n        newProject.active = true;\n        newProject.success = true;\n        newProject.claimed = 0;\n        statuses.push(newProject);\n        return true;\n    }\n\n    function createReferees() internal returns (bool) {\n        ProjectReferees memory newProject;\n        uint randNum = random();\n        newProject.referee1 = whiteList[randNum];\n        randNum = (randNum + 1) % whiteList.length;\n        newProject.referee2 = whiteList[randNum];\n        randNum = (randNum + 1) % whiteList.length;\n        newProject.referee3 = whiteList[randNum];\n        referees.push(newProject);\n        return true;\n    }\n\n    function calculateProof(uint _index) internal returns (bool) {\n        uint successCount = 0;\n        uint failCount = 0;\n\n        if(proof.judged == 129) {\n            return false;\n        }\n\n        if(proof.judged == 128) {\n            return true;\n        }\n\n        Proof memory proof = proofs[_index];\n        if(proof.judged / 64 == 1) {\n            proof.judged %= 64;\n            successCount += 1;\n        }\n        if(proof.judged / 32 == 1) {\n            proof.judged %= 32;\n            successCount += 1;\n        }\n        if(proof.judged / 16 == 1) {\n            proof.judged %= 16;\n            successCount += 1;\n        }\n        if(successCount >= 2) return true;\n\n        if(proof.judged / 8 == 1) {\n            proof.judged %= 8;\n            failCount += 1;\n        }\n        if(proof.judged / 4 == 1) {\n            proof.judged %= 4;\n            failCount += 1;\n        }\n        if(proof.judged / 2 == 1) {\n            proof.judged %= 2;\n            failCount += 1;\n        }\n        if(failCount >= 2) return false;\n\n        if(successCount > failCount) {\n            return proof.like.length + 10 > proof.dislike.length;\n        } else if(failCount < successCount) {\n            return proof.like.length > proof.dislike.length;\n        } else {\n            return proof.like.length + 5 > proof.dislike.length;\n        }\n    }\n}\n",
  "sourcePath": "/Users/currybab/codingcoding/dodo-klaytn/contracts/DodoRepository.sol",
  "compiler": {
    "name": "solc",
    "version": "0.4.25+commit.59dbf8f1.Emscripten.clang"
  },
  "schemaVersion": "2.0.2",
  "updatedAt": "2019-05-21T03:05:17.646Z"
}