{
  "contractName": "DodoRepository",
  "abi": [
    {
      "constant": true,
      "inputs": [
        {
          "name": "",
          "type": "uint256"
        }
      ],
      "name": "infos",
      "outputs": [
        {
          "name": "name",
          "type": "string"
        },
        {
          "name": "description",
          "type": "string"
        },
        {
          "name": "participant",
          "type": "address"
        },
        {
          "name": "startDate",
          "type": "uint256"
        },
        {
          "name": "endDate",
          "type": "uint256"
        },
        {
          "name": "freezeAmount",
          "type": "uint256"
        }
      ],
      "payable": false,
      "stateMutability": "view",
      "type": "function"
    },
    {
      "constant": true,
      "inputs": [
        {
          "name": "",
          "type": "uint256"
        }
      ],
      "name": "whiteList",
      "outputs": [
        {
          "name": "",
          "type": "address"
        }
      ],
      "payable": false,
      "stateMutability": "view",
      "type": "function"
    },
    {
      "constant": true,
      "inputs": [
        {
          "name": "",
          "type": "uint256"
        }
      ],
      "name": "blackList",
      "outputs": [
        {
          "name": "",
          "type": "address"
        }
      ],
      "payable": false,
      "stateMutability": "view",
      "type": "function"
    },
    {
      "constant": true,
      "inputs": [
        {
          "name": "",
          "type": "uint256"
        }
      ],
      "name": "proofs",
      "outputs": [
        {
          "name": "name",
          "type": "string"
        },
        {
          "name": "memo",
          "type": "string"
        },
        {
          "name": "projectNo",
          "type": "uint256"
        },
        {
          "name": "timestamp",
          "type": "uint256"
        },
        {
          "name": "judged",
          "type": "uint8"
        }
      ],
      "payable": false,
      "stateMutability": "view",
      "type": "function"
    },
    {
      "constant": true,
      "inputs": [
        {
          "name": "",
          "type": "uint256"
        }
      ],
      "name": "statuses",
      "outputs": [
        {
          "name": "active",
          "type": "bool"
        },
        {
          "name": "success",
          "type": "bool"
        },
        {
          "name": "claimed",
          "type": "uint8"
        }
      ],
      "payable": false,
      "stateMutability": "view",
      "type": "function"
    },
    {
      "constant": true,
      "inputs": [
        {
          "name": "",
          "type": "uint256"
        }
      ],
      "name": "referees",
      "outputs": [
        {
          "name": "referee1",
          "type": "address"
        },
        {
          "name": "referee2",
          "type": "address"
        },
        {
          "name": "referee3",
          "type": "address"
        }
      ],
      "payable": false,
      "stateMutability": "view",
      "type": "function"
    },
    {
      "inputs": [],
      "payable": false,
      "stateMutability": "nonpayable",
      "type": "constructor"
    },
    {
      "payable": true,
      "stateMutability": "payable",
      "type": "fallback"
    },
    {
      "constant": false,
      "inputs": [
        {
          "name": "_name",
          "type": "string"
        },
        {
          "name": "_description",
          "type": "string"
        },
        {
          "name": "_startDate",
          "type": "uint256"
        },
        {
          "name": "_endDate",
          "type": "uint256"
        }
      ],
      "name": "createProject",
      "outputs": [
        {
          "name": "",
          "type": "bool"
        }
      ],
      "payable": true,
      "stateMutability": "payable",
      "type": "function"
    },
    {
      "constant": false,
      "inputs": [
        {
          "name": "_index",
          "type": "uint256"
        }
      ],
      "name": "finalizeProject",
      "outputs": [
        {
          "name": "",
          "type": "bool"
        }
      ],
      "payable": true,
      "stateMutability": "payable",
      "type": "function"
    },
    {
      "constant": false,
      "inputs": [
        {
          "name": "_index",
          "type": "uint256"
        },
        {
          "name": "name",
          "type": "string"
        },
        {
          "name": "memo",
          "type": "string"
        }
      ],
      "name": "submitProof",
      "outputs": [
        {
          "name": "",
          "type": "bool"
        }
      ],
      "payable": false,
      "stateMutability": "nonpayable",
      "type": "function"
    },
    {
      "constant": false,
      "inputs": [
        {
          "name": "_index",
          "type": "uint256"
        },
        {
          "name": "name",
          "type": "string"
        },
        {
          "name": "memo",
          "type": "string"
        }
      ],
      "name": "claimJudge",
      "outputs": [
        {
          "name": "",
          "type": "bool"
        }
      ],
      "payable": false,
      "stateMutability": "nonpayable",
      "type": "function"
    },
    {
      "constant": false,
      "inputs": [
        {
          "name": "_index",
          "type": "uint256"
        }
      ],
      "name": "claimApprove",
      "outputs": [
        {
          "name": "",
          "type": "bool"
        }
      ],
      "payable": false,
      "stateMutability": "nonpayable",
      "type": "function"
    },
    {
      "constant": false,
      "inputs": [
        {
          "name": "_index",
          "type": "uint256"
        }
      ],
      "name": "claimDecline",
      "outputs": [
        {
          "name": "",
          "type": "bool"
        }
      ],
      "payable": false,
      "stateMutability": "nonpayable",
      "type": "function"
    },
    {
      "constant": false,
      "inputs": [],
      "name": "applyReferee",
      "outputs": [
        {
          "name": "",
          "type": "bool"
        }
      ],
      "payable": false,
      "stateMutability": "nonpayable",
      "type": "function"
    },
    {
      "constant": false,
      "inputs": [],
      "name": "cancelReferee",
      "outputs": [
        {
          "name": "",
          "type": "bool"
        }
      ],
      "payable": false,
      "stateMutability": "nonpayable",
      "type": "function"
    },
    {
      "constant": false,
      "inputs": [
        {
          "name": "_index",
          "type": "uint256"
        }
      ],
      "name": "likeProof",
      "outputs": [
        {
          "name": "",
          "type": "bool"
        }
      ],
      "payable": false,
      "stateMutability": "nonpayable",
      "type": "function"
    },
    {
      "constant": false,
      "inputs": [
        {
          "name": "_index",
          "type": "uint256"
        }
      ],
      "name": "dislikeProof",
      "outputs": [
        {
          "name": "",
          "type": "bool"
        }
      ],
      "payable": false,
      "stateMutability": "nonpayable",
      "type": "function"
    },
    {
      "constant": true,
      "inputs": [],
      "name": "getWhiteList",
      "outputs": [
        {
          "name": "",
          "type": "address[]"
        }
      ],
      "payable": false,
      "stateMutability": "view",
      "type": "function"
    },
    {
      "constant": true,
      "inputs": [],
      "name": "getProjectCounts",
      "outputs": [
        {
          "name": "",
          "type": "uint256"
        }
      ],
      "payable": false,
      "stateMutability": "view",
      "type": "function"
    },
    {
      "constant": true,
      "inputs": [
        {
          "name": "_index",
          "type": "uint256"
        }
      ],
      "name": "getProjectInfo",
      "outputs": [
        {
          "name": "name",
          "type": "string"
        },
        {
          "name": "description",
          "type": "string"
        },
        {
          "name": "participant",
          "type": "address"
        },
        {
          "name": "startDate",
          "type": "uint256"
        },
        {
          "name": "endDate",
          "type": "uint256"
        },
        {
          "name": "freeAmount",
          "type": "uint256"
        }
      ],
      "payable": false,
      "stateMutability": "view",
      "type": "function"
    },
    {
      "constant": true,
      "inputs": [
        {
          "name": "_index",
          "type": "uint256"
        }
      ],
      "name": "getProjectStatus",
      "outputs": [
        {
          "name": "active",
          "type": "bool"
        },
        {
          "name": "success",
          "type": "bool"
        },
        {
          "name": "claimed",
          "type": "uint8"
        }
      ],
      "payable": false,
      "stateMutability": "view",
      "type": "function"
    },
    {
      "constant": true,
      "inputs": [
        {
          "name": "_index",
          "type": "uint256"
        }
      ],
      "name": "getProjectReferees",
      "outputs": [
        {
          "name": "",
          "type": "address"
        },
        {
          "name": "",
          "type": "address"
        },
        {
          "name": "",
          "type": "address"
        }
      ],
      "payable": false,
      "stateMutability": "view",
      "type": "function"
    },
    {
      "constant": true,
      "inputs": [
        {
          "name": "_address",
          "type": "address"
        }
      ],
      "name": "getMyProjectList",
      "outputs": [
        {
          "name": "list",
          "type": "uint256[]"
        }
      ],
      "payable": false,
      "stateMutability": "view",
      "type": "function"
    },
    {
      "constant": true,
      "inputs": [],
      "name": "getAllProofsCount",
      "outputs": [
        {
          "name": "",
          "type": "uint256"
        }
      ],
      "payable": false,
      "stateMutability": "view",
      "type": "function"
    },
    {
      "constant": true,
      "inputs": [
        {
          "name": "_index",
          "type": "uint256"
        }
      ],
      "name": "getProofsCount",
      "outputs": [
        {
          "name": "",
          "type": "uint256"
        }
      ],
      "payable": false,
      "stateMutability": "view",
      "type": "function"
    },
    {
      "constant": true,
      "inputs": [
        {
          "name": "_index",
          "type": "uint256"
        }
      ],
      "name": "getProof",
      "outputs": [
        {
          "name": "name",
          "type": "string"
        },
        {
          "name": "memo",
          "type": "string"
        },
        {
          "name": "projectNo",
          "type": "uint256"
        },
        {
          "name": "timestamp",
          "type": "uint256"
        },
        {
          "name": "judged",
          "type": "uint8"
        },
        {
          "name": "like",
          "type": "address[]"
        },
        {
          "name": "dislike",
          "type": "address[]"
        }
      ],
      "payable": false,
      "stateMutability": "view",
      "type": "function"
    },
    {
      "constant": true,
      "inputs": [
        {
          "name": "_index",
          "type": "uint256"
        }
      ],
      "name": "getProofList",
      "outputs": [
        {
          "name": "list",
          "type": "uint256[]"
        }
      ],
      "payable": false,
      "stateMutability": "view",
      "type": "function"
    },
    {
      "constant": true,
      "inputs": [
        {
          "name": "_address",
          "type": "address"
        }
      ],
      "name": "getJudgeList",
      "outputs": [
        {
          "name": "list",
          "type": "uint256[]"
        }
      ],
      "payable": false,
      "stateMutability": "view",
      "type": "function"
    },
    {
      "constant": true,
      "inputs": [
        {
          "name": "_address",
          "type": "address"
        }
      ],
      "name": "getParticipantProofList",
      "outputs": [
        {
          "name": "list",
          "type": "uint256[]"
        }
      ],
      "payable": false,
      "stateMutability": "view",
      "type": "function"
    },
    {
      "constant": true,
      "inputs": [
        {
          "name": "_index",
          "type": "uint256"
        }
      ],
      "name": "getClaim",
      "outputs": [
        {
          "name": "name",
          "type": "string"
        },
        {
          "name": "memo",
          "type": "string"
        },
        {
          "name": "timestamp",
          "type": "uint256"
        },
        {
          "name": "judged",
          "type": "uint8"
        }
      ],
      "payable": false,
      "stateMutability": "view",
      "type": "function"
    }
  ],
  "bytecode": "0x60806040526202a300600c556000600d5534801561001c57600080fd5b5073bf128f013f40ec7fdfe95d0a298e85764f628e7f6000806101000a81548173ffffffffffffffffffffffffffffffffffffffff021916908373ffffffffffffffffffffffffffffffffffffffff160217905550600a73bf128f013f40ec7fdfe95d0a298e85764f628e7f90806001815401808255809150509060018203906000526020600020016000909192909190916101000a81548173ffffffffffffffffffffffffffffffffffffffff021916908373ffffffffffffffffffffffffffffffffffffffff16021790555050600a73d8598fb4281457f6c3c0e66f1aae1f719d4f043290806001815401808255809150509060018203906000526020600020016000909192909190916101000a81548173ffffffffffffffffffffffffffffffffffffffff021916908373ffffffffffffffffffffffffffffffffffffffff16021790555050600a73e64829ebbffa77b5d1b668fbf7e4cfb36ad3324590806001815401808255809150509060018203906000526020600020016000909192909190916101000a81548173ffffffffffffffffffffffffffffffffffffffff021916908373ffffffffffffffffffffffffffffffffffffffff160217905550506152f9806101ee6000396000f300608060405260043610610175576000357c0100000000000000000000000000000000000000000000000000000000900463ffffffff16806307f4f2841461017a57806309a9d76c1461024b57806311149ada146102b757806328de3c9b146104745780632ee6f708146105ce5780633a0f45bb146106665780634d1d5534146107375780634d798de5146107b957806353ab1128146107f15780635aef2447146108325780635c475d4214610958578063709ec8b4146109c55780637952ce5114610a325780638dc039b414610a7757806394ba970914610b4a5780639675c00914610c18578063973a714f14610c7557806397842aa014610cba5780639ddaf5aa14610d52578063a3a8b0cb14610e7f578063b3219bfa14610ec4578063b780aa7d14610ef3578063d820951314610f8b578063d96f726214610fb6578063e67b932c14610ffb578063edb5ae8a14611058578063eef60e0c1461112b578063f60981be1461115a578063fabf596814611185575b600080fd5b34801561018657600080fd5b5061023160048036038101908080359060200190929190803590602001908201803590602001908080601f0160208091040260200160405190810160405280939291908181526020018383808284378201915050505050509192919290803590602001908201803590602001908080601f01602080910402602001604051908101604052809392919081815260200183838082843782019150505050505091929192905050506112df565b604051808215151515815260200191505060405180910390f35b34801561025757600080fd5b506102606117dc565b6040518080602001828103825283818151815260200191508051906020019060200280838360005b838110156102a3578082015181840152602081019050610288565b505050509050019250505060405180910390f35b3480156102c357600080fd5b506102e26004803603810190808035906020019092919050505061186a565b6040518080602001806020018881526020018781526020018660ff1660ff168152602001806020018060200185810385528c818151815260200191508051906020019080838360005b8381101561034657808201518184015260208101905061032b565b50505050905090810190601f1680156103735780820380516001836020036101000a031916815260200191505b5085810384528b818151815260200191508051906020019080838360005b838110156103ac578082015181840152602081019050610391565b50505050905090810190601f1680156103d95780820380516001836020036101000a031916815260200191505b50858103835287818151815260200191508051906020019060200280838360005b838110156104155780820151818401526020810190506103fa565b50505050905001858103825286818151815260200191508051906020019060200280838360005b8381101561045757808201518184015260208101905061043c565b505050509050019b50505050505050505050505060405180910390f35b34801561048057600080fd5b5061049f60048036038101908080359060200190929190505050611bc6565b6040518080602001806020018773ffffffffffffffffffffffffffffffffffffffff1673ffffffffffffffffffffffffffffffffffffffff168152602001868152602001858152602001848152602001838103835289818151815260200191508051906020019080838360005b8381101561052757808201518184015260208101905061050c565b50505050905090810190601f1680156105545780820380516001836020036101000a031916815260200191505b50838103825288818151815260200191508051906020019080838360005b8381101561058d578082015181840152602081019050610572565b50505050905090810190601f1680156105ba5780820380516001836020036101000a031916815260200191505b509850505050505050505060405180910390f35b3480156105da57600080fd5b5061060f600480360381019080803573ffffffffffffffffffffffffffffffffffffffff169060200190929190505050611d61565b6040518080602001828103825283818151815260200191508051906020019060200280838360005b83811015610652578082015181840152602081019050610637565b505050509050019250505060405180910390f35b34801561067257600080fd5b5061071d60048036038101908080359060200190929190803590602001908201803590602001908080601f0160208091040260200160405190810160405280939291908181526020018383808284378201915050505050509192919290803590602001908201803590602001908080601f0160208091040260200160405190810160405280939291908181526020018383808284378201915050505050509192919290505050611df8565b604051808215151515815260200191505060405180910390f35b34801561074357600080fd5b50610762600480360381019080803590602001909291905050506120ca565b6040518080602001828103825283818151815260200191508051906020019060200280838360005b838110156107a557808201518184015260208101905061078a565b505050509050019250505060405180910390f35b6107d760048036038101908080359060200190929190505050612135565b604051808215151515815260200191505060405180910390f35b3480156107fd57600080fd5b5061081c60048036038101908080359060200190929190505050612664565b6040518082815260200191505060405180910390f35b34801561083e57600080fd5b5061085d60048036038101908080359060200190929190505050612684565b6040518080602001806020018581526020018460ff1660ff168152602001838103835287818151815260200191508051906020019080838360005b838110156108b3578082015181840152602081019050610898565b50505050905090810190601f1680156108e05780820380516001836020036101000a031916815260200191505b50838103825286818151815260200191508051906020019080838360005b838110156109195780820151818401526020810190506108fe565b50505050905090810190601f1680156109465780820380516001836020036101000a031916815260200191505b50965050505050505060405180910390f35b34801561096457600080fd5b506109836004803603810190808035906020019092919050505061296e565b604051808273ffffffffffffffffffffffffffffffffffffffff1673ffffffffffffffffffffffffffffffffffffffff16815260200191505060405180910390f35b3480156109d157600080fd5b506109f0600480360381019080803590602001909291905050506129ac565b604051808273ffffffffffffffffffffffffffffffffffffffff1673ffffffffffffffffffffffffffffffffffffffff16815260200191505060405180910390f35b348015610a3e57600080fd5b50610a5d600480360381019080803590602001909291905050506129ea565b604051808215151515815260200191505060405180910390f35b348015610a8357600080fd5b50610aa260048036038101908080359060200190929190505050612c56565b604051808473ffffffffffffffffffffffffffffffffffffffff1673ffffffffffffffffffffffffffffffffffffffff1681526020018373ffffffffffffffffffffffffffffffffffffffff1673ffffffffffffffffffffffffffffffffffffffff1681526020018273ffffffffffffffffffffffffffffffffffffffff1673ffffffffffffffffffffffffffffffffffffffff168152602001935050505060405180910390f35b610bfe600480360381019080803590602001908201803590602001908080601f0160208091040260200160405190810160405280939291908181526020018383808284378201915050505050509192919290803590602001908201803590602001908080601f01602080910402602001604051908101604052809392919081815260200183838082843782019150505050505091929192908035906020019092919080359060200190929190505050612dad565b604051808215151515815260200191505060405180910390f35b348015610c2457600080fd5b50610c4360048036038101908080359060200190929190505050612e5f565b6040518084151515158152602001831515151581526020018260ff1660ff168152602001935050505060405180910390f35b348015610c8157600080fd5b50610ca060048036038101908080359060200190929190505050612f03565b604051808215151515815260200191505060405180910390f35b348015610cc657600080fd5b50610cfb600480360381019080803573ffffffffffffffffffffffffffffffffffffffff16906020019092919050505061316f565b6040518080602001828103825283818151815260200191508051906020019060200280838360005b83811015610d3e578082015181840152602081019050610d23565b505050509050019250505060405180910390f35b348015610d5e57600080fd5b50610d7d60048036038101908080359060200190929190505050613206565b6040518080602001806020018681526020018581526020018460ff1660ff168152602001838103835288818151815260200191508051906020019080838360005b83811015610dd9578082015181840152602081019050610dbe565b50505050905090810190601f168015610e065780820380516001836020036101000a031916815260200191505b50838103825287818151815260200191508051906020019080838360005b83811015610e3f578082015181840152602081019050610e24565b50505050905090810190601f168015610e6c5780820380516001836020036101000a031916815260200191505b5097505050505050505060405180910390f35b348015610e8b57600080fd5b50610eaa60048036038101908080359060200190929190505050613388565b604051808215151515815260200191505060405180910390f35b348015610ed057600080fd5b50610ed961392f565b604051808215151515815260200191505060405180910390f35b348015610eff57600080fd5b50610f34600480360381019080803573ffffffffffffffffffffffffffffffffffffffff169060200190929190505050613a36565b6040518080602001828103825283818151815260200191508051906020019060200280838360005b83811015610f77578082015181840152602081019050610f5c565b505050509050019250505060405180910390f35b348015610f9757600080fd5b50610fa0613acd565b6040518082815260200191505060405180910390f35b348015610fc257600080fd5b50610fe160048036038101908080359060200190929190505050613ada565b604051808215151515815260200191505060405180910390f35b34801561100757600080fd5b5061102660048036038101908080359060200190929190505050614081565b6040518084151515158152602001831515151581526020018260ff1660ff168152602001935050505060405180910390f35b34801561106457600080fd5b50611083600480360381019080803590602001909291905050506140dd565b604051808473ffffffffffffffffffffffffffffffffffffffff1673ffffffffffffffffffffffffffffffffffffffff1681526020018373ffffffffffffffffffffffffffffffffffffffff1673ffffffffffffffffffffffffffffffffffffffff1681526020018273ffffffffffffffffffffffffffffffffffffffff1673ffffffffffffffffffffffffffffffffffffffff168152602001935050505060405180910390f35b34801561113757600080fd5b50611140614176565b604051808215151515815260200191505060405180910390f35b34801561116657600080fd5b5061116f6142cf565b6040518082815260200191505060405180910390f35b34801561119157600080fd5b506111b0600480360381019080803590602001909291905050506142dc565b6040518080602001806020018773ffffffffffffffffffffffffffffffffffffffff1673ffffffffffffffffffffffffffffffffffffffff168152602001868152602001858152602001848152602001838103835289818151815260200191508051906020019080838360005b8381101561123857808201518184015260208101905061121d565b50505050905090810190601f1680156112655780820380516001836020036101000a031916815260200191505b50838103825288818151815260200191508051906020019080838360005b8381101561129e578082015181840152602081019050611283565b50505050905090810190601f1680156112cb5780820380516001836020036101000a031916815260200191505b509850505050505050505060405180910390f35b60006112e9615014565b846001818154811015156112f957fe5b906000526020600020906006020160020160009054906101000a900473ffffffffffffffffffffffffffffffffffffffff1673ffffffffffffffffffffffffffffffffffffffff163373ffffffffffffffffffffffffffffffffffffffff161415156113f3576040517f08c379a00000000000000000000000000000000000000000000000000000000081526004018080602001828103825260308152602001807f54686973207472616e73616374696f6e206d7573742062652063616c6c65642081526020017f62792070726f6a656374206f776e65720000000000000000000000000000000081525060400191505060405180910390fd5b848260000181905250838260200181905250428260600181815250506000826080019060ff16908160ff168152505085826040018181525050600682908060018154018082558091505090600182039060005260206000209060070201600090919290919091506000820151816000019080519060200190611476929190615055565b506020820151816001019080519060200190611493929190615055565b50604082015181600201556060820151816003015560808201518160040160006101000a81548160ff021916908360ff16021790555060a08201518160050190805190602001906114e59291906150d5565b5060c08201518160060190805190602001906115029291906150d5565b505050506007600087815260200190815260200160002060016006805490500390806001815401808255809150509060018203906000526020600020016000909192909190915055506008600060038881548110151561155e57fe5b906000526020600020906003020160000160009054906101000a900473ffffffffffffffffffffffffffffffffffffffff1673ffffffffffffffffffffffffffffffffffffffff1673ffffffffffffffffffffffffffffffffffffffff16815260200190815260200160002060016006805490500390806001815401808255809150509060018203906000526020600020016000909192909190915055506008600060038881548110151561160f57fe5b906000526020600020906003020160010160009054906101000a900473ffffffffffffffffffffffffffffffffffffffff1673ffffffffffffffffffffffffffffffffffffffff1673ffffffffffffffffffffffffffffffffffffffff1681526020019081526020016000206001600680549050039080600181540180825580915050906001820390600052602060002001600090919290919091505550600860006003888154811015156116c057fe5b906000526020600020906003020160020160009054906101000a900473ffffffffffffffffffffffffffffffffffffffff1673ffffffffffffffffffffffffffffffffffffffff1673ffffffffffffffffffffffffffffffffffffffff1681526020019081526020016000206001600680549050039080600181540180825580915050906001820390600052602060002001600090919290919091505550600560003373ffffffffffffffffffffffffffffffffffffffff1673ffffffffffffffffffffffffffffffffffffffff16815260200190815260200160002060016006805490500390806001815401808255809150509060018203906000526020600020016000909192909190915055506001925050509392505050565b6060600a80548060200260200160405190810160405280929190818152602001828054801561186057602002820191906000526020600020905b8160009054906101000a900473ffffffffffffffffffffffffffffffffffffffff1673ffffffffffffffffffffffffffffffffffffffff1681526020019060010190808311611816575b5050505050905090565b606080600080600060608060068881548110151561188457fe5b90600052602060002090600702016000016006898154811015156118a457fe5b906000526020600020906007020160010160068a8154811015156118c457fe5b90600052602060002090600702016002015460068b8154811015156118e557fe5b90600052602060002090600702016003015460068c81548110151561190657fe5b906000526020600020906007020160040160009054906101000a900460ff1660068d81548110151561193457fe5b906000526020600020906007020160050160068e81548110151561195457fe5b9060005260206000209060070201600601868054600181600116156101000203166002900480601f0160208091040260200160405190810160405280929190818152602001828054600181600116156101000203166002900480156119fa5780601f106119cf576101008083540402835291602001916119fa565b820191906000526020600020905b8154815290600101906020018083116119dd57829003601f168201915b50505050509650858054600181600116156101000203166002900480601f016020809104026020016040519081016040528092919081815260200182805460018160011615610100020316600290048015611a965780601f10611a6b57610100808354040283529160200191611a96565b820191906000526020600020905b815481529060010190602001808311611a7957829003601f168201915b5050505050955081805480602002602001604051908101604052809291908181526020018280548015611b1e57602002820191906000526020600020905b8160009054906101000a900473ffffffffffffffffffffffffffffffffffffffff1673ffffffffffffffffffffffffffffffffffffffff1681526020019060010190808311611ad4575b5050505050915080805480602002602001604051908101604052809291908181526020018280548015611ba657602002820191906000526020600020905b8160009054906101000a900473ffffffffffffffffffffffffffffffffffffffff1673ffffffffffffffffffffffffffffffffffffffff1681526020019060010190808311611b5c575b505050505090509650965096509650965096509650919395979092949650565b600181815481101515611bd557fe5b9060005260206000209060060201600091509050806000018054600181600116156101000203166002900480601f016020809104026020016040519081016040528092919081815260200182805460018160011615610100020316600290048015611c815780601f10611c5657610100808354040283529160200191611c81565b820191906000526020600020905b815481529060010190602001808311611c6457829003601f168201915b505050505090806001018054600181600116156101000203166002900480601f016020809104026020016040519081016040528092919081815260200182805460018160011615610100020316600290048015611d1f5780601f10611cf457610100808354040283529160200191611d1f565b820191906000526020600020905b815481529060010190602001808311611d0257829003601f168201915b5050505050908060020160009054906101000a900473ffffffffffffffffffffffffffffffffffffffff16908060030154908060040154908060050154905086565b6060600860008373ffffffffffffffffffffffffffffffffffffffff1673ffffffffffffffffffffffffffffffffffffffff168152602001908152602001600020805480602002602001604051908101604052809291908181526020018280548015611dec57602002820191906000526020600020905b815481526020019060010190808311611dd8575b50505050509050919050565b6000611e02615014565b846001600682815481101515611e1457fe5b906000526020600020906007020160020154815481101515611e3257fe5b906000526020600020906006020160020160009054906101000a900473ffffffffffffffffffffffffffffffffffffffff1673ffffffffffffffffffffffffffffffffffffffff163373ffffffffffffffffffffffffffffffffffffffff16141515611f2c576040517f08c379a00000000000000000000000000000000000000000000000000000000081526004018080602001828103825260308152602001807f54686973207472616e73616374696f6e206d7573742062652063616c6c65642081526020017f62792070726f6a656374206f776e65720000000000000000000000000000000081525060400191505060405180910390fd5b848260000181905250838260200181905250428260600181815250506001826080019060ff16908160ff168152505081600960008881526020019081526020016000206000820151816000019080519060200190611f8b929190615055565b506020820151816001019080519060200190611fa8929190615055565b50604082015181600201556060820151816003015560808201518160040160006101000a81548160ff021916908360ff16021790555060a0820151816005019080519060200190611ffa9291906150d5565b5060c08201518160060190805190602001906120179291906150d5565b50905050600160068781548110151561202c57fe5b906000526020600020906007020160040160006101000a81548160ff021916908360ff1602179055506001600260068881548110151561206857fe5b90600052602060002090600702016002015481548110151561208657fe5b9060005260206000200160000160028282829054906101000a900460ff160192506101000a81548160ff021916908360ff1602179055506001925050509392505050565b60606007600083815260200190815260200160002080548060200260200160405190810160405280929190818152602001828054801561212957602002820191906000526020600020905b815481526020019060010190808311612115575b50505050509050919050565b600061213f61515f565b6121476151ac565b60008060018681548110151561215957fe5b906000526020600020906006020160c06040519081016040529081600082018054600181600116156101000203166002900480601f01602080910402602001604051908101604052809291908181526020018280546001816001161561010002031660029004801561220c5780601f106121e15761010080835404028352916020019161220c565b820191906000526020600020905b8154815290600101906020018083116121ef57829003601f168201915b50505050508152602001600182018054600181600116156101000203166002900480601f0160208091040260200160405190810160405280929190818152602001828054600181600116156101000203166002900480156122ae5780601f10612283576101008083540402835291602001916122ae565b820191906000526020600020905b81548152906001019060200180831161229157829003601f168201915b505050505081526020016002820160009054906101000a900473ffffffffffffffffffffffffffffffffffffffff1673ffffffffffffffffffffffffffffffffffffffff1673ffffffffffffffffffffffffffffffffffffffff1681526020016003820154815260200160048201548152602001600582015481525050935060028681548110151561233c57fe5b90600052602060002001606060405190810160405290816000820160009054906101000a900460ff161515151581526020016000820160019054906101000a900460ff161515151581526020016000820160029054906101000a900460ff1660ff1660ff16815250509250600183604001510160ff16600c54028460800151014210151515612459576040517f08c379a00000000000000000000000000000000000000000000000000000000081526004018080602001828103825260398152602001807f54686973207472616e73616374696f6e206d757374206265206669726564206181526020017f6674657220636c61696d20646174652066696e6973686564210000000000000081525060400191505060405180910390fd5b60009150600090505b60076000878152602001908152602001600020805490508110156124cc576124b360076000888152602001908152602001600020828154811015156124a357fe5b906000526020600020015461450a565b156124bf576001820191505b8080600101915050612462565b6201518060088560600151866080015103028115156124e757fe5b04600a8302101583602001901515908115158152505060008360000190151590811515815250508260028781548110151561251e57fe5b9060005260206000200160008201518160000160006101000a81548160ff02191690831515021790555060208201518160000160016101000a81548160ff02191690831515021790555060408201518160000160026101000a81548160ff021916908360ff1602179055509050508260200151156125ea57836040015173ffffffffffffffffffffffffffffffffffffffff166108fc8560a001519081150290604051600060405180830381858888f193505050501580156125e4573d6000803e3d6000fd5b50612657565b6000809054906101000a900473ffffffffffffffffffffffffffffffffffffffff1673ffffffffffffffffffffffffffffffffffffffff166108fc8560a001519081150290604051600060405180830381858888f19350505050158015612655573d6000803e3d6000fd5b505b6001945050505050919050565b600060076000838152602001908152602001600020805490509050919050565b606080600080612692615014565b6009600087815260200190815260200160002060e06040519081016040529081600082018054600181600116156101000203166002900480601f01602080910402602001604051908101604052809291908181526020018280546001816001161561010002031660029004801561274a5780601f1061271f5761010080835404028352916020019161274a565b820191906000526020600020905b81548152906001019060200180831161272d57829003601f168201915b50505050508152602001600182018054600181600116156101000203166002900480601f0160208091040260200160405190810160405280929190818152602001828054600181600116156101000203166002900480156127ec5780601f106127c1576101008083540402835291602001916127ec565b820191906000526020600020905b8154815290600101906020018083116127cf57829003601f168201915b5050505050815260200160028201548152602001600382015481526020016004820160009054906101000a900460ff1660ff1660ff168152602001600582018054806020026020016040519081016040528092919081815260200182805480156128ab57602002820191906000526020600020905b8160009054906101000a900473ffffffffffffffffffffffffffffffffffffffff1673ffffffffffffffffffffffffffffffffffffffff1681526020019060010190808311612861575b505050505081526020016006820180548060200260200160405190810160405280929190818152602001828054801561293957602002820191906000526020600020905b8160009054906101000a900473ffffffffffffffffffffffffffffffffffffffff1673ffffffffffffffffffffffffffffffffffffffff16815260200190600101908083116128ef575b505050505081525050905080600001518160200151826060015183608001518393508292509450945094509450509193509193565b600a8181548110151561297d57fe5b906000526020600020016000915054906101000a900473ffffffffffffffffffffffffffffffffffffffff1681565b600b818154811015156129bb57fe5b906000526020600020016000915054906101000a900473ffffffffffffffffffffffffffffffffffffffff1681565b6000816003818154811015156129fc57fe5b906000526020600020906003020160000160009054906101000a900473ffffffffffffffffffffffffffffffffffffffff1673ffffffffffffffffffffffffffffffffffffffff163373ffffffffffffffffffffffffffffffffffffffff161480612ad25750600381815481101515612a7157fe5b906000526020600020906003020160010160009054906101000a900473ffffffffffffffffffffffffffffffffffffffff1673ffffffffffffffffffffffffffffffffffffffff163373ffffffffffffffffffffffffffffffffffffffff16145b80612b485750600381815481101515612ae757fe5b906000526020600020906003020160020160009054906101000a900473ffffffffffffffffffffffffffffffffffffffff1673ffffffffffffffffffffffffffffffffffffffff163373ffffffffffffffffffffffffffffffffffffffff16145b1515612be2576040517f08c379a00000000000000000000000000000000000000000000000000000000081526004018080602001828103825260338152602001807f54686973207472616e73616374696f6e206d7573742062652063616c6c65642081526020017f62792070726f6a6563742072656665726565210000000000000000000000000081525060400191505060405180910390fd5b6080600684815481101515612bf357fe5b906000526020600020906007020160040160006101000a81548160ff021916908360ff16021790555060806009600085815260200190815260200160002060040160006101000a81548160ff021916908360ff1602179055506001915050919050565b6000806000612c636151d5565b600385815481101515612c7257fe5b9060005260206000209060030201606060405190810160405290816000820160009054906101000a900473ffffffffffffffffffffffffffffffffffffffff1673ffffffffffffffffffffffffffffffffffffffff1673ffffffffffffffffffffffffffffffffffffffff1681526020016001820160009054906101000a900473ffffffffffffffffffffffffffffffffffffffff1673ffffffffffffffffffffffffffffffffffffffff1673ffffffffffffffffffffffffffffffffffffffff1681526020016002820160009054906101000a900473ffffffffffffffffffffffffffffffffffffffff1673ffffffffffffffffffffffffffffffffffffffff1673ffffffffffffffffffffffffffffffffffffffff16815250509050806000015181602001518260400151935093509350509193909250565b6000612dbb85858585614a4b565b8015612dcb5750612dca614b9a565b5b8015612ddb5750612dda614c6f565b5b1515612de357fe5b600460003373ffffffffffffffffffffffffffffffffffffffff1673ffffffffffffffffffffffffffffffffffffffff1681526020019081526020016000206001808054905003908060018154018082558091505090600182039060005260206000200160009091929091909150555060019050949350505050565b6000806000612e6c6151ac565b600285815481101515612e7b57fe5b90600052602060002001606060405190810160405290816000820160009054906101000a900460ff161515151581526020016000820160019054906101000a900460ff161515151581526020016000820160029054906101000a900460ff1660ff1660ff16815250509050806000015181602001518260400151935093509350509193909250565b600081600381815481101515612f1557fe5b906000526020600020906003020160000160009054906101000a900473ffffffffffffffffffffffffffffffffffffffff1673ffffffffffffffffffffffffffffffffffffffff163373ffffffffffffffffffffffffffffffffffffffff161480612feb5750600381815481101515612f8a57fe5b906000526020600020906003020160010160009054906101000a900473ffffffffffffffffffffffffffffffffffffffff1673ffffffffffffffffffffffffffffffffffffffff163373ffffffffffffffffffffffffffffffffffffffff16145b80613061575060038181548110151561300057fe5b906000526020600020906003020160020160009054906101000a900473ffffffffffffffffffffffffffffffffffffffff1673ffffffffffffffffffffffffffffffffffffffff163373ffffffffffffffffffffffffffffffffffffffff16145b15156130fb576040517f08c379a00000000000000000000000000000000000000000000000000000000081526004018080602001828103825260338152602001807f54686973207472616e73616374696f6e206d7573742062652063616c6c65642081526020017f62792070726f6a6563742072656665726565210000000000000000000000000081525060400191505060405180910390fd5b608160068481548110151561310c57fe5b906000526020600020906007020160040160006101000a81548160ff021916908360ff16021790555060816009600085815260200190815260200160002060040160006101000a81548160ff021916908360ff1602179055506001915050919050565b6060600560008373ffffffffffffffffffffffffffffffffffffffff1673ffffffffffffffffffffffffffffffffffffffff1681526020019081526020016000208054806020026020016040519081016040528092919081815260200182805480156131fa57602002820191906000526020600020905b8154815260200190600101908083116131e6575b50505050509050919050565b60068181548110151561321557fe5b9060005260206000209060070201600091509050806000018054600181600116156101000203166002900480601f0160208091040260200160405190810160405280929190818152602001828054600181600116156101000203166002900480156132c15780601f10613296576101008083540402835291602001916132c1565b820191906000526020600020905b8154815290600101906020018083116132a457829003601f168201915b505050505090806001018054600181600116156101000203166002900480601f01602080910402602001604051908101604052809291908181526020018280546001816001161561010002031660029004801561335f5780601f106133345761010080835404028352916020019161335f565b820191906000526020600020905b81548152906001019060200180831161334257829003601f168201915b5050505050908060020154908060030154908060040160009054906101000a900460ff16905085565b60006060600060606000600c546006878154811015156133a457fe5b90600052602060002090600702016003015401421015156133c457600080fd5b6006868154811015156133d357fe5b906000526020600020906007020160050180548060200260200160405190810160405280929190818152602001828054801561346457602002820191906000526020600020905b8160009054906101000a900473ffffffffffffffffffffffffffffffffffffffff1673ffffffffffffffffffffffffffffffffffffffff168152602001906001019080831161341a575b50505050509350600092505b83518310156134da573373ffffffffffffffffffffffffffffffffffffffff16848481518110151561349e57fe5b9060200190602002015173ffffffffffffffffffffffffffffffffffffffff1614156134cd5760009450613926565b8280600101935050613470565b6006868154811015156134e957fe5b906000526020600020906007020160060180548060200260200160405190810160405280929190818152602001828054801561357a57602002820191906000526020600020905b8160009054906101000a900473ffffffffffffffffffffffffffffffffffffffff1673ffffffffffffffffffffffffffffffffffffffff1681526020019060010190808311613530575b50505050509150600090505b81518110156135f0573373ffffffffffffffffffffffffffffffffffffffff1682828151811015156135b457fe5b9060200190602002015173ffffffffffffffffffffffffffffffffffffffff1614156135e35760009450613926565b8280600101935050613586565b6006868154811015156135ff57fe5b90600052602060002090600702016005013390806001815401808255809150509060018203906000526020600020016000909192909190916101000a81548173ffffffffffffffffffffffffffffffffffffffff021916908373ffffffffffffffffffffffffffffffffffffffff16021790555050600360068781548110151561368557fe5b9060005260206000209060070201600201548154811015156136a357fe5b906000526020600020906003020160000160009054906101000a900473ffffffffffffffffffffffffffffffffffffffff1673ffffffffffffffffffffffffffffffffffffffff163373ffffffffffffffffffffffffffffffffffffffff16141561375957601060068781548110151561371957fe5b906000526020600020906007020160040160008282829054906101000a900460ff160192506101000a81548160ff021916908360ff160217905550613921565b600360068781548110151561376a57fe5b90600052602060002090600702016002015481548110151561378857fe5b906000526020600020906003020160010160009054906101000a900473ffffffffffffffffffffffffffffffffffffffff1673ffffffffffffffffffffffffffffffffffffffff163373ffffffffffffffffffffffffffffffffffffffff16141561383e5760206006878154811015156137fe57fe5b906000526020600020906007020160040160008282829054906101000a900460ff160192506101000a81548160ff021916908360ff160217905550613920565b600360068781548110151561384f57fe5b90600052602060002090600702016002015481548110151561386d57fe5b906000526020600020906003020160020160009054906101000a900473ffffffffffffffffffffffffffffffffffffffff1673ffffffffffffffffffffffffffffffffffffffff163373ffffffffffffffffffffffffffffffffffffffff16141561391f5760406006878154811015156138e357fe5b906000526020600020906007020160040160008282829054906101000a900460ff160192506101000a81548160ff021916908360ff1602179055505b5b5b600194505b50505050919050565b600080600090505b600a805490508110156139c7573373ffffffffffffffffffffffffffffffffffffffff16600a8281548110151561396a57fe5b9060005260206000200160009054906101000a900473ffffffffffffffffffffffffffffffffffffffff1673ffffffffffffffffffffffffffffffffffffffff1614156139ba5760009150613a32565b8080600101915050613937565b600a3390806001815401808255809150509060018203906000526020600020016000909192909190916101000a81548173ffffffffffffffffffffffffffffffffffffffff021916908373ffffffffffffffffffffffffffffffffffffffff16021790555050600191505b5090565b6060600460008373ffffffffffffffffffffffffffffffffffffffff1673ffffffffffffffffffffffffffffffffffffffff168152602001908152602001600020805480602002602001604051908101604052809291908181526020018280548015613ac157602002820191906000526020600020905b815481526020019060010190808311613aad575b50505050509050919050565b6000600680549050905090565b60006060600060606000600c54600687815481101515613af657fe5b9060005260206000209060070201600301540142101515613b1657600080fd5b600686815481101515613b2557fe5b9060005260206000209060070201600601805480602002602001604051908101604052809291908181526020018280548015613bb657602002820191906000526020600020905b8160009054906101000a900473ffffffffffffffffffffffffffffffffffffffff1673ffffffffffffffffffffffffffffffffffffffff1681526020019060010190808311613b6c575b50505050509350600092505b8351831015613c2c573373ffffffffffffffffffffffffffffffffffffffff168484815181101515613bf057fe5b9060200190602002015173ffffffffffffffffffffffffffffffffffffffff161415613c1f5760009450614078565b8280600101935050613bc2565b600686815481101515613c3b57fe5b9060005260206000209060070201600501805480602002602001604051908101604052809291908181526020018280548015613ccc57602002820191906000526020600020905b8160009054906101000a900473ffffffffffffffffffffffffffffffffffffffff1673ffffffffffffffffffffffffffffffffffffffff1681526020019060010190808311613c82575b50505050509150600090505b8151811015613d42573373ffffffffffffffffffffffffffffffffffffffff168282815181101515613d0657fe5b9060200190602002015173ffffffffffffffffffffffffffffffffffffffff161415613d355760009450614078565b8280600101935050613cd8565b600686815481101515613d5157fe5b90600052602060002090600702016006013390806001815401808255809150509060018203906000526020600020016000909192909190916101000a81548173ffffffffffffffffffffffffffffffffffffffff021916908373ffffffffffffffffffffffffffffffffffffffff160217905550506003600687815481101515613dd757fe5b906000526020600020906007020160020154815481101515613df557fe5b906000526020600020906003020160000160009054906101000a900473ffffffffffffffffffffffffffffffffffffffff1673ffffffffffffffffffffffffffffffffffffffff163373ffffffffffffffffffffffffffffffffffffffff161415613eab576002600687815481101515613e6b57fe5b906000526020600020906007020160040160008282829054906101000a900460ff160192506101000a81548160ff021916908360ff160217905550614073565b6003600687815481101515613ebc57fe5b906000526020600020906007020160020154815481101515613eda57fe5b906000526020600020906003020160010160009054906101000a900473ffffffffffffffffffffffffffffffffffffffff1673ffffffffffffffffffffffffffffffffffffffff163373ffffffffffffffffffffffffffffffffffffffff161415613f90576004600687815481101515613f5057fe5b906000526020600020906007020160040160008282829054906101000a900460ff160192506101000a81548160ff021916908360ff160217905550614072565b6003600687815481101515613fa157fe5b906000526020600020906007020160020154815481101515613fbf57fe5b906000526020600020906003020160020160009054906101000a900473ffffffffffffffffffffffffffffffffffffffff1673ffffffffffffffffffffffffffffffffffffffff163373ffffffffffffffffffffffffffffffffffffffff16141561407157600860068781548110151561403557fe5b906000526020600020906007020160040160008282829054906101000a900460ff160192506101000a81548160ff021916908360ff1602179055505b5b5b600194505b50505050919050565b60028181548110151561409057fe5b906000526020600020016000915090508060000160009054906101000a900460ff16908060000160019054906101000a900460ff16908060000160029054906101000a900460ff16905083565b6003818154811015156140ec57fe5b90600052602060002090600302016000915090508060000160009054906101000a900473ffffffffffffffffffffffffffffffffffffffff16908060010160009054906101000a900473ffffffffffffffffffffffffffffffffffffffff16908060020160009054906101000a900473ffffffffffffffffffffffffffffffffffffffff16905083565b6000806000600a805490509150600090505b600a80549050811015614217573373ffffffffffffffffffffffffffffffffffffffff16600a828154811015156141bb57fe5b9060005260206000200160009054906101000a900473ffffffffffffffffffffffffffffffffffffffff1673ffffffffffffffffffffffffffffffffffffffff16141561420a57809150614217565b8080600101915050614188565b600a6001600a805490500381548110151561422e57fe5b9060005260206000200160009054906101000a900473ffffffffffffffffffffffffffffffffffffffff16600a8381548110151561426857fe5b9060005260206000200160006101000a81548173ffffffffffffffffffffffffffffffffffffffff021916908373ffffffffffffffffffffffffffffffffffffffff160217905550600a8054809190600190036142c59190615239565b5060009250505090565b6000600180549050905090565b6060806000806000806142ed61515f565b6001888154811015156142fc57fe5b906000526020600020906006020160c06040519081016040529081600082018054600181600116156101000203166002900480601f0160208091040260200160405190810160405280929190818152602001828054600181600116156101000203166002900480156143af5780601f10614384576101008083540402835291602001916143af565b820191906000526020600020905b81548152906001019060200180831161439257829003601f168201915b50505050508152602001600182018054600181600116156101000203166002900480601f0160208091040260200160405190810160405280929190818152602001828054600181600116156101000203166002900480156144515780601f1061442657610100808354040283529160200191614451565b820191906000526020600020905b81548152906001019060200180831161443457829003601f168201915b505050505081526020016002820160009054906101000a900473ffffffffffffffffffffffffffffffffffffffff1673ffffffffffffffffffffffffffffffffffffffff1673ffffffffffffffffffffffffffffffffffffffff16815260200160038201548152602001600482015481526020016005820154815250509050806000015181602001518260400151836060015184608001518560a001518595508494509650965096509650965096505091939550919395565b6000806000614517615014565b60009250600091506081816080015160ff1614156145385760009350614a43565b6080816080015160ff1614156145515760019350614a43565b60068581548110151561456057fe5b906000526020600020906007020160e06040519081016040529081600082018054600181600116156101000203166002900480601f0160208091040260200160405190810160405280929190818152602001828054600181600116156101000203166002900480156146135780601f106145e857610100808354040283529160200191614613565b820191906000526020600020905b8154815290600101906020018083116145f657829003601f168201915b50505050508152602001600182018054600181600116156101000203166002900480601f0160208091040260200160405190810160405280929190818152602001828054600181600116156101000203166002900480156146b55780601f1061468a576101008083540402835291602001916146b5565b820191906000526020600020905b81548152906001019060200180831161469857829003601f168201915b5050505050815260200160028201548152602001600382015481526020016004820160009054906101000a900460ff1660ff1660ff1681526020016005820180548060200260200160405190810160405280929190818152602001828054801561477457602002820191906000526020600020905b8160009054906101000a900473ffffffffffffffffffffffffffffffffffffffff1673ffffffffffffffffffffffffffffffffffffffff168152602001906001019080831161472a575b505050505081526020016006820180548060200260200160405190810160405280929190818152602001828054801561480257602002820191906000526020600020905b8160009054906101000a900473ffffffffffffffffffffffffffffffffffffffff1673ffffffffffffffffffffffffffffffffffffffff16815260200190600101908083116147b8575b505050505081525050905060016040826080015160ff1681151561482257fe5b0460ff1614156148585760408160800181815160ff1681151561484157fe5b0691509060ff16908160ff16815250506001830192505b60016020826080015160ff1681151561486d57fe5b0460ff1614156148a35760208160800181815160ff1681151561488c57fe5b0691509060ff16908160ff16815250506001830192505b60016010826080015160ff168115156148b857fe5b0460ff1614156148ee5760108160800181815160ff168115156148d757fe5b0691509060ff16908160ff16815250506001830192505b6002831015156149015760019350614a43565b60016008826080015160ff1681151561491657fe5b0460ff16141561494c5760088160800181815160ff1681151561493557fe5b0691509060ff16908160ff16815250506001820191505b60016004826080015160ff1681151561496157fe5b0460ff1614156149975760048160800181815160ff1681151561498057fe5b0691509060ff16908160ff16815250506001820191505b60016002826080015160ff168115156149ac57fe5b0460ff1614156149e25760028160800181815160ff168115156149cb57fe5b0691509060ff16908160ff16815250506001820191505b6002821015156149f55760009350614a43565b81831115614a14578060c0015151600a8260a001515101119350614a43565b82821015614a30578060c00151518160a0015151119350614a43565b8060c001515160058260a0015151011193505b505050919050565b6000614a5561515f565b858160000181905250848160200181905250838160600181815250508281608001818152505033816040019073ffffffffffffffffffffffffffffffffffffffff16908173ffffffffffffffffffffffffffffffffffffffff1681525050348160a0018181525050600181908060018154018082558091505090600182039060005260206000209060060201600090919290919091506000820151816000019080519060200190614b07929190615055565b506020820151816001019080519060200190614b24929190615055565b5060408201518160020160006101000a81548173ffffffffffffffffffffffffffffffffffffffff021916908373ffffffffffffffffffffffffffffffffffffffff160217905550606082015181600301556080820151816004015560a082015181600501555050506001915050949350505050565b6000614ba46151ac565b600181600001901515908115158152505060018160200190151590811515815250506000816040019060ff16908160ff168152505060028190806001815401808255809150509060018203906000526020600020016000909192909190915060008201518160000160006101000a81548160ff02191690831515021790555060208201518160000160016101000a81548160ff02191690831515021790555060408201518160000160026101000a81548160ff021916908360ff160217905550505050600191505090565b6000614c796151d5565b6000614c83614f13565b9050600a81815481101515614c9457fe5b9060005260206000200160009054906101000a900473ffffffffffffffffffffffffffffffffffffffff16826000019073ffffffffffffffffffffffffffffffffffffffff16908173ffffffffffffffffffffffffffffffffffffffff1681525050600a8054905060018201811515614d0957fe5b069050600a81815481101515614d1b57fe5b9060005260206000200160009054906101000a900473ffffffffffffffffffffffffffffffffffffffff16826020019073ffffffffffffffffffffffffffffffffffffffff16908173ffffffffffffffffffffffffffffffffffffffff1681525050600a8054905060018201811515614d9057fe5b069050600a81815481101515614da257fe5b9060005260206000200160009054906101000a900473ffffffffffffffffffffffffffffffffffffffff16826040019073ffffffffffffffffffffffffffffffffffffffff16908173ffffffffffffffffffffffffffffffffffffffff16815250506003829080600181540180825580915050906001820390600052602060002090600302016000909192909190915060008201518160000160006101000a81548173ffffffffffffffffffffffffffffffffffffffff021916908373ffffffffffffffffffffffffffffffffffffffff16021790555060208201518160010160006101000a81548173ffffffffffffffffffffffffffffffffffffffff021916908373ffffffffffffffffffffffffffffffffffffffff16021790555060408201518160020160006101000a81548173ffffffffffffffffffffffffffffffffffffffff021916908373ffffffffffffffffffffffffffffffffffffffff16021790555050505060019250505090565b6000806001805490504233600d54604051602001808481526020018373ffffffffffffffffffffffffffffffffffffffff1673ffffffffffffffffffffffffffffffffffffffff166c0100000000000000000000000002815260140182815260200193505050506040516020818303038152906040526040518082805190602001908083835b602083101515614fbe5780518252602082019150602081019050602083039250614f99565b6001836020036101000a038019825116818451168082178552505050505050905001915050604051809103902060019004811515614ff857fe5b069050600d600081548092919060010191905055508091505090565b60e06040519081016040528060608152602001606081526020016000815260200160008152602001600060ff16815260200160608152602001606081525090565b828054600181600116156101000203166002900490600052602060002090601f016020900481019282601f1061509657805160ff19168380011785556150c4565b828001600101855582156150c4579182015b828111156150c35782518255916020019190600101906150a8565b5b5090506150d19190615265565b5090565b82805482825590600052602060002090810192821561514e579160200282015b8281111561514d5782518260006101000a81548173ffffffffffffffffffffffffffffffffffffffff021916908373ffffffffffffffffffffffffffffffffffffffff160217905550916020019190600101906150f5565b5b50905061515b919061528a565b5090565b60c0604051908101604052806060815260200160608152602001600073ffffffffffffffffffffffffffffffffffffffff1681526020016000815260200160008152602001600081525090565b606060405190810160405280600015158152602001600015158152602001600060ff1681525090565b606060405190810160405280600073ffffffffffffffffffffffffffffffffffffffff168152602001600073ffffffffffffffffffffffffffffffffffffffff168152602001600073ffffffffffffffffffffffffffffffffffffffff1681525090565b8154818355818111156152605781836000526020600020918201910161525f9190615265565b5b505050565b61528791905b8082111561528357600081600090555060010161526b565b5090565b90565b6152ca91905b808211156152c657600081816101000a81549073ffffffffffffffffffffffffffffffffffffffff021916905550600101615290565b5090565b905600a165627a7a723058207b9e557dc4a31e790bafc1a84e94a8c666822f2807899c41256a9557ca51136c0029",
  "source": "pragma solidity ^0.4.24;\n\ncontract DodoRepository {\n    address owner;\n    ProjectInfo[] public infos;\n    ProjectStatus[] public statuses;\n    ProjectReferees[] public referees;\n    mapping(address => uint[]) apMap; // key: participant address, value: project index\n    mapping(address => uint[]) apfMap; // key: participant address, value: proof index\n\n    Proof[] public proofs; \n    mapping(uint => uint[]) ppMap; // key: project index, value: proof indexes\n    mapping(address => uint[]) rpMap; // key: judge address, value: proof indexes\n    mapping(uint => Proof) claims; // key: proof index, value: claim\n\n    address[] public whiteList;\n    address[] public blackList; //    \n    uint period = 2 days;\n    uint nonce = 0;\n\n    struct ProjectInfo {\n        string name;\n        string description;\n        address participant;\n        uint startDate;\n        uint endDate;\n        uint freezeAmount;\n    }\n\n    struct ProjectStatus {\n        bool active; // \n        bool success; // \n        uint8 claimed;\n    }\n\n    struct ProjectReferees {\n        address referee1; \n        address referee2;\n        address referee3;\n    }\n\n    struct Proof {\n        string name;\n        string memo;\n        uint projectNo;\n        uint timestamp;\n        uint8 judged; // 1: , 0: , 2,4,8   16,32,64   48  ( 2/3  ), 128   , 129  \n        address[] like;\n        address[] dislike;\n    }\n\n    modifier onlyOwner() {\n        require(msg.sender == owner, \"This transaction must be called by owner!\");\n        _;\n    }\n\n    modifier onlyReferee(uint _index) {\n        require(\n            msg.sender == referees[_index].referee1 \n            || msg.sender == referees[_index].referee2\n            || msg.sender == referees[_index].referee3, \n            \"This transaction must be called by project referee!\"\n        ); \n        _;\n    }\n    \n    modifier onlyProjectOwner(uint _index) {\n        require(msg.sender == infos[_index].participant, \"This transaction must be called by project owner\");\n        _;\n    }\n\n    modifier onlyProjectOwner2(uint _index) {\n        require(msg.sender == infos[proofs[_index].projectNo].participant, \n            \"This transaction must be called by project owner\");\n        _;\n    }\n\n    /**\n    * @dev Created a DodoRepository\n    */\n    constructor() public {\n        owner = 0xbf128F013F40ec7Fdfe95d0A298E85764f628e7F;\n        whiteList.push(0xbf128F013F40ec7Fdfe95d0A298E85764f628e7F);\n        whiteList.push(0xd8598Fb4281457f6c3C0E66f1aae1f719d4F0432);\n        whiteList.push(0xE64829EBBffA77b5D1b668fbf7e4cFB36Ad33245);\n    }\n\n    function () external payable {\n        revert();\n    }   \n\n    /**\n    * @dev Create Project\n    * @param _name name of the Project\n    * @param _description description of the Project\n    * @param _startDate start timestamp\n    * @param _endDate end timestamp\n    * @return bool result of transaction\n    */\n    function createProject(string _name,\n                            string _description,\n                            uint _startDate,\n                            uint _endDate) public payable returns (bool) {\n        assert(createInfo(_name, _description, _startDate, _endDate)\n            && createStatus()\n            && createReferees());\n        apMap[msg.sender].push(infos.length - 1);\n        return true;\n    }\n\n    /**\n    * @dev Finalize Project\n    * @param _index Index of the Project \n    * @return bool result of transaction\n    */\n    function finalizeProject(uint _index) public payable returns (bool) {\n        ProjectInfo memory info = infos[_index];\n        ProjectStatus memory status = statuses[_index];\n        require(now >= info.endDate + period * (status.claimed + 1),\n            \"This transaction must be fired after claim date finished!\");\n        uint successCount = 0;\n        for (uint i = 0; i < ppMap[_index].length; i++) {\n            if (calculateProof(ppMap[_index][i])) successCount += 1;\n        }\n        status.success = successCount * 10 >= (info.endDate - info.startDate) * 8 / 1 days;\n        status.active = false;\n        statuses[_index] = status;\n        if (status.success) {\n            info.participant.transfer(info.freezeAmount);\n        } else {\n            owner.transfer(info.freezeAmount);\n        }\n        return true;\n    }\n\n    /**\n    * @dev Submit Proof\n    * @param _index Index of the Proof \n    * @param name name of the proof\n    * @param memo description of the proof\n    * @return bool result of transaction\n    */\n    function submitProof(uint _index, string name, string memo) public onlyProjectOwner(_index) returns (bool) {\n        Proof memory newProof;\n        newProof.name = name;\n        newProof.memo = memo;\n        newProof.timestamp = now;\n        newProof.judged = 0;\n        newProof.projectNo = _index;\n        proofs.push(newProof);\n        ppMap[_index].push(proofs.length - 1);\n        rpMap[referees[_index].referee1].push(proofs.length - 1);\n        rpMap[referees[_index].referee2].push(proofs.length - 1);\n        rpMap[referees[_index].referee3].push(proofs.length - 1);\n        apfMap[msg.sender].push(proofs.length - 1);\n\n        return true;\n    }\n\n    /**\n    * @dev Claim Judge\n    * @param _index Index of the Project\n    * @param name name of the proof\n    * @param memo description of the proof \n    * @return bool result of transaction\n    */\n    function claimJudge(uint _index, string name, string memo) public onlyProjectOwner2(_index) returns (bool) {\n        Proof memory newProof;\n        newProof.name = name;\n        newProof.memo = memo;\n        newProof.timestamp = now;\n        newProof.judged = 1;\n        claims[_index] = newProof;\n        proofs[_index].judged = 1;\n        \n        statuses[proofs[_index].projectNo].claimed += 1;\n\n        return true;\n    }\n\n    /**\n    * @dev Claim Approve\n    * @param _index Index of the Project \n    * @return bool result of transaction\n    */\n    function claimApprove(uint _index) public onlyReferee(_index) returns (bool) {\n        proofs[_index].judged = 128;\n        claims[_index].judged = 128;\n        return true;\n    }\n\n    /**\n    * @dev Claim Decline\n    * @param _index Index of the Project \n    * @return bool result of transaction\n    */\n    function claimDecline(uint _index) public onlyReferee(_index) returns (bool) {\n        proofs[_index].judged = 129;\n        claims[_index].judged = 129;\n        return true;\n    }\n\n    /**\n    * @dev Apply Referee\n    * @return bool result of transaction\n    */\n    function applyReferee() public returns (bool) {\n        for (uint i = 0; i < whiteList.length; i++) {\n            if (whiteList[i] == msg.sender) {\n                return false;\n            }\n        }\n        whiteList.push(msg.sender);\n        return true;\n    }\n\n    /**\n    * @dev Cancel Referee\n    * @return bool result of transaction\n    */\n    function cancelReferee() public returns (bool) {\n        uint index = whiteList.length;\n        for (uint i = 0; i < whiteList.length; i++) {\n            if (whiteList[i] == msg.sender) {\n                index = i;\n                break;\n            }\n        }\n        whiteList[index] = whiteList[whiteList.length - 1];\n        whiteList.length--;\n        return false;\n    }\n\n    function likeProof(uint _index) public returns (bool) {\n        require(now < proofs[_index].timestamp + period);\n        address[] memory arr = proofs[_index].like;\n        for (uint i = 0; i < arr.length; i++) {\n            if (arr[i] == msg.sender) {\n                return false;\n            }\n        }\n        address[] memory arr2 = proofs[_index].dislike;\n        for (uint j = 0; j < arr2.length; i++) {\n            if (arr2[j] == msg.sender) {\n                return false;\n            }\n        }\n        proofs[_index].like.push(msg.sender);\n        if (msg.sender == referees[proofs[_index].projectNo].referee1) {\n            proofs[_index].judged += 16;\n        } else if (msg.sender == referees[proofs[_index].projectNo].referee2) {\n            proofs[_index].judged += 32;\n        } else if (msg.sender == referees[proofs[_index].projectNo].referee3) {\n            proofs[_index].judged += 64;\n        }\n\n        return true;\n    }\n\n    function dislikeProof(uint _index) public returns (bool) {\n        require(now < proofs[_index].timestamp + period);\n        address[] memory arr = proofs[_index].dislike;\n        for (uint i = 0; i < arr.length; i++) {\n            if (arr[i] == msg.sender) {\n                return false;\n            }\n        }\n        address[] memory arr2 = proofs[_index].like;\n        for (uint j = 0; j < arr2.length; i++) {\n            if (arr2[j] == msg.sender) {\n                return false;\n            }\n        }\n        proofs[_index].dislike.push(msg.sender);\n        if (msg.sender == referees[proofs[_index].projectNo].referee1) {\n            proofs[_index].judged += 2;\n        } else if (msg.sender == referees[proofs[_index].projectNo].referee2) {\n            proofs[_index].judged += 4;\n        } else if (msg.sender == referees[proofs[_index].projectNo].referee3) {\n            proofs[_index].judged += 8;\n        }\n        return true;\n    }\n\n    /**\n    * @dev Get Referee List\n    * @return address represents the referee list of Projects\n    */\n    function getWhiteList() public view returns (address[]) {\n        return whiteList;\n    }\n\n    /**\n    * @dev Get Project Counts\n    * @return uint256 represents the number of Projects\n    */\n    function getProjectCounts() public view returns (uint) {\n        return infos.length;\n    }\n\n    /**\n    * @dev Get Project Info by Index\n    * @param _index Index of the Project \n    * @return Project represents the Project\n    */\n    function getProjectInfo(uint _index) public view returns (string name,\n                                                        string description,\n                                                        address participant,\n                                                        uint startDate,\n                                                        uint endDate,\n                                                        uint freeAmount) {\n        ProjectInfo memory project = infos[_index];\n        return (\n            project.name, project.description, project.participant,\n            project.startDate, project.endDate, project.freezeAmount\n        );\n    }\n\n    /**\n    * @dev Get Project Status by Index\n    * @param _index Index of the Project \n    * @return Project represents the Project\n    */\n    function getProjectStatus(uint _index) public view returns (bool active, // \n                                                        bool success, // \n                                                        uint8 claimed) {\n        ProjectStatus memory project = statuses[_index];\n        return (project.active, project.success, project.claimed);\n    }\n\n    /**\n    * @dev Get Project Referees by Index\n    * @param _index Index of the Project \n    * @return Project represents the Project\n    */\n    function getProjectReferees(uint _index) public view returns (address, \n                                                        address,\n                                                        address) {\n        ProjectReferees memory project = referees[_index];\n        return (project.referee1, project.referee2, project.referee3);\n    }\n\n    /**\n    * @dev Get My Project List\n    * @param _address address \n    * @return uint[] represents the number of my Projects\n    */\n    function getMyProjectList(address _address) public view returns (uint[] list) {\n        return apMap[_address];\n    }\n\n    /**\n    * @dev Get All Proof Count\n    * @return uint represents the count of All Project Proofs\n    */\n    function getAllProofsCount() public view returns (uint) {\n        return proofs.length;\n    }\n\n    /**\n    * @dev Get Proof Count\n    * @param _index index of 0..<number of my Projects\n    * @return uint represents the count of my Projects Proof\n    */\n    function getProofsCount(uint _index) public view returns (uint) {\n        return ppMap[_index].length;\n    }\n\n    /**\n    * @dev Get Proof\n    * @param _index index of proof \n    * @return proof information\n    */\n    function getProof(uint _index) public view returns (string name,\n        string memo,\n        uint projectNo,\n        uint timestamp,\n        uint8 judged,\n        address[] like,\n        address[] dislike) {\n        return (\n            proofs[_index].name,\n            proofs[_index].memo,\n            proofs[_index].projectNo,\n            proofs[_index].timestamp,\n            proofs[_index].judged,\n            proofs[_index].like,\n            proofs[_index].dislike\n        );\n    }\n\n    function getProofList(uint _index) public view returns (uint[] list) {\n        return ppMap[_index];\n    }\n\n    function getJudgeList(address _address) public view returns (uint[] list) {\n        return rpMap[_address];\n    }\n\n    function getParticipantProofList(address _address) public view returns (uint[] list) {\n        return apfMap[_address];\n    }\n\n    /**\n    * @dev Get Claim\n    * @param _index proof index  \n    * @return claim information\n    */\n    function getClaim(uint _index) public view returns (string name,\n                                                        string memo,\n                                                        uint timestamp,\n                                                        uint8 judged) {\n        Proof memory claim = claims[_index];\n        return (\n            claim.name,\n            claim.memo,\n            claim.timestamp,\n            claim.judged\n        );\n    }\n\n    function random() internal returns (uint) {\n        uint randomnumber = uint(keccak256(abi.encodePacked(now, msg.sender, nonce))) % infos.length;\n        nonce++;\n        return randomnumber;\n    }\n\n    function createInfo(string _name,\n                            string _description,\n                            uint _startDate,\n                            uint _endDate) internal returns (bool) {\n        ProjectInfo memory newProject;\n        newProject.name = _name;\n        newProject.description = _description;\n        newProject.startDate = _startDate;\n        newProject.endDate = _endDate;\n        newProject.participant = msg.sender;\n        newProject.freezeAmount = msg.value;\n        infos.push(newProject);\n        return true;\n    }\n\n    function createStatus() internal returns (bool) {\n        ProjectStatus memory newProject;\n        newProject.active = true;\n        newProject.success = true;\n        newProject.claimed = 0;\n        statuses.push(newProject);\n        return true;\n    }\n\n    function createReferees() internal returns (bool) {\n        ProjectReferees memory newProject;\n        uint randNum = random();\n        newProject.referee1 = whiteList[randNum];\n        randNum = (randNum + 1) % whiteList.length;\n        newProject.referee2 = whiteList[randNum];\n        randNum = (randNum + 1) % whiteList.length;\n        newProject.referee3 = whiteList[randNum];\n        referees.push(newProject);\n        return true;\n    }\n\n    function calculateProof(uint _index) internal view returns (bool) {\n        uint successCount = 0;\n        uint failCount = 0;\n\n        if (proof.judged == 129) {\n            return false;\n        }\n\n        if (proof.judged == 128) {\n            return true;\n        }\n\n        Proof memory proof = proofs[_index];\n        if (proof.judged / 64 == 1) {\n            proof.judged %= 64;\n            successCount += 1;\n        }\n        if (proof.judged / 32 == 1) {\n            proof.judged %= 32;\n            successCount += 1;\n        }\n        if (proof.judged / 16 == 1) {\n            proof.judged %= 16;\n            successCount += 1;\n        }\n        if (successCount >= 2) return true;\n\n        if (proof.judged / 8 == 1) {\n            proof.judged %= 8;\n            failCount += 1;\n        }\n        if (proof.judged / 4 == 1) {\n            proof.judged %= 4;\n            failCount += 1;\n        }\n        if (proof.judged / 2 == 1) {\n            proof.judged %= 2;\n            failCount += 1;\n        }\n        if (failCount >= 2) return false;\n\n        if (successCount > failCount) {\n            return proof.like.length + 10 > proof.dislike.length;\n        } else if (failCount < successCount) {\n            return proof.like.length > proof.dislike.length;\n        } else {\n            return proof.like.length + 5 > proof.dislike.length;\n        }\n    }\n}\n",
  "sourcePath": "/Users/junpark/codingcoding/dodo-klaytn/contracts/DodoRepository.sol",
  "compiler": {
    "name": "solc",
    "version": "0.4.25+commit.59dbf8f1.Emscripten.clang"
  },
  "schemaVersion": "2.0.2",
  "updatedAt": "2019-05-25T16:13:30.056Z"
}