{
  "contractName": "DodoRepository",
  "abi": [
    {
      "constant": true,
      "inputs": [
        {
          "name": "",
          "type": "uint256"
        }
      ],
      "name": "infos",
      "outputs": [
        {
          "name": "name",
          "type": "string"
        },
        {
          "name": "description",
          "type": "string"
        },
        {
          "name": "participant",
          "type": "address"
        },
        {
          "name": "startDate",
          "type": "uint256"
        },
        {
          "name": "endDate",
          "type": "uint256"
        },
        {
          "name": "freezeAmount",
          "type": "uint256"
        }
      ],
      "payable": false,
      "stateMutability": "view",
      "type": "function"
    },
    {
      "constant": true,
      "inputs": [
        {
          "name": "",
          "type": "uint256"
        }
      ],
      "name": "whiteList",
      "outputs": [
        {
          "name": "",
          "type": "address"
        }
      ],
      "payable": false,
      "stateMutability": "view",
      "type": "function"
    },
    {
      "constant": true,
      "inputs": [
        {
          "name": "",
          "type": "uint256"
        }
      ],
      "name": "blackList",
      "outputs": [
        {
          "name": "",
          "type": "address"
        }
      ],
      "payable": false,
      "stateMutability": "view",
      "type": "function"
    },
    {
      "constant": true,
      "inputs": [
        {
          "name": "",
          "type": "uint256"
        }
      ],
      "name": "proofs",
      "outputs": [
        {
          "name": "name",
          "type": "string"
        },
        {
          "name": "memo",
          "type": "string"
        },
        {
          "name": "projectNo",
          "type": "uint256"
        },
        {
          "name": "timestamp",
          "type": "uint256"
        },
        {
          "name": "judged",
          "type": "uint8"
        }
      ],
      "payable": false,
      "stateMutability": "view",
      "type": "function"
    },
    {
      "constant": true,
      "inputs": [
        {
          "name": "",
          "type": "uint256"
        }
      ],
      "name": "statuses",
      "outputs": [
        {
          "name": "active",
          "type": "bool"
        },
        {
          "name": "success",
          "type": "bool"
        },
        {
          "name": "claimed",
          "type": "uint8"
        }
      ],
      "payable": false,
      "stateMutability": "view",
      "type": "function"
    },
    {
      "constant": true,
      "inputs": [
        {
          "name": "",
          "type": "uint256"
        }
      ],
      "name": "referees",
      "outputs": [
        {
          "name": "referee1",
          "type": "address"
        },
        {
          "name": "referee2",
          "type": "address"
        },
        {
          "name": "referee3",
          "type": "address"
        }
      ],
      "payable": false,
      "stateMutability": "view",
      "type": "function"
    },
    {
      "inputs": [],
      "payable": false,
      "stateMutability": "nonpayable",
      "type": "constructor"
    },
    {
      "payable": true,
      "stateMutability": "payable",
      "type": "fallback"
    },
    {
      "constant": false,
      "inputs": [
        {
          "name": "_name",
          "type": "string"
        },
        {
          "name": "_description",
          "type": "string"
        },
        {
          "name": "_startDate",
          "type": "uint256"
        },
        {
          "name": "_endDate",
          "type": "uint256"
        }
      ],
      "name": "createProject",
      "outputs": [
        {
          "name": "",
          "type": "bool"
        }
      ],
      "payable": true,
      "stateMutability": "payable",
      "type": "function"
    },
    {
      "constant": false,
      "inputs": [
        {
          "name": "_index",
          "type": "uint256"
        }
      ],
      "name": "finalizeProject",
      "outputs": [
        {
          "name": "",
          "type": "bool"
        }
      ],
      "payable": true,
      "stateMutability": "payable",
      "type": "function"
    },
    {
      "constant": false,
      "inputs": [
        {
          "name": "_index",
          "type": "uint256"
        },
        {
          "name": "name",
          "type": "string"
        },
        {
          "name": "memo",
          "type": "string"
        }
      ],
      "name": "submitProof",
      "outputs": [
        {
          "name": "",
          "type": "bool"
        }
      ],
      "payable": false,
      "stateMutability": "nonpayable",
      "type": "function"
    },
    {
      "constant": false,
      "inputs": [
        {
          "name": "_index",
          "type": "uint256"
        },
        {
          "name": "name",
          "type": "string"
        },
        {
          "name": "memo",
          "type": "string"
        }
      ],
      "name": "claimJudge",
      "outputs": [
        {
          "name": "",
          "type": "bool"
        }
      ],
      "payable": false,
      "stateMutability": "nonpayable",
      "type": "function"
    },
    {
      "constant": false,
      "inputs": [
        {
          "name": "_index",
          "type": "uint256"
        }
      ],
      "name": "claimApprove",
      "outputs": [
        {
          "name": "",
          "type": "bool"
        }
      ],
      "payable": false,
      "stateMutability": "nonpayable",
      "type": "function"
    },
    {
      "constant": false,
      "inputs": [
        {
          "name": "_index",
          "type": "uint256"
        }
      ],
      "name": "claimDecline",
      "outputs": [
        {
          "name": "",
          "type": "bool"
        }
      ],
      "payable": false,
      "stateMutability": "nonpayable",
      "type": "function"
    },
    {
      "constant": false,
      "inputs": [],
      "name": "applyReferee",
      "outputs": [
        {
          "name": "",
          "type": "bool"
        }
      ],
      "payable": false,
      "stateMutability": "nonpayable",
      "type": "function"
    },
    {
      "constant": false,
      "inputs": [],
      "name": "cancelReferee",
      "outputs": [
        {
          "name": "",
          "type": "bool"
        }
      ],
      "payable": false,
      "stateMutability": "nonpayable",
      "type": "function"
    },
    {
      "constant": false,
      "inputs": [
        {
          "name": "_index",
          "type": "uint256"
        }
      ],
      "name": "likeProof",
      "outputs": [
        {
          "name": "",
          "type": "bool"
        }
      ],
      "payable": false,
      "stateMutability": "nonpayable",
      "type": "function"
    },
    {
      "constant": false,
      "inputs": [
        {
          "name": "_index",
          "type": "uint256"
        }
      ],
      "name": "dislikeProof",
      "outputs": [
        {
          "name": "",
          "type": "bool"
        }
      ],
      "payable": false,
      "stateMutability": "nonpayable",
      "type": "function"
    },
    {
      "constant": true,
      "inputs": [],
      "name": "getWhiteList",
      "outputs": [
        {
          "name": "",
          "type": "address[]"
        }
      ],
      "payable": false,
      "stateMutability": "view",
      "type": "function"
    },
    {
      "constant": true,
      "inputs": [],
      "name": "getProjectCounts",
      "outputs": [
        {
          "name": "",
          "type": "uint256"
        }
      ],
      "payable": false,
      "stateMutability": "view",
      "type": "function"
    },
    {
      "constant": true,
      "inputs": [
        {
          "name": "_index",
          "type": "uint256"
        }
      ],
      "name": "getProjectInfo",
      "outputs": [
        {
          "name": "name",
          "type": "string"
        },
        {
          "name": "description",
          "type": "string"
        },
        {
          "name": "participant",
          "type": "address"
        },
        {
          "name": "startDate",
          "type": "uint256"
        },
        {
          "name": "endDate",
          "type": "uint256"
        },
        {
          "name": "freeAmount",
          "type": "uint256"
        }
      ],
      "payable": false,
      "stateMutability": "view",
      "type": "function"
    },
    {
      "constant": true,
      "inputs": [
        {
          "name": "_index",
          "type": "uint256"
        }
      ],
      "name": "getProjectStatus",
      "outputs": [
        {
          "name": "active",
          "type": "bool"
        },
        {
          "name": "success",
          "type": "bool"
        },
        {
          "name": "claimed",
          "type": "uint8"
        }
      ],
      "payable": false,
      "stateMutability": "view",
      "type": "function"
    },
    {
      "constant": true,
      "inputs": [
        {
          "name": "_index",
          "type": "uint256"
        }
      ],
      "name": "getProjectReferees",
      "outputs": [
        {
          "name": "",
          "type": "address"
        },
        {
          "name": "",
          "type": "address"
        },
        {
          "name": "",
          "type": "address"
        }
      ],
      "payable": false,
      "stateMutability": "view",
      "type": "function"
    },
    {
      "constant": true,
      "inputs": [
        {
          "name": "_address",
          "type": "address"
        }
      ],
      "name": "getMyProjectList",
      "outputs": [
        {
          "name": "list",
          "type": "uint256[]"
        }
      ],
      "payable": false,
      "stateMutability": "view",
      "type": "function"
    },
    {
      "constant": true,
      "inputs": [],
      "name": "getAllProofsCount",
      "outputs": [
        {
          "name": "",
          "type": "uint256"
        }
      ],
      "payable": false,
      "stateMutability": "view",
      "type": "function"
    },
    {
      "constant": true,
      "inputs": [
        {
          "name": "_index",
          "type": "uint256"
        }
      ],
      "name": "getProofsCount",
      "outputs": [
        {
          "name": "",
          "type": "uint256"
        }
      ],
      "payable": false,
      "stateMutability": "view",
      "type": "function"
    },
    {
      "constant": true,
      "inputs": [
        {
          "name": "_index",
          "type": "uint256"
        }
      ],
      "name": "getProof",
      "outputs": [
        {
          "name": "name",
          "type": "string"
        },
        {
          "name": "memo",
          "type": "string"
        },
        {
          "name": "projectNo",
          "type": "uint256"
        },
        {
          "name": "timestamp",
          "type": "uint256"
        },
        {
          "name": "judged",
          "type": "uint8"
        },
        {
          "name": "like",
          "type": "address[]"
        },
        {
          "name": "dislike",
          "type": "address[]"
        }
      ],
      "payable": false,
      "stateMutability": "view",
      "type": "function"
    },
    {
      "constant": true,
      "inputs": [
        {
          "name": "_index",
          "type": "uint256"
        }
      ],
      "name": "getProofList",
      "outputs": [
        {
          "name": "list",
          "type": "uint256[]"
        }
      ],
      "payable": false,
      "stateMutability": "view",
      "type": "function"
    },
    {
      "constant": true,
      "inputs": [
        {
          "name": "_address",
          "type": "address"
        }
      ],
      "name": "getJudgeList",
      "outputs": [
        {
          "name": "list",
          "type": "uint256[]"
        }
      ],
      "payable": false,
      "stateMutability": "view",
      "type": "function"
    },
    {
      "constant": true,
      "inputs": [
        {
          "name": "_index",
          "type": "uint256"
        }
      ],
      "name": "getClaim",
      "outputs": [
        {
          "name": "name",
          "type": "string"
        },
        {
          "name": "memo",
          "type": "string"
        },
        {
          "name": "timestamp",
          "type": "uint256"
        },
        {
          "name": "judged",
          "type": "uint8"
        }
      ],
      "payable": false,
      "stateMutability": "view",
      "type": "function"
    }
  ],
  "bytecode": "0x60806040526202a300600b556000600c5534801561001c57600080fd5b5073bf128f013f40ec7fdfe95d0a298e85764f628e7f6000806101000a81548173ffffffffffffffffffffffffffffffffffffffff021916908373ffffffffffffffffffffffffffffffffffffffff160217905550600973bf128f013f40ec7fdfe95d0a298e85764f628e7f90806001815401808255809150509060018203906000526020600020016000909192909190916101000a81548173ffffffffffffffffffffffffffffffffffffffff021916908373ffffffffffffffffffffffffffffffffffffffff16021790555050614e7e806100fa6000396000f30060806040526004361061016a576000357c0100000000000000000000000000000000000000000000000000000000900463ffffffff16806307f4f2841461016f57806309a9d76c1461024057806311149ada146102ac57806328de3c9b146104695780632ee6f708146105c35780633a0f45bb1461065b5780634d1d55341461072c5780634d798de5146107ae57806353ab1128146107e65780635aef2447146108275780635c475d421461094d578063709ec8b4146109ba5780637952ce5114610a275780638dc039b414610a6c57806394ba970914610b3f5780639675c00914610c0d578063973a714f14610c6a5780639ddaf5aa14610caf578063a3a8b0cb14610ddc578063b3219bfa14610e21578063b780aa7d14610e50578063d820951314610ee8578063d96f726214610f13578063e67b932c14610f58578063edb5ae8a14610fb5578063eef60e0c14611088578063f60981be146110b7578063fabf5968146110e2575b600080fd5b34801561017b57600080fd5b5061022660048036038101908080359060200190929190803590602001908201803590602001908080601f0160208091040260200160405190810160405280939291908181526020018383808284378201915050505050509192919290803590602001908201803590602001908080601f016020809104026020016040519081016040528093929190818152602001838380828437820191505050505050919291929050505061123c565b604051808215151515815260200191505060405180910390f35b34801561024c57600080fd5b506102556116c8565b6040518080602001828103825283818151815260200191508051906020019060200280838360005b8381101561029857808201518184015260208101905061027d565b505050509050019250505060405180910390f35b3480156102b857600080fd5b506102d760048036038101908080359060200190929190505050611756565b6040518080602001806020018881526020018781526020018660ff1660ff168152602001806020018060200185810385528c818151815260200191508051906020019080838360005b8381101561033b578082015181840152602081019050610320565b50505050905090810190601f1680156103685780820380516001836020036101000a031916815260200191505b5085810384528b818151815260200191508051906020019080838360005b838110156103a1578082015181840152602081019050610386565b50505050905090810190601f1680156103ce5780820380516001836020036101000a031916815260200191505b50858103835287818151815260200191508051906020019060200280838360005b8381101561040a5780820151818401526020810190506103ef565b50505050905001858103825286818151815260200191508051906020019060200280838360005b8381101561044c578082015181840152602081019050610431565b505050509050019b50505050505050505050505060405180910390f35b34801561047557600080fd5b5061049460048036038101908080359060200190929190505050611ab2565b6040518080602001806020018773ffffffffffffffffffffffffffffffffffffffff1673ffffffffffffffffffffffffffffffffffffffff168152602001868152602001858152602001848152602001838103835289818151815260200191508051906020019080838360005b8381101561051c578082015181840152602081019050610501565b50505050905090810190601f1680156105495780820380516001836020036101000a031916815260200191505b50838103825288818151815260200191508051906020019080838360005b83811015610582578082015181840152602081019050610567565b50505050905090810190601f1680156105af5780820380516001836020036101000a031916815260200191505b509850505050505050505060405180910390f35b3480156105cf57600080fd5b50610604600480360381019080803573ffffffffffffffffffffffffffffffffffffffff169060200190929190505050611c4d565b6040518080602001828103825283818151815260200191508051906020019060200280838360005b8381101561064757808201518184015260208101905061062c565b505050509050019250505060405180910390f35b34801561066757600080fd5b5061071260048036038101908080359060200190929190803590602001908201803590602001908080601f0160208091040260200160405190810160405280939291908181526020018383808284378201915050505050509192919290803590602001908201803590602001908080601f0160208091040260200160405190810160405280939291908181526020018383808284378201915050505050509192919290505050611ce4565b604051808215151515815260200191505060405180910390f35b34801561073857600080fd5b5061075760048036038101908080359060200190929190505050611fb6565b6040518080602001828103825283818151815260200191508051906020019060200280838360005b8381101561079a57808201518184015260208101905061077f565b505050509050019250505060405180910390f35b6107cc60048036038101908080359060200190929190505050612021565b604051808215151515815260200191505060405180910390f35b3480156107f257600080fd5b5061081160048036038101908080359060200190929190505050612550565b6040518082815260200191505060405180910390f35b34801561083357600080fd5b5061085260048036038101908080359060200190929190505050612570565b6040518080602001806020018581526020018460ff1660ff168152602001838103835287818151815260200191508051906020019080838360005b838110156108a857808201518184015260208101905061088d565b50505050905090810190601f1680156108d55780820380516001836020036101000a031916815260200191505b50838103825286818151815260200191508051906020019080838360005b8381101561090e5780820151818401526020810190506108f3565b50505050905090810190601f16801561093b5780820380516001836020036101000a031916815260200191505b50965050505050505060405180910390f35b34801561095957600080fd5b506109786004803603810190808035906020019092919050505061285a565b604051808273ffffffffffffffffffffffffffffffffffffffff1673ffffffffffffffffffffffffffffffffffffffff16815260200191505060405180910390f35b3480156109c657600080fd5b506109e560048036038101908080359060200190929190505050612898565b604051808273ffffffffffffffffffffffffffffffffffffffff1673ffffffffffffffffffffffffffffffffffffffff16815260200191505060405180910390f35b348015610a3357600080fd5b50610a52600480360381019080803590602001909291905050506128d6565b604051808215151515815260200191505060405180910390f35b348015610a7857600080fd5b50610a9760048036038101908080359060200190929190505050612b42565b604051808473ffffffffffffffffffffffffffffffffffffffff1673ffffffffffffffffffffffffffffffffffffffff1681526020018373ffffffffffffffffffffffffffffffffffffffff1673ffffffffffffffffffffffffffffffffffffffff1681526020018273ffffffffffffffffffffffffffffffffffffffff1673ffffffffffffffffffffffffffffffffffffffff168152602001935050505060405180910390f35b610bf3600480360381019080803590602001908201803590602001908080601f0160208091040260200160405190810160405280939291908181526020018383808284378201915050505050509192919290803590602001908201803590602001908080601f01602080910402602001604051908101604052809392919081815260200183838082843782019150505050505091929192908035906020019092919080359060200190929190505050612c99565b604051808215151515815260200191505060405180910390f35b348015610c1957600080fd5b50610c3860048036038101908080359060200190929190505050612d4b565b6040518084151515158152602001831515151581526020018260ff1660ff168152602001935050505060405180910390f35b348015610c7657600080fd5b50610c9560048036038101908080359060200190929190505050612def565b604051808215151515815260200191505060405180910390f35b348015610cbb57600080fd5b50610cda6004803603810190808035906020019092919050505061305b565b6040518080602001806020018681526020018581526020018460ff1660ff168152602001838103835288818151815260200191508051906020019080838360005b83811015610d36578082015181840152602081019050610d1b565b50505050905090810190601f168015610d635780820380516001836020036101000a031916815260200191505b50838103825287818151815260200191508051906020019080838360005b83811015610d9c578082015181840152602081019050610d81565b50505050905090810190601f168015610dc95780820380516001836020036101000a031916815260200191505b5097505050505050505060405180910390f35b348015610de857600080fd5b50610e07600480360381019080803590602001909291905050506131dd565b604051808215151515815260200191505060405180910390f35b348015610e2d57600080fd5b50610e36613668565b604051808215151515815260200191505060405180910390f35b348015610e5c57600080fd5b50610e91600480360381019080803573ffffffffffffffffffffffffffffffffffffffff1690602001909291905050506136d7565b6040518080602001828103825283818151815260200191508051906020019060200280838360005b83811015610ed4578082015181840152602081019050610eb9565b505050509050019250505060405180910390f35b348015610ef457600080fd5b50610efd61376e565b6040518082815260200191505060405180910390f35b348015610f1f57600080fd5b50610f3e6004803603810190808035906020019092919050505061377b565b604051808215151515815260200191505060405180910390f35b348015610f6457600080fd5b50610f8360048036038101908080359060200190929190505050613c06565b6040518084151515158152602001831515151581526020018260ff1660ff168152602001935050505060405180910390f35b348015610fc157600080fd5b50610fe060048036038101908080359060200190929190505050613c62565b604051808473ffffffffffffffffffffffffffffffffffffffff1673ffffffffffffffffffffffffffffffffffffffff1681526020018373ffffffffffffffffffffffffffffffffffffffff1673ffffffffffffffffffffffffffffffffffffffff1681526020018273ffffffffffffffffffffffffffffffffffffffff1673ffffffffffffffffffffffffffffffffffffffff168152602001935050505060405180910390f35b34801561109457600080fd5b5061109d613cfb565b604051808215151515815260200191505060405180910390f35b3480156110c357600080fd5b506110cc613e54565b6040518082815260200191505060405180910390f35b3480156110ee57600080fd5b5061110d60048036038101908080359060200190929190505050613e61565b6040518080602001806020018773ffffffffffffffffffffffffffffffffffffffff1673ffffffffffffffffffffffffffffffffffffffff168152602001868152602001858152602001848152602001838103835289818151815260200191508051906020019080838360005b8381101561119557808201518184015260208101905061117a565b50505050905090810190601f1680156111c25780820380516001836020036101000a031916815260200191505b50838103825288818151815260200191508051906020019080838360005b838110156111fb5780820151818401526020810190506111e0565b50505050905090810190601f1680156112285780820380516001836020036101000a031916815260200191505b509850505050505050505060405180910390f35b6000611246614b99565b8460018181548110151561125657fe5b906000526020600020906006020160020160009054906101000a900473ffffffffffffffffffffffffffffffffffffffff1673ffffffffffffffffffffffffffffffffffffffff163373ffffffffffffffffffffffffffffffffffffffff16141515611350576040517f08c379a00000000000000000000000000000000000000000000000000000000081526004018080602001828103825260308152602001807f54686973207472616e73616374696f6e206d7573742062652063616c6c65642081526020017f62792070726f6a656374206f776e65720000000000000000000000000000000081525060400191505060405180910390fd5b848260000181905250838260200181905250428260600181815250506000826080019060ff16908160ff1681525050858260400181815250506005829080600181540180825580915050906001820390600052602060002090600702016000909192909190915060008201518160000190805190602001906113d3929190614bda565b5060208201518160010190805190602001906113f0929190614bda565b50604082015181600201556060820151816003015560808201518160040160006101000a81548160ff021916908360ff16021790555060a0820151816005019080519060200190611442929190614c5a565b5060c082015181600601908051906020019061145f929190614c5a565b50505050600660008781526020019081526020016000206001600580549050039080600181540180825580915050906001820390600052602060002001600090919290919091505550600760006003888154811015156114bb57fe5b906000526020600020906003020160000160009054906101000a900473ffffffffffffffffffffffffffffffffffffffff1673ffffffffffffffffffffffffffffffffffffffff1673ffffffffffffffffffffffffffffffffffffffff16815260200190815260200160002060016005805490500390806001815401808255809150509060018203906000526020600020016000909192909190915055506007600060038881548110151561156c57fe5b906000526020600020906003020160010160009054906101000a900473ffffffffffffffffffffffffffffffffffffffff1673ffffffffffffffffffffffffffffffffffffffff1673ffffffffffffffffffffffffffffffffffffffff16815260200190815260200160002060016005805490500390806001815401808255809150509060018203906000526020600020016000909192909190915055506007600060038881548110151561161d57fe5b906000526020600020906003020160020160009054906101000a900473ffffffffffffffffffffffffffffffffffffffff1673ffffffffffffffffffffffffffffffffffffffff1673ffffffffffffffffffffffffffffffffffffffff16815260200190815260200160002060016005805490500390806001815401808255809150509060018203906000526020600020016000909192909190915055506001925050509392505050565b6060600980548060200260200160405190810160405280929190818152602001828054801561174c57602002820191906000526020600020905b8160009054906101000a900473ffffffffffffffffffffffffffffffffffffffff1673ffffffffffffffffffffffffffffffffffffffff1681526020019060010190808311611702575b5050505050905090565b606080600080600060608060058881548110151561177057fe5b906000526020600020906007020160000160058981548110151561179057fe5b906000526020600020906007020160010160058a8154811015156117b057fe5b90600052602060002090600702016002015460058b8154811015156117d157fe5b90600052602060002090600702016003015460058c8154811015156117f257fe5b906000526020600020906007020160040160009054906101000a900460ff1660058d81548110151561182057fe5b906000526020600020906007020160050160058e81548110151561184057fe5b9060005260206000209060070201600601868054600181600116156101000203166002900480601f0160208091040260200160405190810160405280929190818152602001828054600181600116156101000203166002900480156118e65780601f106118bb576101008083540402835291602001916118e6565b820191906000526020600020905b8154815290600101906020018083116118c957829003601f168201915b50505050509650858054600181600116156101000203166002900480601f0160208091040260200160405190810160405280929190818152602001828054600181600116156101000203166002900480156119825780601f1061195757610100808354040283529160200191611982565b820191906000526020600020905b81548152906001019060200180831161196557829003601f168201915b5050505050955081805480602002602001604051908101604052809291908181526020018280548015611a0a57602002820191906000526020600020905b8160009054906101000a900473ffffffffffffffffffffffffffffffffffffffff1673ffffffffffffffffffffffffffffffffffffffff16815260200190600101908083116119c0575b5050505050915080805480602002602001604051908101604052809291908181526020018280548015611a9257602002820191906000526020600020905b8160009054906101000a900473ffffffffffffffffffffffffffffffffffffffff1673ffffffffffffffffffffffffffffffffffffffff1681526020019060010190808311611a48575b505050505090509650965096509650965096509650919395979092949650565b600181815481101515611ac157fe5b9060005260206000209060060201600091509050806000018054600181600116156101000203166002900480601f016020809104026020016040519081016040528092919081815260200182805460018160011615610100020316600290048015611b6d5780601f10611b4257610100808354040283529160200191611b6d565b820191906000526020600020905b815481529060010190602001808311611b5057829003601f168201915b505050505090806001018054600181600116156101000203166002900480601f016020809104026020016040519081016040528092919081815260200182805460018160011615610100020316600290048015611c0b5780601f10611be057610100808354040283529160200191611c0b565b820191906000526020600020905b815481529060010190602001808311611bee57829003601f168201915b5050505050908060020160009054906101000a900473ffffffffffffffffffffffffffffffffffffffff16908060030154908060040154908060050154905086565b6060600760008373ffffffffffffffffffffffffffffffffffffffff1673ffffffffffffffffffffffffffffffffffffffff168152602001908152602001600020805480602002602001604051908101604052809291908181526020018280548015611cd857602002820191906000526020600020905b815481526020019060010190808311611cc4575b50505050509050919050565b6000611cee614b99565b846001600582815481101515611d0057fe5b906000526020600020906007020160020154815481101515611d1e57fe5b906000526020600020906006020160020160009054906101000a900473ffffffffffffffffffffffffffffffffffffffff1673ffffffffffffffffffffffffffffffffffffffff163373ffffffffffffffffffffffffffffffffffffffff16141515611e18576040517f08c379a00000000000000000000000000000000000000000000000000000000081526004018080602001828103825260308152602001807f54686973207472616e73616374696f6e206d7573742062652063616c6c65642081526020017f62792070726f6a656374206f776e65720000000000000000000000000000000081525060400191505060405180910390fd5b848260000181905250838260200181905250428260600181815250506001826080019060ff16908160ff168152505081600860008881526020019081526020016000206000820151816000019080519060200190611e77929190614bda565b506020820151816001019080519060200190611e94929190614bda565b50604082015181600201556060820151816003015560808201518160040160006101000a81548160ff021916908360ff16021790555060a0820151816005019080519060200190611ee6929190614c5a565b5060c0820151816006019080519060200190611f03929190614c5a565b509050506001600587815481101515611f1857fe5b906000526020600020906007020160040160006101000a81548160ff021916908360ff16021790555060016002600588815481101515611f5457fe5b906000526020600020906007020160020154815481101515611f7257fe5b9060005260206000200160000160028282829054906101000a900460ff160192506101000a81548160ff021916908360ff1602179055506001925050509392505050565b60606006600083815260200190815260200160002080548060200260200160405190810160405280929190818152602001828054801561201557602002820191906000526020600020905b815481526020019060010190808311612001575b50505050509050919050565b600061202b614ce4565b612033614d31565b60008060018681548110151561204557fe5b906000526020600020906006020160c06040519081016040529081600082018054600181600116156101000203166002900480601f0160208091040260200160405190810160405280929190818152602001828054600181600116156101000203166002900480156120f85780601f106120cd576101008083540402835291602001916120f8565b820191906000526020600020905b8154815290600101906020018083116120db57829003601f168201915b50505050508152602001600182018054600181600116156101000203166002900480601f01602080910402602001604051908101604052809291908181526020018280546001816001161561010002031660029004801561219a5780601f1061216f5761010080835404028352916020019161219a565b820191906000526020600020905b81548152906001019060200180831161217d57829003601f168201915b505050505081526020016002820160009054906101000a900473ffffffffffffffffffffffffffffffffffffffff1673ffffffffffffffffffffffffffffffffffffffff1673ffffffffffffffffffffffffffffffffffffffff1681526020016003820154815260200160048201548152602001600582015481525050935060028681548110151561222857fe5b90600052602060002001606060405190810160405290816000820160009054906101000a900460ff161515151581526020016000820160019054906101000a900460ff161515151581526020016000820160029054906101000a900460ff1660ff1660ff16815250509250600183604001510160ff16600b54028460800151014210151515612345576040517f08c379a00000000000000000000000000000000000000000000000000000000081526004018080602001828103825260398152602001807f54686973207472616e73616374696f6e206d757374206265206669726564206181526020017f6674657220636c61696d20646174652066696e6973686564210000000000000081525060400191505060405180910390fd5b60009150600090505b60066000878152602001908152602001600020805490508110156123b85761239f600660008881526020019081526020016000208281548110151561238f57fe5b906000526020600020015461408f565b156123ab576001820191505b808060010191505061234e565b6201518060088560600151866080015103028115156123d357fe5b04600a8302101583602001901515908115158152505060008360000190151590811515815250508260028781548110151561240a57fe5b9060005260206000200160008201518160000160006101000a81548160ff02191690831515021790555060208201518160000160016101000a81548160ff02191690831515021790555060408201518160000160026101000a81548160ff021916908360ff1602179055509050508260200151156124d657836040015173ffffffffffffffffffffffffffffffffffffffff166108fc8560a001519081150290604051600060405180830381858888f193505050501580156124d0573d6000803e3d6000fd5b50612543565b6000809054906101000a900473ffffffffffffffffffffffffffffffffffffffff1673ffffffffffffffffffffffffffffffffffffffff166108fc8560a001519081150290604051600060405180830381858888f19350505050158015612541573d6000803e3d6000fd5b505b6001945050505050919050565b600060066000838152602001908152602001600020805490509050919050565b60608060008061257e614b99565b6008600087815260200190815260200160002060e06040519081016040529081600082018054600181600116156101000203166002900480601f0160208091040260200160405190810160405280929190818152602001828054600181600116156101000203166002900480156126365780601f1061260b57610100808354040283529160200191612636565b820191906000526020600020905b81548152906001019060200180831161261957829003601f168201915b50505050508152602001600182018054600181600116156101000203166002900480601f0160208091040260200160405190810160405280929190818152602001828054600181600116156101000203166002900480156126d85780601f106126ad576101008083540402835291602001916126d8565b820191906000526020600020905b8154815290600101906020018083116126bb57829003601f168201915b5050505050815260200160028201548152602001600382015481526020016004820160009054906101000a900460ff1660ff1660ff1681526020016005820180548060200260200160405190810160405280929190818152602001828054801561279757602002820191906000526020600020905b8160009054906101000a900473ffffffffffffffffffffffffffffffffffffffff1673ffffffffffffffffffffffffffffffffffffffff168152602001906001019080831161274d575b505050505081526020016006820180548060200260200160405190810160405280929190818152602001828054801561282557602002820191906000526020600020905b8160009054906101000a900473ffffffffffffffffffffffffffffffffffffffff1673ffffffffffffffffffffffffffffffffffffffff16815260200190600101908083116127db575b505050505081525050905080600001518160200151826060015183608001518393508292509450945094509450509193509193565b60098181548110151561286957fe5b906000526020600020016000915054906101000a900473ffffffffffffffffffffffffffffffffffffffff1681565b600a818154811015156128a757fe5b906000526020600020016000915054906101000a900473ffffffffffffffffffffffffffffffffffffffff1681565b6000816003818154811015156128e857fe5b906000526020600020906003020160000160009054906101000a900473ffffffffffffffffffffffffffffffffffffffff1673ffffffffffffffffffffffffffffffffffffffff163373ffffffffffffffffffffffffffffffffffffffff1614806129be575060038181548110151561295d57fe5b906000526020600020906003020160010160009054906101000a900473ffffffffffffffffffffffffffffffffffffffff1673ffffffffffffffffffffffffffffffffffffffff163373ffffffffffffffffffffffffffffffffffffffff16145b80612a3457506003818154811015156129d357fe5b906000526020600020906003020160020160009054906101000a900473ffffffffffffffffffffffffffffffffffffffff1673ffffffffffffffffffffffffffffffffffffffff163373ffffffffffffffffffffffffffffffffffffffff16145b1515612ace576040517f08c379a00000000000000000000000000000000000000000000000000000000081526004018080602001828103825260338152602001807f54686973207472616e73616374696f6e206d7573742062652063616c6c65642081526020017f62792070726f6a6563742072656665726565210000000000000000000000000081525060400191505060405180910390fd5b6080600584815481101515612adf57fe5b906000526020600020906007020160040160006101000a81548160ff021916908360ff16021790555060806008600085815260200190815260200160002060040160006101000a81548160ff021916908360ff1602179055506001915050919050565b6000806000612b4f614d5a565b600385815481101515612b5e57fe5b9060005260206000209060030201606060405190810160405290816000820160009054906101000a900473ffffffffffffffffffffffffffffffffffffffff1673ffffffffffffffffffffffffffffffffffffffff1673ffffffffffffffffffffffffffffffffffffffff1681526020016001820160009054906101000a900473ffffffffffffffffffffffffffffffffffffffff1673ffffffffffffffffffffffffffffffffffffffff1673ffffffffffffffffffffffffffffffffffffffff1681526020016002820160009054906101000a900473ffffffffffffffffffffffffffffffffffffffff1673ffffffffffffffffffffffffffffffffffffffff1673ffffffffffffffffffffffffffffffffffffffff16815250509050806000015181602001518260400151935093509350509193909250565b6000612ca7858585856145d0565b8015612cb75750612cb661471f565b5b8015612cc75750612cc66147f4565b5b1515612ccf57fe5b600460003373ffffffffffffffffffffffffffffffffffffffff1673ffffffffffffffffffffffffffffffffffffffff1681526020019081526020016000206001808054905003908060018154018082558091505090600182039060005260206000200160009091929091909150555060019050949350505050565b6000806000612d58614d31565b600285815481101515612d6757fe5b90600052602060002001606060405190810160405290816000820160009054906101000a900460ff161515151581526020016000820160019054906101000a900460ff161515151581526020016000820160029054906101000a900460ff1660ff1660ff16815250509050806000015181602001518260400151935093509350509193909250565b600081600381815481101515612e0157fe5b906000526020600020906003020160000160009054906101000a900473ffffffffffffffffffffffffffffffffffffffff1673ffffffffffffffffffffffffffffffffffffffff163373ffffffffffffffffffffffffffffffffffffffff161480612ed75750600381815481101515612e7657fe5b906000526020600020906003020160010160009054906101000a900473ffffffffffffffffffffffffffffffffffffffff1673ffffffffffffffffffffffffffffffffffffffff163373ffffffffffffffffffffffffffffffffffffffff16145b80612f4d5750600381815481101515612eec57fe5b906000526020600020906003020160020160009054906101000a900473ffffffffffffffffffffffffffffffffffffffff1673ffffffffffffffffffffffffffffffffffffffff163373ffffffffffffffffffffffffffffffffffffffff16145b1515612fe7576040517f08c379a00000000000000000000000000000000000000000000000000000000081526004018080602001828103825260338152602001807f54686973207472616e73616374696f6e206d7573742062652063616c6c65642081526020017f62792070726f6a6563742072656665726565210000000000000000000000000081525060400191505060405180910390fd5b6081600584815481101515612ff857fe5b906000526020600020906007020160040160006101000a81548160ff021916908360ff16021790555060816008600085815260200190815260200160002060040160006101000a81548160ff021916908360ff1602179055506001915050919050565b60058181548110151561306a57fe5b9060005260206000209060070201600091509050806000018054600181600116156101000203166002900480601f0160208091040260200160405190810160405280929190818152602001828054600181600116156101000203166002900480156131165780601f106130eb57610100808354040283529160200191613116565b820191906000526020600020905b8154815290600101906020018083116130f957829003601f168201915b505050505090806001018054600181600116156101000203166002900480601f0160208091040260200160405190810160405280929190818152602001828054600181600116156101000203166002900480156131b45780601f10613189576101008083540402835291602001916131b4565b820191906000526020600020905b81548152906001019060200180831161319757829003601f168201915b5050505050908060020154908060030154908060040160009054906101000a900460ff16905085565b600060606000600b546005858154811015156131f557fe5b906000526020600020906007020160030154014210151561321557600080fd5b60058481548110151561322457fe5b90600052602060002090600702016005018054806020026020016040519081016040528092919081815260200182805480156132b557602002820191906000526020600020905b8160009054906101000a900473ffffffffffffffffffffffffffffffffffffffff1673ffffffffffffffffffffffffffffffffffffffff168152602001906001019080831161326b575b50505050509150600090505b815181101561332b573373ffffffffffffffffffffffffffffffffffffffff1682828151811015156132ef57fe5b9060200190602002015173ffffffffffffffffffffffffffffffffffffffff16141561331e5760009250613661565b80806001019150506132c1565b60058481548110151561333a57fe5b90600052602060002090600702016005013390806001815401808255809150509060018203906000526020600020016000909192909190916101000a81548173ffffffffffffffffffffffffffffffffffffffff021916908373ffffffffffffffffffffffffffffffffffffffff1602179055505060036005858154811015156133c057fe5b9060005260206000209060070201600201548154811015156133de57fe5b906000526020600020906003020160000160009054906101000a900473ffffffffffffffffffffffffffffffffffffffff1673ffffffffffffffffffffffffffffffffffffffff163373ffffffffffffffffffffffffffffffffffffffff16141561349457601060058581548110151561345457fe5b906000526020600020906007020160040160008282829054906101000a900460ff160192506101000a81548160ff021916908360ff16021790555061365c565b60036005858154811015156134a557fe5b9060005260206000209060070201600201548154811015156134c357fe5b906000526020600020906003020160010160009054906101000a900473ffffffffffffffffffffffffffffffffffffffff1673ffffffffffffffffffffffffffffffffffffffff163373ffffffffffffffffffffffffffffffffffffffff16141561357957602060058581548110151561353957fe5b906000526020600020906007020160040160008282829054906101000a900460ff160192506101000a81548160ff021916908360ff16021790555061365b565b600360058581548110151561358a57fe5b9060005260206000209060070201600201548154811015156135a857fe5b906000526020600020906003020160020160009054906101000a900473ffffffffffffffffffffffffffffffffffffffff1673ffffffffffffffffffffffffffffffffffffffff163373ffffffffffffffffffffffffffffffffffffffff16141561365a57604060058581548110151561361e57fe5b906000526020600020906007020160040160008282829054906101000a900460ff160192506101000a81548160ff021916908360ff1602179055505b5b5b600192505b5050919050565b600060093390806001815401808255809150509060018203906000526020600020016000909192909190916101000a81548173ffffffffffffffffffffffffffffffffffffffff021916908373ffffffffffffffffffffffffffffffffffffffff160217905550506001905090565b6060600460008373ffffffffffffffffffffffffffffffffffffffff1673ffffffffffffffffffffffffffffffffffffffff16815260200190815260200160002080548060200260200160405190810160405280929190818152602001828054801561376257602002820191906000526020600020905b81548152602001906001019080831161374e575b50505050509050919050565b6000600580549050905090565b600060606000600b5460058581548110151561379357fe5b90600052602060002090600702016003015401421015156137b357600080fd5b6005848154811015156137c257fe5b906000526020600020906007020160060180548060200260200160405190810160405280929190818152602001828054801561385357602002820191906000526020600020905b8160009054906101000a900473ffffffffffffffffffffffffffffffffffffffff1673ffffffffffffffffffffffffffffffffffffffff1681526020019060010190808311613809575b50505050509150600090505b81518110156138c9573373ffffffffffffffffffffffffffffffffffffffff16828281518110151561388d57fe5b9060200190602002015173ffffffffffffffffffffffffffffffffffffffff1614156138bc5760009250613bff565b808060010191505061385f565b6005848154811015156138d857fe5b90600052602060002090600702016006013390806001815401808255809150509060018203906000526020600020016000909192909190916101000a81548173ffffffffffffffffffffffffffffffffffffffff021916908373ffffffffffffffffffffffffffffffffffffffff16021790555050600360058581548110151561395e57fe5b90600052602060002090600702016002015481548110151561397c57fe5b906000526020600020906003020160000160009054906101000a900473ffffffffffffffffffffffffffffffffffffffff1673ffffffffffffffffffffffffffffffffffffffff163373ffffffffffffffffffffffffffffffffffffffff161415613a325760026005858154811015156139f257fe5b906000526020600020906007020160040160008282829054906101000a900460ff160192506101000a81548160ff021916908360ff160217905550613bfa565b6003600585815481101515613a4357fe5b906000526020600020906007020160020154815481101515613a6157fe5b906000526020600020906003020160010160009054906101000a900473ffffffffffffffffffffffffffffffffffffffff1673ffffffffffffffffffffffffffffffffffffffff163373ffffffffffffffffffffffffffffffffffffffff161415613b17576004600585815481101515613ad757fe5b906000526020600020906007020160040160008282829054906101000a900460ff160192506101000a81548160ff021916908360ff160217905550613bf9565b6003600585815481101515613b2857fe5b906000526020600020906007020160020154815481101515613b4657fe5b906000526020600020906003020160020160009054906101000a900473ffffffffffffffffffffffffffffffffffffffff1673ffffffffffffffffffffffffffffffffffffffff163373ffffffffffffffffffffffffffffffffffffffff161415613bf8576008600585815481101515613bbc57fe5b906000526020600020906007020160040160008282829054906101000a900460ff160192506101000a81548160ff021916908360ff1602179055505b5b5b600192505b5050919050565b600281815481101515613c1557fe5b906000526020600020016000915090508060000160009054906101000a900460ff16908060000160019054906101000a900460ff16908060000160029054906101000a900460ff16905083565b600381815481101515613c7157fe5b90600052602060002090600302016000915090508060000160009054906101000a900473ffffffffffffffffffffffffffffffffffffffff16908060010160009054906101000a900473ffffffffffffffffffffffffffffffffffffffff16908060020160009054906101000a900473ffffffffffffffffffffffffffffffffffffffff16905083565b60008060006009805490509150600090505b600980549050811015613d9c573373ffffffffffffffffffffffffffffffffffffffff16600982815481101515613d4057fe5b9060005260206000200160009054906101000a900473ffffffffffffffffffffffffffffffffffffffff1673ffffffffffffffffffffffffffffffffffffffff161415613d8f57809150613d9c565b8080600101915050613d0d565b6009600160098054905003815481101515613db357fe5b9060005260206000200160009054906101000a900473ffffffffffffffffffffffffffffffffffffffff16600983815481101515613ded57fe5b9060005260206000200160006101000a81548173ffffffffffffffffffffffffffffffffffffffff021916908373ffffffffffffffffffffffffffffffffffffffff1602179055506009805480919060019003613e4a9190614dbe565b5060009250505090565b6000600180549050905090565b606080600080600080613e72614ce4565b600188815481101515613e8157fe5b906000526020600020906006020160c06040519081016040529081600082018054600181600116156101000203166002900480601f016020809104026020016040519081016040528092919081815260200182805460018160011615610100020316600290048015613f345780601f10613f0957610100808354040283529160200191613f34565b820191906000526020600020905b815481529060010190602001808311613f1757829003601f168201915b50505050508152602001600182018054600181600116156101000203166002900480601f016020809104026020016040519081016040528092919081815260200182805460018160011615610100020316600290048015613fd65780601f10613fab57610100808354040283529160200191613fd6565b820191906000526020600020905b815481529060010190602001808311613fb957829003601f168201915b505050505081526020016002820160009054906101000a900473ffffffffffffffffffffffffffffffffffffffff1673ffffffffffffffffffffffffffffffffffffffff1673ffffffffffffffffffffffffffffffffffffffff16815260200160038201548152602001600482015481526020016005820154815250509050806000015181602001518260400151836060015184608001518560a001518595508494509650965096509650965096505091939550919395565b600080600061409c614b99565b60009250600091506081816080015160ff1614156140bd57600093506145c8565b6080816080015160ff1614156140d657600193506145c8565b6005858154811015156140e557fe5b906000526020600020906007020160e06040519081016040529081600082018054600181600116156101000203166002900480601f0160208091040260200160405190810160405280929190818152602001828054600181600116156101000203166002900480156141985780601f1061416d57610100808354040283529160200191614198565b820191906000526020600020905b81548152906001019060200180831161417b57829003601f168201915b50505050508152602001600182018054600181600116156101000203166002900480601f01602080910402602001604051908101604052809291908181526020018280546001816001161561010002031660029004801561423a5780601f1061420f5761010080835404028352916020019161423a565b820191906000526020600020905b81548152906001019060200180831161421d57829003601f168201915b5050505050815260200160028201548152602001600382015481526020016004820160009054906101000a900460ff1660ff1660ff168152602001600582018054806020026020016040519081016040528092919081815260200182805480156142f957602002820191906000526020600020905b8160009054906101000a900473ffffffffffffffffffffffffffffffffffffffff1673ffffffffffffffffffffffffffffffffffffffff16815260200190600101908083116142af575b505050505081526020016006820180548060200260200160405190810160405280929190818152602001828054801561438757602002820191906000526020600020905b8160009054906101000a900473ffffffffffffffffffffffffffffffffffffffff1673ffffffffffffffffffffffffffffffffffffffff168152602001906001019080831161433d575b505050505081525050905060016040826080015160ff168115156143a757fe5b0460ff1614156143dd5760408160800181815160ff168115156143c657fe5b0691509060ff16908160ff16815250506001830192505b60016020826080015160ff168115156143f257fe5b0460ff1614156144285760208160800181815160ff1681151561441157fe5b0691509060ff16908160ff16815250506001830192505b60016010826080015160ff1681151561443d57fe5b0460ff1614156144735760108160800181815160ff1681151561445c57fe5b0691509060ff16908160ff16815250506001830192505b60028310151561448657600193506145c8565b60016008826080015160ff1681151561449b57fe5b0460ff1614156144d15760088160800181815160ff168115156144ba57fe5b0691509060ff16908160ff16815250506001820191505b60016004826080015160ff168115156144e657fe5b0460ff16141561451c5760048160800181815160ff1681151561450557fe5b0691509060ff16908160ff16815250506001820191505b60016002826080015160ff1681151561453157fe5b0460ff1614156145675760028160800181815160ff1681151561455057fe5b0691509060ff16908160ff16815250506001820191505b60028210151561457a57600093506145c8565b81831115614599578060c0015151600a8260a0015151011193506145c8565b828210156145b5578060c00151518160a00151511193506145c8565b8060c001515160058260a0015151011193505b505050919050565b60006145da614ce4565b858160000181905250848160200181905250838160600181815250508281608001818152505033816040019073ffffffffffffffffffffffffffffffffffffffff16908173ffffffffffffffffffffffffffffffffffffffff1681525050348160a001818152505060018190806001815401808255809150509060018203906000526020600020906006020160009091929091909150600082015181600001908051906020019061468c929190614bda565b5060208201518160010190805190602001906146a9929190614bda565b5060408201518160020160006101000a81548173ffffffffffffffffffffffffffffffffffffffff021916908373ffffffffffffffffffffffffffffffffffffffff160217905550606082015181600301556080820151816004015560a082015181600501555050506001915050949350505050565b6000614729614d31565b600181600001901515908115158152505060018160200190151590811515815250506000816040019060ff16908160ff168152505060028190806001815401808255809150509060018203906000526020600020016000909192909190915060008201518160000160006101000a81548160ff02191690831515021790555060208201518160000160016101000a81548160ff02191690831515021790555060408201518160000160026101000a81548160ff021916908360ff160217905550505050600191505090565b60006147fe614d5a565b6000614808614a98565b905060098181548110151561481957fe5b9060005260206000200160009054906101000a900473ffffffffffffffffffffffffffffffffffffffff16826000019073ffffffffffffffffffffffffffffffffffffffff16908173ffffffffffffffffffffffffffffffffffffffff16815250506009805490506001820181151561488e57fe5b0690506009818154811015156148a057fe5b9060005260206000200160009054906101000a900473ffffffffffffffffffffffffffffffffffffffff16826020019073ffffffffffffffffffffffffffffffffffffffff16908173ffffffffffffffffffffffffffffffffffffffff16815250506009805490506001820181151561491557fe5b06905060098181548110151561492757fe5b9060005260206000200160009054906101000a900473ffffffffffffffffffffffffffffffffffffffff16826040019073ffffffffffffffffffffffffffffffffffffffff16908173ffffffffffffffffffffffffffffffffffffffff16815250506003829080600181540180825580915050906001820390600052602060002090600302016000909192909190915060008201518160000160006101000a81548173ffffffffffffffffffffffffffffffffffffffff021916908373ffffffffffffffffffffffffffffffffffffffff16021790555060208201518160010160006101000a81548173ffffffffffffffffffffffffffffffffffffffff021916908373ffffffffffffffffffffffffffffffffffffffff16021790555060408201518160020160006101000a81548173ffffffffffffffffffffffffffffffffffffffff021916908373ffffffffffffffffffffffffffffffffffffffff16021790555050505060019250505090565b6000806001805490504233600c54604051602001808481526020018373ffffffffffffffffffffffffffffffffffffffff1673ffffffffffffffffffffffffffffffffffffffff166c0100000000000000000000000002815260140182815260200193505050506040516020818303038152906040526040518082805190602001908083835b602083101515614b435780518252602082019150602081019050602083039250614b1e565b6001836020036101000a038019825116818451168082178552505050505050905001915050604051809103902060019004811515614b7d57fe5b069050600c600081548092919060010191905055508091505090565b60e06040519081016040528060608152602001606081526020016000815260200160008152602001600060ff16815260200160608152602001606081525090565b828054600181600116156101000203166002900490600052602060002090601f016020900481019282601f10614c1b57805160ff1916838001178555614c49565b82800160010185558215614c49579182015b82811115614c48578251825591602001919060010190614c2d565b5b509050614c569190614dea565b5090565b828054828255906000526020600020908101928215614cd3579160200282015b82811115614cd25782518260006101000a81548173ffffffffffffffffffffffffffffffffffffffff021916908373ffffffffffffffffffffffffffffffffffffffff16021790555091602001919060010190614c7a565b5b509050614ce09190614e0f565b5090565b60c0604051908101604052806060815260200160608152602001600073ffffffffffffffffffffffffffffffffffffffff1681526020016000815260200160008152602001600081525090565b606060405190810160405280600015158152602001600015158152602001600060ff1681525090565b606060405190810160405280600073ffffffffffffffffffffffffffffffffffffffff168152602001600073ffffffffffffffffffffffffffffffffffffffff168152602001600073ffffffffffffffffffffffffffffffffffffffff1681525090565b815481835581811115614de557818360005260206000209182019101614de49190614dea565b5b505050565b614e0c91905b80821115614e08576000816000905550600101614df0565b5090565b90565b614e4f91905b80821115614e4b57600081816101000a81549073ffffffffffffffffffffffffffffffffffffffff021916905550600101614e15565b5090565b905600a165627a7a72305820d5bfbfb41454a65e6652bf1a7e117ef4479be4be7a0a1509a908e8bd975517500029",
  "source": "pragma solidity ^0.4.24;\n\ncontract DodoRepository {\n    address owner;\n    ProjectInfo[] public infos;\n    ProjectStatus[] public statuses;\n    ProjectReferees[] public referees;\n    mapping(address => uint[]) apMap; // key: participant address, value: project index\n\n    Proof[] public proofs; \n    mapping(uint => uint[]) ppMap; // key: project index, value: proof indexes\n    mapping(address => uint[]) rpMap; // key: judge address, value: proof indexes\n\n    mapping(uint => Proof) claims; // key: proof index, value: claim\n\n    address[] public whiteList;\n    address[] public blackList; //    \n    uint period = 2 days;\n    uint nonce = 0;\n\n    struct ProjectInfo {\n        string name;\n        string description;\n        address participant;\n        uint startDate;\n        uint endDate;\n        uint freezeAmount;\n    }\n\n    struct ProjectStatus {\n        bool active; // \n        bool success; // \n        uint8 claimed;\n    }\n\n    struct ProjectReferees {\n        address referee1; \n        address referee2;\n        address referee3;\n    }\n\n    struct Proof {\n        string name;\n        string memo;\n        uint projectNo;\n        uint timestamp;\n        uint8 judged; // 1: , 0: , 2,4,8   16,32,64   48  ( 2/3  ), 128   , 129  \n        address[] like;\n        address[] dislike;\n    }\n\n    modifier onlyOwner() {\n        require(msg.sender == owner, \"This transaction must be called by owner!\");\n        _;\n    }\n\n    modifier onlyReferee(uint _index) {\n        require(\n            msg.sender == referees[_index].referee1 \n            || msg.sender == referees[_index].referee2\n            || msg.sender == referees[_index].referee3, \n            \"This transaction must be called by project referee!\"\n        ); \n        _;\n    }\n    \n    modifier onlyProjectOwner(uint _index) {\n        require(msg.sender == infos[_index].participant, \"This transaction must be called by project owner\");\n        _;\n    }\n\n    modifier onlyProjectOwner2(uint _index) {\n        require(msg.sender == infos[proofs[_index].projectNo].participant, \n            \"This transaction must be called by project owner\");\n        _;\n    }\n\n    /**\n    * @dev Created a DodoRepository\n    */\n    constructor() public {\n        owner = 0xbf128F013F40ec7Fdfe95d0A298E85764f628e7F;\n        whiteList.push(0xbf128F013F40ec7Fdfe95d0A298E85764f628e7F);\n    }\n\n    function () external payable {\n        revert();\n    }   \n\n    /**\n    * @dev Create Project\n    * @param _name name of the Project\n    * @param _description description of the Project\n    * @param _startDate start timestamp\n    * @param _endDate end timestamp\n    * @return bool result of transaction\n    */\n    function createProject(string _name,\n                            string _description,\n                            uint _startDate,\n                            uint _endDate) public payable returns (bool) {\n        assert(createInfo(_name, _description, _startDate, _endDate)\n            && createStatus()\n            && createReferees());\n        apMap[msg.sender].push(infos.length - 1);\n        return true;\n    }\n\n    /**\n    * @dev Finalize Project\n    * @param _index Index of the Project \n    * @return bool result of transaction\n    */\n    function finalizeProject(uint _index) public payable returns (bool) {\n        ProjectInfo memory info = infos[_index];\n        ProjectStatus memory status = statuses[_index];\n        require(now >= info.endDate + period * (status.claimed + 1),\n            \"This transaction must be fired after claim date finished!\");\n        uint successCount = 0;\n        for (uint i = 0; i < ppMap[_index].length; i++) {\n            if (calculateProof(ppMap[_index][i])) successCount += 1;\n        }\n        status.success = successCount * 10 >= (info.endDate - info.startDate) * 8 / 1 days;\n        status.active = false;\n        statuses[_index] = status;\n        if (status.success) {\n            info.participant.transfer(info.freezeAmount);\n        } else {\n            owner.transfer(info.freezeAmount);\n        }\n        return true;\n    }\n\n    /**\n    * @dev Submit Proof\n    * @param _index Index of the Proof \n    * @param name name of the proof\n    * @param memo description of the proof\n    * @return bool result of transaction\n    */\n    function submitProof(uint _index, string name, string memo) public onlyProjectOwner(_index) returns (bool) {\n        Proof memory newProof;\n        newProof.name = name;\n        newProof.memo = memo;\n        newProof.timestamp = now;\n        newProof.judged = 0;\n        newProof.projectNo = _index;\n        proofs.push(newProof);\n        ppMap[_index].push(proofs.length - 1);\n        rpMap[referees[_index].referee1].push(proofs.length - 1);\n        rpMap[referees[_index].referee2].push(proofs.length - 1);\n        rpMap[referees[_index].referee3].push(proofs.length - 1);\n\n        return true;\n    }\n\n    /**\n    * @dev Claim Judge\n    * @param _index Index of the Project\n    * @param name name of the proof\n    * @param memo description of the proof \n    * @return bool result of transaction\n    */\n    function claimJudge(uint _index, string name, string memo) public onlyProjectOwner2(_index) returns (bool) {\n        Proof memory newProof;\n        newProof.name = name;\n        newProof.memo = memo;\n        newProof.timestamp = now;\n        newProof.judged = 1;\n        claims[_index] = newProof;\n        proofs[_index].judged = 1;\n        \n        statuses[proofs[_index].projectNo].claimed += 1;\n\n        return true;\n    }\n\n    /**\n    * @dev Claim Approve\n    * @param _index Index of the Project \n    * @return bool result of transaction\n    */\n    function claimApprove(uint _index) public onlyReferee(_index) returns (bool) {\n        proofs[_index].judged = 128;\n        claims[_index].judged = 128;\n        return true;\n    }\n\n    /**\n    * @dev Claim Decline\n    * @param _index Index of the Project \n    * @return bool result of transaction\n    */\n    function claimDecline(uint _index) public onlyReferee(_index) returns (bool) {\n        proofs[_index].judged = 129;\n        claims[_index].judged = 129;\n        return true;\n    }\n\n    /**\n    * @dev Apply Referee\n    * @return bool result of transaction\n    */\n    function applyReferee() public returns (bool) {\n        whiteList.push(msg.sender);\n        return true;\n    }\n\n    /**\n    * @dev Cancel Referee\n    * @return bool result of transaction\n    */\n    function cancelReferee() public returns (bool) {\n        uint index = whiteList.length;\n        for (uint i = 0; i < whiteList.length; i++) {\n            if (whiteList[i] == msg.sender) {\n                index = i;\n                break;\n            }\n        }\n        whiteList[index] = whiteList[whiteList.length - 1];\n        whiteList.length--;\n        return false;\n    }\n\n    function likeProof(uint _index) public returns (bool) {\n        require(now < proofs[_index].timestamp + period);\n        address[] memory arr = proofs[_index].like;\n        for (uint i = 0; i < arr.length; i++) {\n            if (arr[i] == msg.sender) {\n                return false;\n            }\n        }\n        proofs[_index].like.push(msg.sender);\n        if (msg.sender == referees[proofs[_index].projectNo].referee1) {\n            proofs[_index].judged += 16;\n        } else if (msg.sender == referees[proofs[_index].projectNo].referee2) {\n            proofs[_index].judged += 32;\n        } else if (msg.sender == referees[proofs[_index].projectNo].referee3) {\n            proofs[_index].judged += 64;\n        }\n\n        return true;\n    }\n\n    function dislikeProof(uint _index) public returns (bool) {\n        require(now < proofs[_index].timestamp + period);\n        address[] memory arr = proofs[_index].dislike;\n        for (uint i = 0; i < arr.length; i++) {\n            if (arr[i] == msg.sender) {\n                return false;\n            }\n        }\n        proofs[_index].dislike.push(msg.sender);\n        if (msg.sender == referees[proofs[_index].projectNo].referee1) {\n            proofs[_index].judged += 2;\n        } else if (msg.sender == referees[proofs[_index].projectNo].referee2) {\n            proofs[_index].judged += 4;\n        } else if (msg.sender == referees[proofs[_index].projectNo].referee3) {\n            proofs[_index].judged += 8;\n        }\n        return true;\n    }\n\n    /**\n    * @dev Get Referee List\n    * @return address represents the referee list of Projects\n    */\n    function getWhiteList() public view returns (address[]) {\n        return whiteList;\n    }\n\n    /**\n    * @dev Get Project Counts\n    * @return uint256 represents the number of Projects\n    */\n    function getProjectCounts() public view returns (uint) {\n        return infos.length;\n    }\n\n    /**\n    * @dev Get Project Info by Index\n    * @param _index Index of the Project \n    * @return Project represents the Project\n    */\n    function getProjectInfo(uint _index) public view returns (string name,\n                                                        string description,\n                                                        address participant,\n                                                        uint startDate,\n                                                        uint endDate,\n                                                        uint freeAmount) {\n        ProjectInfo memory project = infos[_index];\n        return (\n            project.name, project.description, project.participant,\n            project.startDate, project.endDate, project.freezeAmount\n        );\n    }\n\n    /**\n    * @dev Get Project Status by Index\n    * @param _index Index of the Project \n    * @return Project represents the Project\n    */\n    function getProjectStatus(uint _index) public view returns (bool active, // \n                                                        bool success, // \n                                                        uint8 claimed) {\n        ProjectStatus memory project = statuses[_index];\n        return (project.active, project.success, project.claimed);\n    }\n\n    /**\n    * @dev Get Project Referees by Index\n    * @param _index Index of the Project \n    * @return Project represents the Project\n    */\n    function getProjectReferees(uint _index) public view returns (address, \n                                                        address,\n                                                        address) {\n        ProjectReferees memory project = referees[_index];\n        return (project.referee1, project.referee2, project.referee3);\n    }\n\n    /**\n    * @dev Get My Project List\n    * @param _address address \n    * @return uint[] represents the number of my Projects\n    */\n    function getMyProjectList(address _address) public view returns (uint[] list) {\n        return apMap[_address];\n    }\n\n    /**\n    * @dev Get All Proof Count\n    * @return uint represents the count of All Project Proofs\n    */\n    function getAllProofsCount() public view returns (uint) {\n        return proofs.length;\n    }\n\n    /**\n    * @dev Get Proof Count\n    * @param _index index of 0..<number of my Projects\n    * @return uint represents the count of my Projects Proof\n    */\n    function getProofsCount(uint _index) public view returns (uint) {\n        return ppMap[_index].length;\n    }\n\n    /**\n    * @dev Get Proof\n    * @param _index index of proof \n    * @return proof information\n    */\n    function getProof(uint _index) public view returns (string name,\n        string memo,\n        uint projectNo,\n        uint timestamp,\n        uint8 judged,\n        address[] like,\n        address[] dislike) {\n        return (\n            proofs[_index].name,\n            proofs[_index].memo,\n            proofs[_index].projectNo,\n            proofs[_index].timestamp,\n            proofs[_index].judged,\n            proofs[_index].like,\n            proofs[_index].dislike\n        );\n    }\n\n    function getProofList(uint _index) public view returns (uint[] list) {\n        return ppMap[_index];\n    }\n\n    function getJudgeList(address _address) public view returns (uint[] list) {\n        return rpMap[_address];\n    }\n\n    /**\n    * @dev Get Claim\n    * @param _index proof index  \n    * @return claim information\n    */\n    function getClaim(uint _index) public view returns (string name,\n                                                        string memo,\n                                                        uint timestamp,\n                                                        uint8 judged) {\n        Proof memory claim = claims[_index];\n        return (\n            claim.name,\n            claim.memo,\n            claim.timestamp,\n            claim.judged\n        );\n    }\n\n    function random() internal returns (uint) {\n        uint randomnumber = uint(keccak256(abi.encodePacked(now, msg.sender, nonce))) % infos.length;\n        nonce++;\n        return randomnumber;\n    }\n\n    function createInfo(string _name,\n                            string _description,\n                            uint _startDate,\n                            uint _endDate) internal returns (bool) {\n        ProjectInfo memory newProject;\n        newProject.name = _name;\n        newProject.description = _description;\n        newProject.startDate = _startDate;\n        newProject.endDate = _endDate;\n        newProject.participant = msg.sender;\n        newProject.freezeAmount = msg.value;\n        infos.push(newProject);\n        return true;\n    }\n\n    function createStatus() internal returns (bool) {\n        ProjectStatus memory newProject;\n        newProject.active = true;\n        newProject.success = true;\n        newProject.claimed = 0;\n        statuses.push(newProject);\n        return true;\n    }\n\n    function createReferees() internal returns (bool) {\n        ProjectReferees memory newProject;\n        uint randNum = random();\n        newProject.referee1 = whiteList[randNum];\n        randNum = (randNum + 1) % whiteList.length;\n        newProject.referee2 = whiteList[randNum];\n        randNum = (randNum + 1) % whiteList.length;\n        newProject.referee3 = whiteList[randNum];\n        referees.push(newProject);\n        return true;\n    }\n\n    function calculateProof(uint _index) internal view returns (bool) {\n        uint successCount = 0;\n        uint failCount = 0;\n\n        if (proof.judged == 129) {\n            return false;\n        }\n\n        if (proof.judged == 128) {\n            return true;\n        }\n\n        Proof memory proof = proofs[_index];\n        if (proof.judged / 64 == 1) {\n            proof.judged %= 64;\n            successCount += 1;\n        }\n        if (proof.judged / 32 == 1) {\n            proof.judged %= 32;\n            successCount += 1;\n        }\n        if (proof.judged / 16 == 1) {\n            proof.judged %= 16;\n            successCount += 1;\n        }\n        if (successCount >= 2) return true;\n\n        if (proof.judged / 8 == 1) {\n            proof.judged %= 8;\n            failCount += 1;\n        }\n        if (proof.judged / 4 == 1) {\n            proof.judged %= 4;\n            failCount += 1;\n        }\n        if (proof.judged / 2 == 1) {\n            proof.judged %= 2;\n            failCount += 1;\n        }\n        if (failCount >= 2) return false;\n\n        if (successCount > failCount) {\n            return proof.like.length + 10 > proof.dislike.length;\n        } else if (failCount < successCount) {\n            return proof.like.length > proof.dislike.length;\n        } else {\n            return proof.like.length + 5 > proof.dislike.length;\n        }\n    }\n}\n",
  "sourcePath": "/Users/junpark/codingcoding/dodo-klaytn/contracts/DodoRepository.sol",
  "compiler": {
    "name": "solc",
    "version": "0.4.25+commit.59dbf8f1.Emscripten.clang"
  },
  "schemaVersion": "2.0.2",
  "updatedAt": "2019-05-21T15:10:37.686Z"
}